:020000040000FA
:1000000060600020D11B0000DD690000A51B00001E
:10001000A51B0000A51B0000A51B000000000000A0
:100020000000000000000000000000002517000094
:10003000A51B000000000000A51B0000A51B000080
:10004000A5170000A5170000A5170000A5170000C0
:10005000A5170000A5170000A5170000A5170000B0
:10006000A5170000A5170000A5170000A5170000A0
:10007000A5170000A5170000A5170000A517000090
:10008000A5170000A5170000A5170000A517000080
:10009000A5170000A5170000A5170000A517000070
:1000A000A5170000A5170000A5170000A517000060
:1000B000A5170000A5170000A5170000A517000050
:1000C000A5170000A5170000A5170000A517000040
:1000D000A5170000A5170000A5170000A517000030
:1000E000A5170000A5170000A5170000A517000020
:1000F000A5170000A5170000A5170000A517000010
:1001000053B94AB9002908BF00281CBF4FF0FF317E
:100110004FF0FF3000F074B9ADF1080C6DE904CE7A
:1001200000F006F8DDF804E0DDE9022304B07047D2
:100130002DE9F047089D04468E46002B4DD18A429A
:10014000944669D9B2FA82F252B101FA02F3C2F1CD
:10015000200120FA01F10CFA02FC41EA030E94405E
:100160004FEA1C48210CBEFBF8F61FFA8CF708FB7F
:1001700016E341EA034306FB07F199420AD91CEB57
:10018000030306F1FF3080F01F81994240F21C8189
:10019000023E63445B1AA4B2B3FBF8F008FB1033D1
:1001A00044EA034400FB07F7A7420AD91CEB040406
:1001B00000F1FF3380F00A81A74240F207816444D6
:1001C000023840EA0640E41B00261DB1D44000235B
:1001D000C5E900433146BDE8F0878B4209D9002DBF
:1001E00000F0EF800026C5E9000130463146BDE849
:1001F000F087B3FA83F6002E4AD18B4202D38242B3
:1002000000F2F980841A61EB030301209E46002D61
:10021000E0D0C5E9004EDDE702B9FFDEB2FA82F2B6
:10022000002A40F09280A1EB0C014FEA1C471FFA14
:100230008CFE0126200CB1FBF7F307FB131140EAFB
:1002400001410EFB03F0884208D91CEB010103F1C8
:10025000FF3802D2884200F2CB804346091AA4B28A
:10026000B1FBF7F007FB101144EA01440EFB00FE5E
:10027000A64508D91CEB040400F1FF3102D2A645C3
:1002800000F2BB800846A4EB0E0440EA03409CE762
:10029000C6F12007B34022FA07FC4CEA030C20FA0F
:1002A00007F401FA06F31C43F9404FEA1C4900FA2F
:1002B00006F3B1FBF9F8200C1FFA8CFE09FB1811AC
:1002C00040EA014108FB0EF0884202FA06F20BD91F
:1002D0001CEB010108F1FF3A80F08880884240F26F
:1002E0008580A8F102086144091AA4B2B1FBF9F0B3
:1002F00009FB101144EA014100FB0EFE8E4508D9AE
:100300001CEB010100F1FF346CD28E456AD9023832
:10031000614440EA0840A0FB0294A1EB0E01A14217
:10032000C846A64656D353D05DB1B3EB080261EB85
:100330000E0101FA07F722FA06F3F1401F43C5E95F
:10034000007100263146BDE8F087C2F12003D84095
:100350000CFA02FC21FA03F3914001434FEA1C47D7
:100360001FFA8CFEB3FBF7F007FB10360B0C43EAC9
:10037000064300FB0EF69E4204FA02F408D91CEB79
:10038000030300F1FF382FD29E422DD90238634477
:100390009B1B89B2B3FBF7F607FB163341EA034117
:1003A00006FB0EF38B4208D91CEB010106F1FF3866
:1003B00016D28B4214D9023E6144C91A46EA00465D
:1003C00038E72E46284605E70646E3E61846F8E6EF
:1003D0004B45A9D2B9EB020864EB0C0E0138A3E738
:1003E0004646EAE7204694E74046D1E7D0467BE719
:1003F000023B614432E7304609E76444023842E791
:10040000704700BF7FB5304B304AC3F800263048F4
:10041000C3F804264921C3F80826C3F80C26C3F8FC
:100420001026C3F81426C3F81826C3F81C2606F0B5
:100430003BFA05F02EFF274800F05CF828B9254A62
:100440002548452106F030FAFEE701A800F04AFCF5
:10045000224B1B68834204D02148452106F024FA30
:10046000FEE7039A1F48492106F01EFA1E4849215B
:1004700006F01AFA4FF41041002006F0E2FD20B118
:100480001A48452106F010FAFEE769469DF8080073
:1004900000F03CF8009B039C1C44019B1D8900F06C
:1004A000B3FC66194FF02002EFF3118382F3128838
:1004B000BFF36F8F635983F30888736898470C48BC
:1004C000452106F0F1F9FEE7000001403546526E85
:1004D000A27A0000BB7A0000CE7A0000EC21002056
:1004E000ED7A0000107B00003F7B0000647B000081
:1004F000977B000010B5044C236813B904F084F90D
:100500002060206810BD00BFE821002008B540B180
:10051000024600230448452106F0C6F96FF0150095
:1005200008BD0860FCE700BFBA7B00002DE9F04F72
:100530001D46DBB0824BDDF890B11E68DDE96648F0
:10054000174600F02FFC7F4B0122C3F800253AA884
:1005500004F0D2FD3CB1B8F1000F04DD4246214663
:100560003AA806F0ACF87B89B7F808809844FB6895
:100570004FF000099844C8454ED80DA93AA804F098
:100580002DFE704B0022C3F80025C3F80025689BA0
:1005900023B120220DA9184606F063FA0023009328
:1005A0002A464FF6FF73394607A805F073FE044646
:1005B000002844D1DFF898A1DFF8888102904FF03D
:1005C000FF370DF1160305AA06A907A805F0AEFE30
:1005D000041E34DB40F0A480BDF81690B9F1100F72
:1005E00038D1BDF81490B9F1200F40F0A3800699DE
:1005F0004B463AAA284606F065F90446F8B94A4639
:100600003AA90DA805F009FF04464F4B1B68834229
:1006100015D101230293D4E7659AA8EB09039A4206
:1006200028BF1A461346924649465A46284606F0BF
:1006300049F9044638B1434B0022C3F8002520464F
:100640005BB0BDE8F08F524659463AA806F037F83D
:10065000D14490E7B9F1010F3ED1BDF81430202B01
:1006600068D806993AAA284606F02CF904460028CC
:10067000E5D19DF814B0BBF1200F09D8DAF80030AD
:10068000324F0393039B9C4205DB0023C8F80035DF
:100690004FF0FF341CE000F085FBC8F800951DA862
:1006A00004F02AFD7A6857F8081B12681DA806F0A6
:1006B00006F815A91DA804F091FD0022C8F8002530
:1006C0003AA95A4615A806F0A3F918B9C8F80005C2
:1006D000274676E70134D5E7B9F1220F7FF471AFF1
:1006E0007B1C3FF46EAFDAF80030BB4215DDBDF87D
:1006F0001430802B1ED806993AAA284606F0E2F854
:10070000044600289BD1FFB2BDF8143000973AAAE6
:1007100020210DA800F01EF806464FF0FF3750E7E5
:10072000029B53B1084B1B68B34201D0044B1E68B7
:10073000344684E74FF0FF3481E701247FE700BFB0
:100740000020002000A00250EC2100208C76000048
:10075000887600002DE9F04196B017461D469DF8B9
:100760007020354B0E4653F83210019103EBC20353
:1007700080465B68186802AA0144302301A805F08E
:100780002BFF10B14FF0FF3053E0DDE901431C4473
:1007900003AA06AB214601A805F046FF0028F1D1C7
:1007A000049A072AEED12549059806F031F9002868
:1007B000E8D1079A082AE5D12149089806F028F9D6
:1007C0000028DFD102AA214601A805F019FF002860
:1007D000D8D1DDE9013213449C42D3D1412AD1D191
:1007E0003D44302303AA294602A8029705F0F4FEEF
:1007F0000028C7D1DDE9023213449D42C2D32A4604
:1008000002A906A805F0DDFD0028BBD12A4602A9F1
:100810000EA805F0D6FD0028B4D1202EB2D1019942
:100820000B78042BAED1334606AA0131404600F0C6
:10083000D1FA16B0BDE8F0818C760000E07B0000B4
:10084000E87B00002DE9F0413A4B88B004460020D7
:100850000E461D6805F011FD07A9C0B200F042FE6A
:1008600078BB3146204605F0F8FD00285ED02C23E9
:1008700003FB06431B69DB0658D436B394F84020CB
:10088000237D9A4221D80AD394F84120637D9A426D
:100890001BD804D3B4F84220E38A9A4215D200212F
:1008A000204605F0DAFD80B12348452105F0FCFF24
:1008B00007980021826806F03DF83546079806F053
:1008C00000F8284608B0BDE8F0812C2777434FF4A4
:1008D00080730021019304EB0708184B0093CDE9C6
:1008E0000311079B029142460846FFF71FFE05468B
:1008F000134BE25907989A420ED1B8F80820D8F85D
:100900000C30D1438B4207D813448268934203D200
:100910000C4B1B68AB42D1D056B18268002106F067
:1009200009F8094A0948452105F0BEFF0125C5E738
:10093000074AF7E700200020037C0000443700202E
:100940003DB8F396EC210020F17B00002F7C0000E5
:10095000FB7B00002DE9F84FDFF878B01B4C1C4DF5
:100960008A469046994600260B9B9E4201D3002062
:100970000FE00B9B174A9F1BB7F5806F28BF4FF402
:1009800080673B4606EB0901504605F09BFF10B11E
:100990000120BDE8F88F0A993B465A467118404637
:1009A00005F0ACFF0028F3D1C4F800563E44C4F86B
:1009B0000456C4F80856C4F80C56C4F81056C4F8C7
:1009C0001456C4F81856C4F81C56CDE70000014070
:1009D0003546526E502200202DE9F04F9D4B1F6886
:1009E0009D4B436288469D4B0365002189B00446B8
:1009F000084605F042FC04F12001C0B200F072FD8F
:100A00000121002005F039FC04F14C01C0B200F0D6
:100A100069FD0546204605F044FD064668B90022FA
:100A20001146204605F000FD0646F8B18C4800222C
:100A3000572105F039FF01234FE08A484FF48072B7
:100A4000572105F031FF01239E4284F85830E6D14A
:100A500094F858308DF81730042B41D8012B41D829
:100A600000F0BB80FF2384F85830B6E0204600F049
:100A700049F90028DFD004A805F035FD05F03CFD5C
:100A8000014620B904AA204605F0CEFCD3E79DF824
:100A90001790B9F1010F15D1304602F095FD831E74
:100AA000022B06460BD849462046FFF7CBFE6E4B7D
:100AB0001B68984203D001280CBF0126052684F844
:100AC0005860C5E701212046FFF7BCFE664B1B6856
:100AD00098420CBF9DF81730052384F85830B7E7CB
:100AE000052BBDE70121002005F0C7FB02A9C0B21C
:100AF00000F0F8FC002879D00026029805F0E1FE0D
:100B00005A48492105F0D0FE5948492105F0CCFE4C
:100B100002A9032000F0E6FC03A9012000F0E2FC9A
:100B20000025D4F828A0A946CA4512D0636A0298C5
:100B300003EBC9032946D3F804B05A465D4405F0D7
:100B4000F9FEB542C0F08280E56DB6FBF5F605FB17
:100B50000655E06D05F063FCA26A636A013A196804
:100B600003EBC20300225E68324490429C46A3F12C
:100B70000803F8D8DCF800300298591A05F0DAFEBC
:100B80002A463C48492105F08FFE00230195DDE906
:100B9000022100932046FFF7DDFE0546E8B90298E2
:100BA00002F09EFC0546C0B9236D01465A680398C1
:100BB00005F0C0FED4E91423013B02EBC30052F858
:100BC0003310136842680398C91A05F0B3FE0298FF
:100BD00005F077FE039805F074FE94F85830FF2B6B
:100BE0004CD12548452105F05FFEFEE7A36BA68E9C
:100BF0000298F51803AA0423294605F063FE00288D
:100C00007FF47AAFBDF80C20E68E46F608139A42C0
:100C100019D1BDF80E309E427FF46EAF02980423C6
:100C200003AA711905F04EFE00287FF465AFBDF8E8
:100C30000C2046F607139A427FF45EAFBDF80E30E3
:100C40001E442E4459E7002EF1D055E709F1010961
:100C50006AE700BF0020002050260020502E002010
:100C6000997C0000577C0000EC210020C57C00002E
:100C7000F77C0000157D0000567D0000012B06D09A
:100C800004AA0021204605F0CFFB0546D8B9002173
:100C90002046FFF7D7FD0746114E3368984212D120
:100CA000102200210DEB020005F0E6FE206A05F09F
:100CB000EEFA88F80400236A37685B68C8F80830E1
:100CC000C8F800400025E06C05F0FBFD206A05F047
:100CD000F8FD002D14BF2846384609B0BDE8F08F56
:100CE000EC21002038B5064D04466022002128463C
:100CF00005F0C2FE21462846FFF76EFE38BD00BF54
:100D0000F0210020D0F828C0BCF5807FF8B503D8CA
:100D1000466DB6F5807F36D91F48572105F0C4FDD2
:100D20000020F8BDA54216D1476A07EBC207013281
:100D30007F683D44076D07EBC30701337F683C4480
:100D40009445EFD89E42EDD8944501D19E4220D0E3
:100D500012485721E2E70CD2476A07EBC207022983
:100D60007F683D4402D10E485721D7E70132012167
:100D7000E6E7076D07EBC30701297F683C44F2D023
:100D800001330221DCE700210B460A460C460D46E2
:100D9000D6E70120C5E700BF627D0000C87D0000E6
:100DA000917D000070B5094D2B7853B9084C012690
:100DB000C4F8006504F042FA28B92E70C4F80005A2
:100DC00070BD0020FCE74FF0FF30F9E74438002009
:100DD00000A0025070B50B4EAEB01D46CDE9022109
:100DE0000446FFF7DFFF0123C6F80035DDE90221E5
:100DF0002346009505A806F081FA0023C6F80035C1
:100E00002EB070BD00A00250164A4FF0FF330121F2
:100E10005160C2F84833C2F8083302F5C04251604D
:100E2000C2F84833C2F8083302F598325160C2F86C
:100E30004833C2F80833A2F508320021C2F8001581
:100E4000C2F8083302F51832C2F80015C2F80833A8
:100E5000A2F51042C2F808354FF08042C2F80833BC
:100E6000704700BF00B000400B6801330B60014BBE
:100E70001B68184704200020014B1860704700BF12
:100E80000420002007B50B460021024601910348CB
:100E900001A900F0E9F803B05DF804FB690E000059
:100EA0002DE9F74FB0F8189019F00808044693465A
:100EB0000ED001290CBF49F0100949F02009A0F813
:100EC00018908BF31188BFF36F8F03B0BDE8F08FDC
:100ED000DFF890A109F00709022907D1204605F0A3
:100EE00036FC0028EDD00128238B4BD16769218B7C
:100EF000002F15DA256821F00701C4E9008841F0C8
:100F0000010121830026218B01F007024A4502D00E
:100F1000A368002B57D10DB9002E6FD0002353E0EA
:100F200001F007035A1F012A1DD821F00701062BE3
:100F3000256889B2C4E900880AD13DB1638B2A468D
:100F4000126801339BB2002AFAD1638341F0020197
:100F50002183204605F0FBFB0028D3D0238B43F0F0
:100F600020032383CEE7042B0AD121F0070189B2A5
:100F70002183204605F0EBFB10B141F020012183D5
:100F80000025BFE7032809D1226923F0070316686B
:100F900043F00603238300252F46B4E7042806D137
:100FA000226923F00703566843F00403F2E705289B
:100FB00006D1226923F00703966843F00503E9E7A9
:100FC00000252E46E8E7012341F0080121838BF339
:100FD0001188BFF36F8F03BB002D31D116B151467D
:100FE0002046B0474FF02003EFF3118B83F31288B4
:100FF000BFF36F8F238B23F008032383238BDA0641
:1010000027D523F0100323830121B4F8189009F0A9
:10101000070900297FF460AF53E7A1680029DBD0FE
:10102000D1F80090D1F804B001923B462046D84751
:10103000019AB9F1000FCFD04946D9F80090F1E7F5
:1010400029463B46204601922D6805F09CFB019AFB
:10105000C2E713F020011EBF23F0200323830221E7
:10106000D3E700BFB36700002DE9F04F8FB01E46F5
:10107000531E01908A4602934FF00009029B587854
:10108000252803F1010421D118464FF0000C4FF040
:10109000FF3702306346CDF80CC03D460A24027883
:1010A0000290392A00F1010058D81F2A18D8002AC6
:1010B00000F0F281019B514625209847029B514642
:1010C0001878019B984709F10209D7E7002800F03A
:1010D000E381019B5146984709F101090294CDE74C
:1010E000A2F120011929E5D80FF2040E5EF821F0D3
:1010F00059110000B5100000B51000005911000092
:10110000B5100000DD110000B5100000B5100000A2
:10111000B5100000B51000001F12000059110000AA
:10112000B510000031120000EB110000B5100000F6
:10113000F711000013120000131200001312000038
:10114000131200001312000013120000131200000B
:1011500013120000131200009446A0E7582A00F072
:101160001781A2F163015FFA81FEBEF1170FA1D8CA
:1011700017299FD80FF2040E5EF821F0EF1300003C
:1011800057120000B5100000B5100000B5100000A7
:101190003712000057120000B5100000B510000013
:1011A00037120000B5100000B5100000B5100000A7
:1011B0003D130000B5100000B5100000D113000071
:1011C000B510000057120000B5100000B510000067
:1011D0003D130000B510000037120000019B51467E
:1011E0002520984709F1010948E7039A02F0FE0219
:1011F0000392002753E7002D0BDA002F0BDA039937
:10120000002900F0418125EAE57504FB0525303D04
:1012100045E7002FF7DB04FB0727303F3FE7002FB0
:1012200056F8042B80F23281002A80F23181554237
:101230000222039233E7682A03D1682B06D14823A0
:101240002DE76C2A02D16C2B00F02481002B7FF457
:1012500031AF134623E77A2B06D1752A56F8044B93
:1012600061D14FF000080DE06C2BF6D04C2BF4D17F
:10127000073626F007031E46752AF6E8020107D155
:10128000D3E90048BCF1200F50D1854B013D09E066
:1012900004468846B8F1000FF4DA6442814B68EBEB
:1012A0004808013D00930DAB05934FF0000B20461D
:1012B00041460A220023CDF810B0FEF721FF059B1E
:1012C000CDF81C80303203F801292046CDE90534E1
:1012D000414600230A22FEF713FF069B0A2B079BB9
:1012E00073F100030BF1FF3B04468846DFD2049BF9
:1012F000C3F1010B38330DEB0304002FA4F10404F8
:1013000004DA039B13F0010F18BF2F46039BA7EBD2
:101310000B08B8F1000FD4BFA5EB0B05ED1B9B0725
:101320007CD42F4673E04FEAE478B3E7BCF12B0F8F
:101330000ABF5D4B5D4B05F1FF35B3E7702A27D13E
:1013400056F8041B0023002959D059480090023D4B
:1013500002F06002A2F139080DF1340E002401F010
:101360000F02092A88BF424430320EF801291029A1
:101370004FEA111242EA03724FEA131073F10003AD
:1013800004F1FF3C20D2C4F1010B04F13803B2E7B1
:101390006C2B03D156F8041B002308E04C2BF9D129
:1013A000073626F007031E465B6856F8081BBCF19B
:1013B000230F06D13F4C3E4812F0200F08BF2046B5
:1013C000C4E73A480090C3E7644611460346C6E7BF
:1013D00056F8044B204605F008FB002F834602DB3D
:1013E000B842A8BFBB46314B009300278EE756F8A2
:1013F000043B8DF820304FF0010B08ACF3E72E4C86
:101400004FF0050BEFE7019B514620209847013F25
:10141000F9D525EAE573013D9944ED1A009BA9EB46
:10142000030904E000935146019B9847009B09EB98
:10143000030713F8010B0028F4D1C146B9F10109E3
:1014400012D528EAE878D946B9F1010911D5BBF1DE
:10145000000FA8BFD8442C46013C10D5002DA8BFD2
:10146000A84408EB070909E6019B5146302098473C
:10147000E4E714F8010B019B51469847E4E7019B10
:10148000514620209847E7E70122D2E6174606E6B4
:10149000154604E64C2302E648460FB0BDE8F08F3F
:1014A000FE810000517E0000537E00006387000033
:1014B000587E0000557E00005B7E000008B54FF0AE
:1014C0002002EFF3118382F31288BFF36F8F00F0D5
:1014D000CDFC034805F02EF900F062F8FCE700BFF0
:1014E000617E00000C4B1B6870B573B10B4A156828
:1014F0000022AA4202DB6FF0010070BD1C4613F807
:10150000106B864204D00132F3E76FF00C00F4E771
:101510000C600020F1E700BF0820002018770000D1
:1015200070B588B005460C46C0B269461646FFF74E
:10153000D9FF00281FDB009BEBB15A6802929A6822
:101540002168D8680195CDE903260022CDE906126D
:10155000059203F059F90546009805F0B2F96DB10E
:101560002846084901AA05F0BBFB079808B9059B66
:10157000236008B070BD6FF01500FAE76FF012003D
:10158000F7E700BF87690000014803F00DBB00BF0B
:101590001C770000014910220A60704710ED00E03E
:1015A00072B6404080F31188BFF36F8FBFF34F8F47
:1015B00030BF62B6BFF36F8F704700BF72B649404D
:1015C00081F3118820BF80F3118862B6704700BF95
:1015D00037B505460C46C9B18B680093D1E90023A5
:1015E0000E48452105F060F963690093D4E90323AF
:1015F0000B48452105F058F9E2690A48452105F0F4
:1016000053F9A2690848452105F04EF921462846BC
:1016100003B0BDE8304003F021B900BF927E000066
:10162000C67E0000FA7E00000E7F000043B2002B51
:1016300008DB012200F01F0002FA00F05B09024AF9
:1016400042F82300704700BF00E100E043B2002BE6
:101650000DDB01225B0900F01F0002FA00F02033CD
:10166000034A42F82300BFF34F8FBFF36F8F7047D9
:1016700000E100E0054B420900F01F0053F8222072
:10168000012303FA00F01040704700BF00E100E0C2
:1016900043B2002BA8BF03F1604301F10101B8BFC1
:1016A000064B4FEA4111ACBF03F5614300F00F0058
:1016B000C9B2B4BF195483F80013704714ED00E0A9
:1016C00030BFFFF7FDBF00BF144A08B5144B22F02E
:1016D0007F029A60BFF34F8FBFF36F8FD3F88820DC
:1016E00022F47002C3F88820D3F8882042F4A002C4
:1016F000C3F888204FF04042C3F83422BFF34F8F25
:10170000BFF36F8F0023E1EE103A03F0FDF803F012
:1017100041F900F051FA03F003F900BF00000000A6
:1017200000ED00E01EF0040F0CBFEFF30880EFF3B4
:101730000980816911F8021C0229FFD001B505F06A
:1017400045F901BD10F1160F074B08D0984208D398
:101750002033834205D98B4203D904487047203394
:10176000F9E70020704700BF603800208038002073
:101770000446084611461A460023E1EE103A084B8B
:10178000202583F3098863B64FF0000383F31188A3
:10179000BFF36F8FA04785F31188BFF36F8FFEE70C
:1017A0008060002001B5EFF30580A0F110004FEA42
:1017B000C0000449014409C99847BDE801400249F5
:1017C0000847000068740000CD170000704700BF94
:1017D0002DE9F041324C07468846324845211546EE
:1017E00005F062F8A36ADE0603D52F48452105F00F
:1017F0005BF8A36A1C0703D52C48452105F054F873
:10180000274CA36A980728D46FF01506244CA36AC6
:10181000DA0703D52648452105F046F8A36A9B065A
:1018200003D52448452105F03FF81D4B9A6AD4069C
:1018300028D49A6A900725D40020194B9A6A9206F8
:1018400042BF5A6A22F400525A629A6A42F0FF0278
:101850009A6200232B70BDE8F0814521164805F0FF
:1018600023F8666BA36A1906CED514483246452183
:1018700005F01AF8B8F1000FC8D0A36A23F080036E
:10188000A362C3E75B681905D6D539463046FFF732
:1018900059FF0028D0D080F309880220CDE700BF8F
:1018A00000ED00E0417F00005C7F0000947F0000BD
:1018B000E47F000008800000AC7F0000C97F0000CA
:1018C00010B51D4C1D48452104F0EEFFA36A9B0195
:1018D00003D51B48452104F0E7FFA36ADC0103D5CB
:1018E0001848452104F0E0FF134CA36A180303D500
:1018F0001548452104F0D8FFA36A590303D51348BE
:10190000452104F0D1FF0C4CA36A9A0303D510487B
:10191000452104F0C9FFA36ADB0303D50D48452127
:1019200004F0C2FF044A936A6FEA03436FEA134369
:101930009362002010BD00BF00ED00E03C8000007D
:10194000598000007180000090800000B38000008A
:10195000DD800000FC80000070B5234C06460D467B
:101960002248452104F0A0FFA36AD90403D52048EA
:10197000452104F099FFA36A1A0503D51D484521A6
:1019800004F092FF184CA36A9B0510D51A48452114
:1019900004F08AFFA26BA36A180408D517484521F2
:1019A00004F082FF1EB1A36A23F40043A3620E4C2D
:1019B000A36A590503D51248452104F075FFA36AAF
:1019C000DA050BD50F48452104F06EFF064A936AED
:1019D000002043F47F439362287070BDA36A9B0488
:1019E000F4D509484521EFE700ED00E02C81000027
:1019F00047810000947F00005D8100007B81000032
:101A000095810000B5810000088000002DE9F041BB
:101A1000554B5F688AB0C7F30804002686F3118827
:101A2000BFF36F8F02F07F43B3F17F4F07D102F016
:101A30000C03082B05D14D48452104F035FF3546F0
:101A400004E012074EBF0D46054601264FF0000880
:101A5000E31E8DF80780092B73D8DFE803F00567D4
:101A60006B6472727272726F3F4F4148452104F08D
:101A70001BFFFC6A8DF8078014F0020405D03D4876
:101A8000452104F011FF002406E0FB6A002B1DDA5B
:101A90003948452104F008FF9DF807309BB9202202
:101AA000294602A804F0DDFF099B002E56D0C3F39F
:101AB000080222B96FEA53236FEA4323099302A96C
:101AC0002046FFF785FD0AB0BDE8F081FB6A5B00A8
:101AD000E2D52A48452104F0E7FEAB6933F8022C31
:101AE0004DF602739A420AD097F8283073B10DF17F
:101AF000070201212846FFF76BFE0446CCE72A685F
:101B00001F48452104F0D0FE2C68C5E797F829301E
:101B10002BB10DF107010120FFF71EFFEDE77B8DD3
:101B20009BB2002BB8D0FFF7CBFEE6E70DF1070222
:101B30000021DFE70DF107010020EDE71148452105
:101B40009FE71149114A124817F4F87F08BF0A4667
:101B5000A4F11003452104F0A7FE94E723F4FF73DA
:101B600023F00103AAE700BF00ED00E000820000BF
:101B7000308200004C8200007282000085820000EA
:101B8000A9820000CA820000D2810000E781000023
:101B9000F3820000024A536943F010035361704717
:101BA00000ED00E0EFF30880EFF3098101B5724624
:101BB000FFF72CFF01BD00BF044800232021C218FD
:101BC0000133302B82F80013F9D1704700E100E0B7
:101BD000002080F31488BFF36F8F05F0BBFB00205B
:101BE0000D490860BFF34F8F0C4880F3088800F060
:101BF0002BF8202080F3118809484FF40261401827
:101C000080F30988EFF314800221084380F31488DD
:101C1000BFF36F8FFFF758FD94ED00E06060002088
:101C2000806000200749D1F890200023C2F30722EA
:101C30001846934200D17047C1F89830C1F8A0000F
:101C40000133F6E700ED00E008B572B6002383F338
:101C50001388FFF7E7FF144B4FF0FF32C3F88020E3
:101C6000C3F88420C3F88820C3F88C20C3F89020E0
:101C7000C3F89420C3F89820C3F89C20C3F88021AF
:101C8000C3F88421C3F88821C3F88C21C3F89021BC
:101C9000C3F89421C3F89821C3F89C2162B6BFF31E
:101CA0004F8FBFF36F8F08BD00E100E0024B034A86
:101CB0000348022100F06AB8000004200020002040
:101CC00024770000F8B5234F00268E420FDA4468CF
:101CD000002C3CD09BB104F1FF3C14EA0C0F08D05F
:101CE0001D483246452104F0DFFD6FF01502104615
:101CF000F8BD1F2CF4D905681CEA050FF0D1202C83
:101D00000568D0F808C0D2B20FD9B4F1004F0ED890
:101D1000013CB4FA84F4C4F11F046400072A4CEABD
:101D2000040406D90D484521DDE70824F6E73E24E2
:101D3000F4E725F01F05154345F0100544F00104B4
:101D4000C7F89820C7F89C500132C7F8A040013668
:101D50000C30BAE700ED00E00F830000378300008D
:101D6000044B0522C3F89420BFF34F8FBFF36F8F4E
:101D7000704700BF00ED00E0BFF35F8F024B002211
:101D8000C3F89420704700BF00ED00E010B5034C8D
:101D900001232278FFF796FF207010BD4538002000
:101DA00014490868082810B521D8FFF7E5FF124C40
:101DB00049680022904201F10C0105D10F4B1870C7
:101DC000FFF7CEFF002010BDC4F8982051F80C3C5E
:101DD00023F01F03134343F01003C4F89C3051F861
:101DE000043C43F00103C4F8A0300132E2E74FF0B5
:101DF000FF30E8E73C77000000ED00E045380020C8
:101E0000014B1860704700BF0C20002010B54FF048
:101E10002003EFF3118083F31288BFF36F8F114A11
:101E20000123C2F840354FF080424FF08051C2F894
:101E30007835D1F83041082C08D1D1F83411052972
:101E400004D8094C615C09B1C2F838364FF08043C0
:101E50000122C3F8802580F31188BFF36F8F002023
:101E600010BD00BF00E00140758300004FF08043CB
:101E7000C0B2C3F81C05BFF34F8F0549054BCA68B4
:101E800002F4E0621343CB60BFF34F8F00BFFDE766
:101E900000ED00E00400FA0520B1034B800143F09F
:101EA00001031847704700BF80760000084B70B5EB
:101EB000C31A0D4607499B10044659430648402261
:101EC00004F002FE2B4601462046BDE8704018474C
:101ED00060360020B76DDBB6C073000073B50C4CE4
:101EE0000C4A4023041B00930D460B460A49A410DC
:101EF00061430646094804F014FE011E05DA304627
:101F00002B4602B0BDE87040184702B070BD00BF5C
:101F100060360020956B0000B76DDBB6C073000023
:101F2000002270B5012104461046FFF7B1FB0F48AF
:101F300001F074FD0E4B984215D105F0FEF82669AC
:101F40000C49304604F053FC00280BDB2469094996
:101F50000125356404F11C0004F049FC002801DB74
:101F6000E564002070BD6FF00400FBE7B51F0000C2
:101F70000000AD0B8C77000073B50C2301460B48B5
:101F80004B43C418D4E90E5200264033A6631844CC
:101F9000019204F086FD35B1019A05482B4602B046
:101FA000BDE87040184702B070BD00BF6036002029
:101FB000C073000010B1012804D07047034B1B6CA4
:101FC0005B0701D1FFF7D8BF704700BF6036002024
:101FD00008B54FF02003EFF3118183F31288BFF3AC
:101FE0006F8F124A136843F0020013F00103106070
:101FF0000CD04FF08042D2F80C34D2F80C2413F0FD
:10200000010303D00A4804F04CFD012381F3118839
:10201000BFF36F8F23B1BDE808400020FFF7ACBFCE
:10202000BDE80840012005F095B800BFB03600209B
:10203000A0360020094BBFF35B8F53E8002F22F03E
:10204000020143E800100028F7D1BFF35B8FD307EC
:1020500002D4012005F0BBB8704700BFB0360020A5
:102060002DE9F8433749BFF35B8F0746012251E85A
:10207000003F41E800200028F9D1BFF35B8F33B95E
:10208000314932484B60CB608A6004F0C3FB7B1E51
:10209000012B31D8012F07D14FF08043D3F81C34E6
:1020A00003F00303012B27D005F01EF9044618B9ED
:1020B000274B1B78002B3DD14FF02003EFF3118607
:1020C00083F31288BFF36F8F0124DFF888904FF0FD
:1020D00080454FF00108D5F81834D5F81824D203FC
:1020E0000CD503F00303012B01D0012F06D1DCB185
:1020F00086F31188BFF36F8FBDE8F8833046FFF792
:102100005DFAD5F81835002BE5D1D5F80421002A61
:10211000E1D0C5F80431D5F80431C5F81885C9F8FF
:102120008081C5F80880D6E74FF080430222C3F8CB
:102130000423E1E74FF080430222C3F80823064658
:10214000C3E700BFB4360020503600207C360020A4
:102150004938002000E100E008B5084B0848186045
:1021600005F0B4F838B10748FFF74AFE0548FEF716
:1021700083FE002008BD6FF01200FBE7B836002098
:1021800020740000892100000A2838B5074D044654
:1021900004D1286883680D215B68984728688368A4
:1021A000E1B25B689847204638BD00BFB8360020D2
:1021B00030B54068047B01F01F05B2F5001F45EA09
:1021C000441585B04FF0000404D1284601F0AAFE62
:1021D000002032E0B2F5800FCDE902442FD1B3F1F7
:1021E000007F0CBF042305238DF80830836823FA91
:1021F00001F1C9072FD4B2F1A07F2CD16A09012ABD
:1022000005F01F031C4A03F5E07318BF4FF0A0420E
:1022100052F82330DB071ED40DF10704214628466F
:1022200001F0E4FD154B984214D1204601F02CFE3C
:10223000134B98420ED06FF00B0005B030BDB3F1D8
:10224000C06F05D0B3F1007F0CBF02230123CBE7A1
:102250000323C9E703940023194602AA284601F084
:102260009FFC074B984204D10121284601F012FE41
:10227000AEE76FF00400E0E7000300500400AD0B90
:102280000000AD0B10B501F0EFFD044668B901F098
:10229000C3FD084B98420AD10748214601F0A0FD32
:1022A000224605210620FFF7F3F9002010BD6FF04C
:1022B0000400FBE70000AD0BBD220000430970B530
:1022C00002D0012B15D070BD0B4E3369596800291F
:1022D000F9D000F01F0301250C689D408A682A4050
:1022E00002D04B6830469847002CECD02146246839
:1022F000F4E7024EE9E700BFD8730000F073000076
:102300002DE9F04347683B7B01F01F0585B00E4681
:1023100045EA43151446CAB902A9284601F066FDEC
:102320000446284601F026FE4A4B984204D06FF03E
:10233000040005B0BDE8F083844205D19DF8080093
:1023400001F09CFDA042F2D10020F2E74FF000091D
:102350000DF103013046CDE9029901F047FD4B46EE
:10236000804602AA4946284601F01AFC394B984299
:1023700002D06FF01500DCE7804503D19DF8030023
:1023800001F07CFDA30351D540F20663234040F2E7
:10239000062293423BD00CD8062B15D004D89BB113
:1023A000022BE6D104230FE0B3F5007FE1D1012336
:1023B0000AE040F2024293422BD0B3F5C06F2AD01C
:1023C000B3F5806FD5D102238DF8043084F48033C7
:1023D000C3F30043E0068DF8053054BFC4F3401347
:1023E000032321038DF8063017D57B68012101FAFC
:1023F00006F6C3F80865002201A9284601F07EFC14
:10240000144B984214BF6FF01500002091E707238A
:10241000DAE70523D8E70323D6E7620341BF7B68E9
:10242000012101FA06F6C3F80C65E4E7E3064FF074
:10243000000354BFC4F3401403241A4601A92846DC
:102440008DF8044001F0ACFB024B98423FF47CAFA6
:102450008FE700BF0000AD0B00F1744000F5A6004F
:102460000A289ABF024B33F910006FF00F00704733
:102470007C7A0000024B0B6001231360704700BFA1
:1024800008780000004870471078000010B5084C2C
:1024900023785BB902690749406801F08FFFFFF7B5
:1024A000DBFFB0FA80F35B09237010BD0020FCE76E
:1024B00046380020576C000037B50D464168B1B171
:1024C000D1E900138468A4B1D4E9002494B18BB19C
:1024D0009C4208D10133092B00780ED902465721BE
:1024E000114804F0E1F96FF0150003B030BD0B4660
:1024F000E8E7224601332344EDE78DF8013001235C
:102500008DF800008DF802308DF803306846002306
:102510008DF804308DF8055002F038F803B0BDE8AE
:102520003040FFF799BF00BFA983000010B5084CE9
:1025300002F06CF8A04205D102F08CF8054B0022A5
:102540001A7010BD4CF2503004F0D4FEF0E700BF1A
:102550000000AD0B463800200C4B994210B50446E4
:1025600010D14FF02002EFF3118382F31288BFF3F2
:102570006F8F1846237833B10023237080F31188BE
:10258000BFF36F8F10BDFFF719F8EAE70000AD0B3E
:102590002DE9F04F814685B00E461C4617467AB1AC
:1025A000002B00F095800029426803DB9269CB186C
:1025B000934208D9474823463246452104F074F92E
:1025C0006FF015057EE0FFF761FF0546002877D123
:1025D000754205F00305A54228BF25467B4203F05E
:1025E000030307F0030B58BFC3F1000BCBF1000B43
:1025F0000BF0030BA34528BFA346631BA4EB0B04FE
:1026000024F0030423F00308A045C8BFA04603F04C
:10261000030AC8BFA3EB040AB8F1000F18D007EBF8
:102620000B03721941461846019304F047FE044615
:102630000146D9F81000FFF78FFF274A94423BD19B
:102640005D4505D0019B42461946781904F0F1F921
:10265000C5B1C5F1040BA6EB0B02042102A804F0DE
:102660002DFE04460146D9F81000FFF775FF1A4BFE
:102670009C4221D10BF108032A460DEB0301384699
:1026800004F0EFF9BAF1000F20D00821721942448A
:102690000DEB010004F012FE04460146D9F81000CB
:1026A000FFF75AFF0C4B9C4206D108EB050052463F
:1026B00002A9384404F0D5F92046FFF7CDFE0546BF
:1026C000FFF734FF284605B0BDE8F08F024CF3E772
:1026D0001D46F7E7D18300000000AD0B2DE9FF4751
:1026E00006460F461D4690469AB193B1042B01D978
:1026F0009A070ED1BB070CD1002F726803DB9269D9
:102700007B19934208D934482B463A46452104F0B8
:10271000CBF86FF0150456E03046FFF7B7FE0446DD
:1027200000284ED104F0B6FA0446002840D1032D0B
:102730001CD83A460421684604F0C0FD0446014610
:102740003069FFF709FF254B9C4231D12A464146AB
:10275000684604F086F93A460421684604F0ABFD69
:10276000044601463069FFF7F7FE21E008F06043B8
:10277000B3F1005F2BD0DFF864A0102DA94628BF6D
:102780004FF010094A464146684604F06AF93A4655
:102790001021684604F08FFD044601463069FFF7BA
:1027A000DBFE544504D1B5EB0905C8444F44E4D1E0
:1027B000012004F06FFA002C18BF2046FFF74CFEF2
:1027C0000446FFF7B3FE204604B0BDE8F0873A4662
:1027D00029464046C2E700BF1F8400000000AD0B41
:1027E0002DE9F84F15460A1ED0F80480074605DB90
:1027F000D8F8183054199C42914607D933482B46D3
:10280000452104F051F86FF015042CE0002DFAD0AA
:1028100042EA0503C3F30B03002BF4D1FFF736FEA6
:102820000446F0B904F036FA0446D0B9DFF8ACA09B
:10283000D8F81830AB4219D104F043FDAB46064638
:1028400038693146FFF788FE214B9E4233D1B5EB04
:102850000B05D944ECD1012004F01CFA002C08BF70
:102860000446FFF763FE2046BDE8F88FB5F5803FCC
:102870000AD31FFA89F33BB94946012001F03EFF14
:102880004FF4803B0646DBE7B5F5805F09D3C9F31B
:102890000B0030B9494601F031FF4FF4805B06462A
:1028A000CEE72B464A464521504603F0FDFF094E30
:1028B0004FF0000BC4E708482B464A46452103F079
:1028C000F3FF3046FFF7C8FD0446C4E76E840000FE
:1028D0000000AD0B0400AD0BE0840000BD840000DF
:1028E0002DE9F04143681D6A8AB0804607AA00219D
:1028F000284604F0ABFA041E2BDB079B2A681979E3
:10290000186804F0C0FA041E23DB002201212920EC
:10291000FEF7BEFED8F80450D8F8102042492846E9
:1029200001F04CFDFFF798FD041E12DBEB7A023B31
:10293000012B12D9AD7A033D012D8CBF0025012555
:1029400004F08DF9041E0ADA38482246452103F0C6
:10295000ABFF20460AB0BDE8F0810125F0E7C4F3E3
:1029600080108542E2B204AE05AF19D000230121E8
:1029700082F0400207A8CDE90613ADF810300596A5
:102980008DF8102009938DF81C100897FFF794FD1F
:10299000041E3DD104F063F9041E3ADBE107F9D4CB
:1029A000FFF7C4FD00230322CDE906230893404628
:1029B0009F2305968DF81C300997FFF767FD0446A5
:1029C00020B9014607A8FFF777FD0446FFF7AEFDE3
:1029D000DCB9D8F804500322314605F11C0004F09C
:1029E00017F804460028B4D0AB7F03936B7F0293A3
:1029F0002B7F01939DF8123000939DF810209DF8D5
:102A000011300B48452103F04FFF6FF01204A0E78F
:102A10009FDA0849084A0948002D18BF0A4623468C
:102A2000452103F041FF94E7576C00000D8500003D
:102A3000388500000385000007850000228500001E
:102A4000024B0B6001231360704700BFD436002097
:102A5000004870476478000010B504F01AFC034C7D
:102A6000206004F012FC6060002010BDD43600200D
:102A700037B50C46204619460193154604F01FF958
:102A8000019B40B909482246452103F00DFF6FF034
:102A9000150003B030BD33B11A462146284603F075
:102AA000E0FF0020F5E71846F3E700BF7885000057
:102AB0004FF08042D2F81015D2F8103501F01E0107
:102AC00023F01F030B4343F00103C2F81035024B00
:102AD00000221A70704700BF483800204FF0805322
:102AE000D3F83031082B22D14FF08042D2F81015A4
:102AF00011F001001CD0D2F8100501F01E0120F0E9
:102B00001F000843C2F81005D2F8080158B1D2F8E6
:102B1000103523F01F030B4343F00103C2F81035B7
:102B20006FF08B007047034B01221A707047002032
:102B3000704700BF483800202DE9F8430E46304664
:102B4000194617461C4604F0BAF848B91B482346F4
:102B50003246452103F0A8FE6FF01500BDE8F8836A
:102B600044EA060515F0030504D01548234632460D
:102B70004521EFE7FCB1DFF8509024F00304AC42AC
:102B800005EB060806D10F4AD2F80034DB07FBD567
:102B90000020E3E7FFF7A2FF50B97959404601F062
:102BA0000FFB99F800300BB1FFF782FF0435E6E721
:102BB0006FF08B00D2E72046D0E700BF7885000099
:102BC0009A85000000E00140483800202DE9F041DE
:102BD0000F46154604F059FB29460646384604F0D0
:102BE0006EF8B84660B3B7FBF6F306FB137323B970
:102BF000B5FBF6F406FB145444B114482B463A4690
:102C0000452103F051FE6FF0150413E0AE4211D8D8
:102C100004F03BFB0E4F0646FFF760FF044660B929
:102C2000404601F0ADFA3B780BB1FFF741FFAD1B19
:102C3000B044F1D12046BDE8F0816FF08B04F9E794
:102C400004482B463A464521DBE700BFBD8500001E
:102C50004838002078850000F8B5066905460F461B
:102C600004F042FB10B9294B1B78A3B94FF02003A5
:102C7000EFF3118483F31288BFF36F8F686804F059
:102C80007DF800BB84F31188BFF36F8FEEE784F308
:102C90001188BFF36F8F6424686804F06FF828B957
:102CA000012004F048FA013CF6D1F4E74FF020038C
:102CB000EFF3118483F31288BFF36F8F686804F019
:102CC0005DF80028E3D006F8107F69680B680122E0
:102CD000C3F84465C3F848250022C3F82021D3F87F
:102CE0002001C3F85821D3F858214A68D20641BFC1
:102CF0000822C3F800254FF48002C3F80423012200
:102D00009A6084F31188BFF36F8FF8BD49380020B3
:102D1000F0B54B79012B26D0032B21D110268B79CE
:102D2000032B1DD1CC790CB1012C19D10A7912B128
:102D3000022A15D10E220B684568B3F5164F2D688F
:102D400065D02DD8B3F5165F64D016D8B3F5966F5D
:102D500062D00AD8B3F5967F61D0B3F5167F61D003
:102D60006FF0850052E00026D9E7B3F5166F5CD00E
:102D7000B3F5965FF4D1374B3CE0B3F5E14F57D054
:102D800007D8B3F5615F55D0B3F5964FE8D1324B14
:102D900030E047F61227BB42E2D14FF4000329E0AE
:102DA000B3F5613F48D013D8B3F5963F47D009D863
:102DB0004DF6C027BB4244D0B3F5614FD0D14FF49C
:102DC0006B0317E0B3F5E13FCAD14FF0EB7311E0AD
:102DD000B3F5612F38D008D8204FBB4237D0B3F5B8
:102DE000E12FBDD14FF0E86304E01D4FBB42B7D1E6
:102DF0004FF080530069C5F82435031D03C93443DF
:102E00002243C5F86C2583E803000020F0BD4FF491
:102E10001D03EFE7134BEDE74FF49E23EAE74FF472
:102E2000A033E7E74FF41C33E4E74FF41D23E1E759
:102E30000D4BDFE70D4BDDE74FF06C73DAE70C4B22
:102E4000D8E74FF46503D5E74FF07063D2E74FF052
:102E50008063CFE700B0130000A04E0090D00300C5
:102E600040420F000050270000C0750000F03A00FB
:102E700000903A012DE9F743D0F804800669D8F8AC
:102E80000040D8F80C900021C4F8001507463060C7
:102E900001AA484603F0DAFF051E1FDB019BD9F8A3
:102EA00000201979186803F0EEFF051E16DB311DAE
:102EB0003846FFF72DFF054680B9D8F8043099074A
:102EC00023D506F1120001F089F9254B984209D06B
:102ED0002448452103F0E8FC6FF00405284603B0C0
:102EE000BDE8F083B07CC30003F1804303F5F83301
:102EF00004F10C0204F59071C3F81015C3F8142501
:102F0000194A01238340C2F804350823C4F8003568
:102F100098F808305BB9C4F81031D4F8103106F1D4
:102F20001103C4F834350123C4F838352360D8F8C8
:102F300004309A075CBF4FF48072C4F80423DB06A8
:102F400044BF4FF48003C4F8043310360023C4F8A0
:102F50004465C4F848350123A360E360BEE700BFC1
:102F60000000AD0BEB85000000F0014010B501231F
:102F70008340114ABFF35B8FDC4352E8001F01EA34
:102F8000040C42E800CEBEF1000FF6D1BFF35B8F18
:102F90004FF4803202FA00F002F1804202F58052D2
:102FA000C2F80803BFF35F8FBFF36F8F0B4214BFEC
:102FB0000120002010BD00BFE03600201949F8B5FF
:102FC000044622F07F450868C1E90023A5F50013F7
:102FD000101AB3F5400F22D2134B1B681A0A1B06B6
:102FE0005E19124B42F10007C3E90067012601F0A8
:102FF0002DFDA30003F1804303F58833D3F840256A
:10300000AA420BD11EB94FF40002C3F84025084B69
:103010004FF4803000FA04F4C3F84443F8BD0026AE
:10302000E5E700BF58210020E436002040210020C1
:103030000010014019B3BFF35B8F0123104A834096
:1030400052E8001F194342E8001CBCF1000FF7D101
:10305000BFF35B8F0B4A4FF480338340C2F80433D5
:10306000094BBFF35B8F1B68BFF35B8F23FA00F044
:10307000C30742BF054B4FF40032C3F8002170472D
:10308000E036002000100140DC36002000E100E0C6
:103090000D4B1868010A0006BFF35F8F0B4BD3F886
:1030A0000435181841F10001B3F5801F0AD2084B0E
:1030B000D3E90023904271EB030303D210F1807037
:1030C00041F10001704700BFE436002000100140CC
:1030D000402100202DE9F04F2DED028B85B01646E2
:1030E00098460546FFF742FF08EE100AFFF7D0FFAB
:1030F000B04271EB08037BD2474B301A68EB0101F9
:10310000984271F1000380F08480444B03EB051377
:10311000D3E902ABD84508BF564551D04FEA8509DF
:1031200009F1804905F1500709F58839BF004FF4CE
:10313000803101FA05F3BFB226F07F4207F18047E4
:103140000193D9F84005364B07F588371446D3F874
:103150000415401A20F07F4021F07F4C0128C9F867
:1031600040C507D1CDE90221132004F0C3F8DDE901
:1031700002212B4B01F1020CA4EB0C0020F07F404C
:10318000B0F5000F88BF64460020386038680198A9
:10319000C3F8440324F07F40C9F84005D3F8040580
:1031A000814206D0201A023820F07F40B0F5000F8F
:1031B0001CD8A41A24F07F4414EB060A48F1000B33
:1031C000164910982B0101EB0512C2E902ABC85059
:1031D000119B53600024284618EE101AFFF72AFFAF
:1031E000204605B0BDEC028BBDE8F08F2046AEE76F
:1031F00001230C4ABFF35B8FAB4052E8001F194319
:1032000042E800100028F8D1BFF35B8FB246C346F6
:10321000D6E76FF01504DEE7010000014821002029
:1032200000100140DC36002073B5194B194D002405
:103230004FF0FF304FF0FF31C5F80845C3E90201F8
:103240004FF48033C5F80433134B02264FF4003299
:103250000121C5F804631120C3F880212246FEF73E
:1032600017FA1120FEF7E2F90C4A0123AB602B603C
:1032700013600B4B0B4A0093019400232046FFF789
:1032800029FF3046FEF7ECFE204602B070BD00BFBD
:10329000482100200010014000E100E0E03600205D
:1032A000BD2F0000FFFF7F002DE9F743364CD4F817
:1032B00004339A070BD5D4F8043143B1334A0023C1
:1032C000C4F80431D4F804311368013313604FF0AB
:1032D0002003EFF3118283F31288BFF36F8FD4F8CA
:1032E0000433DB0312D5BFF35B8F294B53E8001F78
:1032F00021F0010043E80006002EF7D1BFF35B8FF9
:10330000002939D1D4F84031002B35D1002382F384
:103310001188BFF36F8F63B3FFF7BAFE4FF020033E
:10332000EFF3118C83F31288BFF36F8F194BD3E93E
:103330000267B04271EB070228BF4FF0FF384FF031
:10334000000221BF4FF0FF39D3E90015C3E902891C
:103350001A6026BF4FF48033C4F8483311468CF30B
:103360001188BFF36F8F21B1009532463B46002094
:10337000884703B0BDE8F0830023C4F84031D4F897
:1033800040310123C3E700BF00100140E4360020B4
:10339000DC36002048210020431C13B521D0012831
:1033A00021DDB0F5000F20DA441EFFF771FE104B4F
:1033B000D3E90013401AB0F5000F28BF00240130F4
:1033C00002190C48824228BF024652184FF00000F2
:1033D00009490190009143F10003FFF77BFE02B021
:1033E00010BD0448E0E70024DFE7024CDDE700BF42
:1033F00058210020FFFF7F00BD2F000008B5FFF718
:1034000047FE024B1B68C01A08BD00BF58210020B0
:1034100000F01F0140090128044B4FF0010218BFC2
:103420004FF0A0438A40C3F80C25704700030050BA
:1034300000F48053002B30B51CBF00210122C0F3E3
:10344000811500F01F0410F0200F00F4706040EAB6
:103450008500064B40EA010008BF4FF0A04304F589
:10346000E07140EA420243F8212030BD00030050E1
:1034700000F01F0140090128044B4FF0010218BF62
:103480004FF0A0438A40C3F808257047000300505E
:103490000C4A30B513680C4D002405EB0311D1F82C
:1034A0000818C9B221B904B113600360002008E014
:1034B0000133072B4FF00104EFD9036013606FF065
:1034C0001B0030BDE836002000E00140034808B58D
:1034D000452103F0E9F90020FEF7C8FC2D86000025
:1034E00030B5816885B0103921F00704054603F036
:1034F00041FA10220146684603F0BEFA074910223D
:10350000684603F0AEFA10236A462146284603F0C7
:10351000F5F9003818BF012005B030BD927A0000DF
:1035200030B50C46816887B0102302AA10390546D1
:1035300003F0C8F9002802DA012007B030BD1022DC
:1035400002A9284603F08BFD90B30323237028467D
:1035500003F096FD012301460DF10702284603F012
:10356000B1F90028E8DB9DF8073003F00F021B09D2
:103570006270237101220DF10701284603F06FFDEF
:1035800010B96378042B03D90123637000232371DE
:10359000AA68183A22F00702083AA11C284603F04C
:1035A00089FD0028C8D1E11C284603F0A0FDC4E72E
:1035B0000449102202A803F02BFA002814BF0223AA
:1035C0000123C3E7927A00002DE9F04385B0064657
:1035D0006946032003F091FD054618B1FF2005B0B0
:1035E000BDE8F08302A9012003F087FD012804460D
:1035F0003FD12D483246492103F056F903238DF877
:1036000008308DF809408DF80A308DF80B308DF8B0
:103610000C509DF800509DF808609DF803709DF8CF
:103620000B809DF80290214C00222078294603F05F
:103630002DFD18B36078314603F028FDF0B1A37872
:10364000042B01D0BB4219D1E378042B01D04345B0
:1036500014D12379042B0FD16379022B19D1144A89
:103660001448492103F020F96079831E022BB6D952
:10367000B4E70028CDD0B1E74B45EDD00132032AA5
:1036800004F10604D1D10C48492103F00DF90120C1
:10369000A5E7032B05D0094A0949042B18BF0A46A0
:1036A000DEE7084ADCE700BF72860000E58600001E
:1036B00056860000BD860000D08600004F860000C0
:1036C000608600005B8600004FF08053D3F8302105
:1036D000082A06D1D3F83431052B02D8024AD05C2F
:1036E00070470020704700BFFD860000024AD2F8F4
:1036F0000034002BFBD0704700E0014010B503F010
:1037000010FD40B14FF080430022C3F80C21C3F8F4
:103710001021C3F8382503F004FD002846D04FF0EF
:103720008052654BD2F80414C3F82015D2F808145F
:10373000C3F82415D2F80C14C3F82815D2F81014C5
:10374000C3F82C15D2F81414C3F83015D2F8181495
:10375000C3F83415D2F81C14C3F84015D2F820145D
:10376000C3F84415D2F82414C3F84815D2F8281425
:10377000C3F84C15D2F82C14C3F85015D2F83014F5
:10378000C3F85415D2F83414C3F86015D2F83814BD
:10379000C3F86415D2F83C14C3F86815D2F8401485
:1037A000C3F86C15D2F84424C3F87025FFF78CFFDA
:1037B00018B1424B424AC3F88C26FFF785FF18B177
:1037C000404BFB22C3F81825FFF77EFF70B14FF086
:1037D00080414FF08053D1F8E42ED3F8583222F0D4
:1037E0000F0203F00F031343C1F8E43EFFF76CFF31
:1037F00020B1354B4FF40072C3F8402603F091FC22
:1038000048B14FF08043D3F80024D20744BF6FF093
:103810000102C3F800242D4AD2F8883043F4700323
:10382000C2F88830BFF34F8FBFF36F8F4FF08053D4
:10383000D3F83021082A0ED1D3F83431052B02D821
:10384000234AD35C3BB14FF01023D3F808224FF04A
:103850008043C3F858254FF01023D3F80022002AE4
:1038600003DBD3F80432002B22DA1A4901234FF08C
:103870001020C1F804351224FFF738FFC0F80042C9
:10388000FFF734FFC0F80442FFF730FF0023C1F810
:103890000435FFF72BFFBFF34F8F0C490E4BCA685F
:1038A00002F4E0621343CB60BFF34F8F00BFFDE72C
:1038B0000A4B0B4A1A6010BD00C000400050004087
:1038C0004881030000F000400090024000ED00E05D
:1038D000F786000000E001400400FA0538200020CF
:1038E0000090D00370B501250268B2FA82F3C3F1EB
:1038F0001F035E1CDCB214D0BFF35B8F05FA03F329
:1039000022EA030350E8006F964204D140E8003CED
:10391000BCF1000FF6D1BFF35B8FE5D102480C700C
:1039200070BD0248FCE700BF0000AD0B0200AD0B0C
:103930000368CB40DB0710B515D4012303FA01F16E
:103940000368BFF35B8F41EA030250E8004F9C42DB
:1039500004D140E8002CBCF1000FF6D1BFF35B8F1F
:10396000EED1024810BD0248FCE700BF0000AD0BDD
:103970000400AD0BF7B5044618B1012829D003B0F7
:10398000F0BD4FF080430222C3F80823C3F80401BE
:10399000D3F804210122DA6001239C428DF807301C
:1039A00014BF00250DF1070542F210774FF0804655
:1039B000D4B1012CE3D125B1D6F80C3403F00103C6
:1039C0002B70D6F80C34DB0318D4134B00225A7139
:1039D000D5E74FF080430022C3F80803C3F8002165
:1039E000D3F800215860D7E725B1D6F8183403F092
:1039F00003032B60D6F81834DA03C0D52DB90120A3
:103A000003F099FB013FD3D103E09DF80730012B70
:103A1000F5D0012CD9D0B2E7EC360020044B1A794E
:103A200022B9012218609A80024870470248704704
:103A3000EC3600200000AD0B0C00AD0B4FF08043C6
:103A400010B5D3F800216AB10022C3F80021D3F8E1
:103A500000210122C3F80823114B587910B95A717B
:103A60001B6898474FF08043D3F8042172B10022BD
:103A7000C3F80421D3F80421D3F81824D3F8181478
:103A8000920704D10122C3F818259A6010BD0222C2
:103A9000C3F80823024BBDE810401B6801201847FB
:103AA000EC360020036803F01F025B09012B026063
:103AB000024818BF4FF0A040704700BF00030050FD
:103AC000034B083033F81000C0F34010704700BFBC
:103AD0003C20002070B500F108030C4C34F8133082
:103AE000DA0505460E4607D5C3F3432304EBC302AC
:103AF00054F8333052689847A3682BB1E2683146D6
:103B00002846BDE87040184770BD00BF3C2000202B
:103B1000134A083010B432F81030D9051CD5C3F35D
:103B2000432123F4F85322F8103002F1100400204E
:103B300034F8023B13F4807F03D0C3F3432399424C
:103B40000AD001303028F3D1002342F83130054843
:103B50005DF8044BFFF7ECBE5DF8044B704700BF07
:103B60003C200020B020002038B50246FFF7A8FF17
:103B7000094C02F1080540B134F8153007495B0BD8
:103B800003F5A273002041F823001046FFF7C0FFA1
:103B9000002324F8153038BD3C2000200060004090
:103BA0002DE9FF41044617461D4621B34E4E00F154
:103BB000080836F818309B0706D5FFF781FF18B1C3
:103BC0004A4804B0BDE8F0810023CDE900338DF808
:103BD0000E308DF80F300DF10F020B4620460DF11F
:103BE0000E0103F0F6FA36F8183023F0020343F022
:103BF000010326F8183097B13B4B3E787A6804F100
:103C0000080033F810108F070CD5002AD8D133F8EC
:103C1000102022F01C0242EA860223F81020CDBBBD
:103C20003348CEE721F02001C904C90C23F8101055
:103C3000002AECD0032EC3D817782EB92D4A07F5E9
:103C4000A27142F82160E2E7BA0002F1804202F577
:103C5000C04241EA4731D2F810C52CF0030CC2F83B
:103C600010C5D2F810C52CF44F3C2CF4407CC2F89F
:103C700010C5D2F810E54FEA042C0CF47C5C4EEA37
:103C8000064E4CEA0E0C41F0200123F81010C2F849
:103C900010C5BCE7D5E900672046FFF739FF002EC5
:103CA000BED0114D2B689E4204D16B689F4201D15A
:103CB00000220AE010480DF10F01FFF713FE0C4B34
:103CC00098427FF47EAF9DF80F2045F8326005EBF7
:103CD000C20308345F6035F8143043EA422343F4EA
:103CE000807325F814309BE73C2000200400AD0BC6
:103CF0000000AD0B00600040B0200020F0B504468D
:103D000085B0154619B3334E00F1080736F8172071
:103D1000930703D4FFF7D4FE002858D112F01C0FEC
:103D200002D04B78012B52D001238DF80F300023A5
:103D3000CDE900134A1C8B1C20460DF10F0103F046
:103D400048FA36F8173043F0030326F8173015B950
:103D5000214805B0F0BD1F4E04F1080736F81700E2
:103D6000830734D595F800C06146890020F0200013
:103D700001F18041C00401F5C041C00C26F81700D4
:103D80000023C1F810356A78002AE1D0D1F8103547
:103D9000AD7823F4991323F4F853C1F81035D1F812
:103DA00010E5230203F47C53120402F4403243EA88
:103DB0000E0313432A0502F4801240EA4C301343E9
:103DC00040F0200026F81700C1F81035C0E703487E
:103DD000BFE700BF3C2000200000AD0B0400AD0B8E
:103DE000014BC3E9020170473C20002008B50246A0
:103DF000FFF766FE38B1054B0548083233F812303C
:103E00005B0B0B7008BD0348FCE700BF3C200020A3
:103E10000000AD0B0400AD0B38B50F4C94F8785092
:103E2000BDB96022294604F1100002F025FE0620EB
:103E3000FDF7FCFB094B0A48C3F87C51D3F87C2101
:103E40004FF00042C3F80423012384F878306367FD
:103E500038BD0448FCE700BF3C2000200060004063
:103E60000000AD0B0500AD0B034B93F87800003854
:103E700018BF0120704700BF3C20002001460148C8
:103E8000FFF756BDAC20002001460148FFF72ABDD0
:103E9000AC20002037B50446FFF712FE04F10802FB
:103EA0001E4B33F81230E8B113F002051AD15B0B48
:103EB0009A0002F1804000F5C24002F1804202F512
:103EC000C04205600068D2F8100540F00100C2F859
:103ED000100529B1012202FA03F3114AC2F8043392
:103EE00003B030BDC3F38203042B12D0052B12D0D4
:103EF00001A80194FFF7D6FD019BD0F81015D94019
:103F000001F001010231204603B0BDE8304003F06A
:103F1000A7B90321F7E70221F5E700BF3C20002005
:103F20000060004008B50246FFF7CAFDC0B102F1CB
:103F300008010E4B33F81130990711D45B0B0122A5
:103F40009A409B000A4903F1804303F5C043C1F83E
:103F50000823D3F8102522F00302C3F8102508BD6A
:103F6000BDE808400021104603F07AB93C2000204B
:103F7000006000400E4B00F1080213B533F8123018
:103F8000DB07044611D5FFF7CDFF2046FFF7ECFD18
:103F900001A80194FFF786FD019B03F5E07302225F
:103FA00040F82320034802B010BD0348FBE700BFE0
:103FB0003C2000200000AD0B0400AD0B2DE9F04FBC
:103FC000644B65486549002687B0012234461D6868
:103FD00035B1D0F8045315421EBF1C601D6816434E
:103FE00004338B424FEA4202F1D1DFF86C81D8F8FA
:103FF0007C31002B00F091804FF0A043D3F82025B6
:104000000492C3F82025D3F820280592C3F820286D
:1040100000270DF110097B0100934FF0010A49E0E0
:10402000009B4F4A94FAA4F4B4FA84F41C4404F1BB
:104030000803E00832F81330039404F007020AFA88
:1040400002FC19F8002022EA0C0209F8002003A85B
:10405000C3F382059908FFF725FD039A02F5E07284
:104060004B0750F82220AB46C2F3014229D5204627
:104070005946D5B2FFF72EFD03A80394FFF712FDB2
:10408000039B03F5E07350F82330C3F301439D42D3
:1040900007D10021204603F0E3F82946204603F02B
:1040A000DFF803A80394FFF7FDFC039B0AFA03F370
:1040B000C0F8203559F82740002CB1D1CFB90127DD
:1040C000A9E7022A0CBF032102212046019203F036
:1040D000C7F8032D04D0019A022A06D1012DE0D1A0
:1040E00059462046FFF7F6FCDBE7032AD9D1022D1B
:1040F000F5E7C8F87C41D8F87C311A494FF0A04365
:10410000D3F820250492C3F82025D1F82035059353
:10411000C1F8203513437FF47BAF012416B907B0F3
:10412000BDE8F08F96FAA6F3B3FA83F304FA03F22C
:104130009B0003F1804303F5C04326EA0206D3F84F
:104140001005D3F81015C0F30520C1F30141FFF7A6
:10415000C1FCE3E7006100400060004020610040D6
:104160003C20002000030050044AD2F80034DB0752
:10417000FBD50160BFF35F8F704700BF00E00140D7
:104180004FF080531A69B0FBF2F302FB130373B9CB
:10419000084B0222C3F80425C3F80805D3F800240D
:1041A000D207FBD500220448C3F804257047034812
:1041B000704700BF00E001400000AD0B0A00AD0BEE
:1041C00010B5054C0123C4F80435FFF7CDFF0023DB
:1041D000C4F8043510BD00BF00E0014001460148AD
:1041E000FFF780BBB8200020036803F01F025B09C3
:1041F000012B0260024818BF4FF0A040704700BF7B
:104200000003005070B500F06044B4F1005F4BD182
:10421000840749D1264C94F83050012D01D09D429D
:1042200044D12568002D2ED0A6682EB3E0606161D0
:10423000E26100261F4C022B0BBFC4F81025C4F806
:104240000425C4F81405C4F8080507BFC4F81815F8
:104250000823C4F80C150423BDB903F1804303F50A
:1042600024330122C4F800511A60124AD2F80031F6
:10427000002BFBD0104870BDA0602161A26184F8C2
:1042800030300126D6E72E46D4E7002EF2D0094979
:1042900003F18043002203F52433C1F800210122F9
:1042A000C1F804231A60E5E70448E4E70448E2E7BC
:1042B000F4360020009002400000AD0B0A00AD0B68
:1042C0000B00AD0B38B5074D6424D5F8003133B978
:1042D0000A2002F030FF013CF7D1034838BD034803
:1042E000FCE700BF009002400700AD0B0000AD0BE3
:1042F000084B9A685A621A699A629A69DA62DA68AD
:104300009A6032B15A691A61DA699A610022DA60F8
:1043100070477047F43600200E4B0238D3F83C2625
:10432000D3F83836072813D8DFE800F0110F0D0B4B
:104330000A080604100EC871100C8871100A487122
:104340000A711A0ECA701A0C8A701A0A4A700B7017
:10435000704700BF00900240023807281FD8DFE8EE
:1043600000F02927251123211F04CB791B068A7908
:1043700043EA02434A7943EA02230A7913430E4A85
:10438000C2F83C36CB781B068A7843EA02434A7867
:1043900043EA02230A781343074AC2F838367047C3
:1043A0000023E4E70023E5E70023E6E70023EBE74B
:1043B0000023ECE70023EDE700900240F7B56F4ED5
:1043C00096F8303004461546002B40F0D280C27C6F
:1043D0001AB1037D002B40F084802379FF2B00F07D
:1043E000CB806079FF2800F0C780A079FF2800F01B
:1043F000C380E079FF2800F0BF80002A42D101A8E5
:104400000193FFF7F1FE019B03F5E07340F20237E1
:1044100040F8237001A863790193FFF7E5FE019B43
:1044200003F5E07340F8237001A8A3790193FFF727
:10443000DBFE019B03F5E07340F8237001A8E379EC
:104440000193FFF7D1FE019B03F5E07340F8237061
:10445000237AFF2B08D001A80193FFF7C5FE019B2B
:1044600003F5E07340F82370637AFF2B0AD001A8AC
:104470000193FFF7B9FE019B03F5E07340F20232AE
:1044800040F82320237D63BB2379FF2B18BF1A46F6
:104490003B4B08BF4FF0FF32C3F824256279FF2A57
:1044A00008BF4FF0FF32C3F82825A279FF2A08BFC2
:1044B0004FF0FF32C3F83025E279FF2A08BF4FF0F2
:1044C000FF32C3F83425227AFF2A08BF4FF0FF32AB
:1044D000C3F83825627AFF2A08BF4FF0FF32C3F8CD
:1044E0003C25274A2368C2F84035237BE77AA07A27
:1044F0009B0143EAC7030343607B002814BF80206D
:1045000000200343C2F84435D2F80036A07B94F86B
:1045100010C0677C23F07F4323F0FF030343E07B5D
:1045200043EA4C63002814BF4FF08070002043EA38
:1045300007730343C2F80036E37C86F83130012369
:10454000C6E90015C2F8083311B12920FDF76EF84D
:104550000B4B01220021C6E9021186F83020C3F876
:104560000025C3F800111A6003B0BDE8F040FFF762
:10457000A9BE044803B0F0BD0348FBE7F4360020B1
:10458000009002400500AD0B0400AD0B70B5144661
:10459000194A92F83020012A05462BD1174E0022E5
:1045A000C6F8002111B14078FFF7D6FE0123C6F806
:1045B0000833AB786A781B0343EA02232A78134353
:1045C000EA7843EA42332A7943EA82336A7943EA52
:1045D000C233C6F83436FFF775FE094B98420AD04D
:1045E0000023C6F800311CB168782146FFF794FE1D
:1045F000044800E0044870BDF436002000900240FA
:104600000700AD0B0000AD0B0B00AD0B1FB5002379
:104610008DF807300C4B0DF10702186802909B884B
:10462000ADF80C30114602A8FFF7B0FF074B9842D7
:1046300006D19DF8073013F0010F054B18BF18463F
:1046400005B05DF804FB00BF707600000000AD0B04
:104650000B00AD0B2DE9F0412920FCF7F7FF244BAF
:10466000244DD3F8342602F44032B2F5803F04BF23
:10467000214AC3F834264FF080510122C3F80823A1
:104680001A61D1F83011082908BF5A65184B002269
:10469000C3F80025C3F8002195F831201ABBD3F8E0
:1046A0002405D3F82885D3F83075D3F83465D3F8CA
:1046B0003845D3F83C15C0B202F0EFFD5FFA88F040
:1046C00002F0EBFDF8B202F0E8FDF0B202F0E5FD19
:1046D000E0B2FF28C9B201D002F0DFFDFF2902D00D
:1046E000084602F0DAFD002385F83030BDE8F0819D
:1046F00000900240F4360020000103008B0710B543
:1047000020D1124A14681CB192F83030012B1BD111
:10471000042382F830300E4BC3F81C150021C3F877
:104720002005C3F800110121D96044B9D3F8001164
:104730000029FBD0012382F83030064810BDC3F8B1
:104740000413FAE70448F9E70448F7E7F4360020D1
:10475000009002400000AD0B0A00AD0B0B00AD0B4A
:10476000174BD3F8002110B5E2B10022154CC3F865
:10477000002194F83020032A15D0042A15D0022AEB
:1047800004D1012384F82030FFF7B2FDA36813B9E8
:10479000012384F83030D4E9003100209847002309
:1047A00084F8203010BD0223ECE7032284F8202097
:1047B000D3F81C256262D3F8203584F82830E5E769
:1047C00000900240F43600200E4B70B553F82040A4
:1047D000013053F82060A64200D870BDD4E90035FE
:1047E0002846984765B1EB6830B10028B8BF404211
:1047F000FF28A8BFFF2018705A7842F001025A70B3
:104800000834E8E7E078000070B5054610B90024E8
:10481000204670BD0378002BF9D00E4C0E4EB442EA
:1048200008D10C4CB442F2D0204602F04FFD50B9F2
:104830001834F7E7204602F049FD10B12368AB4277
:10484000E6D01834EBE72168284602F0D5F80028B6
:10485000EED1DDE7C07300006874000073B5044654
:104860000D464FF02003EFF3118683F31288BFF358
:104870006F8F042896BF124B124B53F82030002242
:10488000009245210246104802F00EF83DB1EB6956
:10489000C3F308031BB10D48452102F005F80C4B8A
:1048A0000C480022452101F0FFFF29462046FEF773
:1048B0000DFE86F31188BFF36F8F02B070BD00BF8D
:1048C000F478000003870000118700003E87000095
:1048D000648700006C87000008B5094B01220220A4
:1048E0001A70FFF771FF00F009F90320FFF76CFF62
:1048F000FBF788FD034A137B23F00103137308BD04
:10490000493800206021002008B50348034A0021EF
:10491000121A02F0E5FC08BD402100204C380020AE
:1049200008B5194B83F30888184C636943F4007386
:1049300063610025E02384F82230E57725766576EB
:10494000A57684F82050636A43F4E023636284F818
:104950002350FDF71FF9FCF71DFE4FF0FF33A36254
:10496000E362FDF71DFAFDF7A1F902F0AEFC28465F
:10497000FFF72AFF0120FFF727FF05482B462A46AD
:104980002946FCF7F5FE00BFA068002000ED00E01E
:10499000D948000008B50648064A0749121A02F02D
:1049A000A1FCBDE80840054A0549064802F09ABC4A
:1049B00000200020402100200C88000000000000A2
:1049C0000C88000000200020034B1B680BB9FEF789
:1049D00015BD0020704700BF283700200D4B10B5D3
:1049E0001C689C4208BF0024FFF7EEFF74B1D4E9B5
:1049F00004321B1A62EBE070B3F1004F70F1000259
:104A000004DA0028ACBF1846002010BD6FF000404B
:104A1000FBE700BFBC20002030B5036868B10A4A3C
:104A20005268904209D043B1D3E90421D0E904454A
:104A3000121941EB0501C3E90421426813605A6071
:104A40000023C0E9003330BDBC2000202DE9F8432D
:104A50004FF02003EFF3118483F31288BFF36F8FBD
:104A6000234EDFF89480234D3060D8F80000326880
:104A70004045D5E9001E4FEAE2770BD050B1D0E9AE
:104A8000043C9A4277EB0C0916DA9B1A6CEB070C84
:104A9000C0E9043C52184EEB0707C5E90027002582
:104AA0003560FFF79BFF2946FEF776FC84F31188FB
:104AB000BFF36F8FBDE8F88359184EEBE377D31A35
:104AC000336000220023C0E90423C5E90017FFF783
:104AD000A3FF84F31188BFF36F8F836898474FF06B
:104AE0002003EFF3118483F31288BFF36F8FBCE7C9
:104AF00028370020E0210020BC200020024A034982
:104B0000034801F017BE00BF63870000D68700008E
:104B1000E387000010B50A4C23681BB10123236012
:104B2000002010BD00F052F80028F7D00138062808
:104B300003D8044B53F8200010BD034810BD00BF3C
:104B40002C37002008790000FE8FFFFFBFF34F8F46
:104B50000549064BCA6802F4E0621343CB60BFF319
:104B60004F8F00BFFDE700BF00ED00E00400FA0535
:104B700010B40A4B0A490B4C4FF0FE32C3F8002424
:104B80004968C3F80424C3F80824C3F80C2400239C
:104B9000C4F800355DF8044B084700BF00B0025070
:104BA000C420002000A00250D0E90012014BC3E94C
:104BB00000127047C420002038B131B101440022F6
:104BC0000346013088421A70FAD1704738B500F0B8
:104BD0002FF820B1032400F063F8204638BD00F020
:104BE00031F898B900F0ACF898B90F4DD5F82839DC
:104BF0001B0EF02B08D1D5F8242A0C4B9A420AD070
:104C0000072400F017F8E6E70624FAE70424204614
:104C100038BD0024F5E7012000F092F80446002892
:104C2000F7D1C5F80C0AD8E700B002500000E02028
:104C30000020704700207047014BC3F8040A7047FA
:104C400000B0025010B5114800F048F800B110BD96
:104C50000F4800F043F80028F9D10E4C204600F030
:104C60003DF80028F3D10C4B0C481C6000F036F8DE
:104C700001460028EBD100F02DF8044608B120468B
:104C800010BD00F03FF82046FAE700BFD820002012
:104C9000CC200020D4200020DC200020D0200020C8
:104CA00008B5084800F024F8074800F021F8074844
:104CB00000F01EF8064800F01BF8BDE8084000F0C0
:104CC0000BB800BFD8200020CC200020D42000202A
:104CD000D020002000207047704700BF08B5034B6C
:104CE00002681B6810689847002008BDE820002073
:104CF00008B5034B02685B6810689847002008BD40
:104D0000E820002070B5094C094D2069AB68984730
:104D100018B1084B08485B689847084AEB68206957
:104D200000211160BDE87040184700BFF820002046
:104D3000E8200020C4200020247900003037002023
:104D400070B51B4D1B4E0446B26828699047F8B9F0
:104D50005CB1194C2368B3B1012B1BD0013B23601C
:104D60002869F3689847002070BD134C216841B949
:104D7000124B0122C3F80025114AD2F81039002B3A
:104D8000FBD101312160F36828699847002070BD8C
:104D90000C4870BD0A4AD2F81039002BFBD1074AE3
:104DA0006FF07E40C2F80035FFF746FF2368D5E775
:104DB000F8200020E82000203037002000A002501A
:104DC00000B00250E98FFFFF10B5044630B16368B0
:104DD000DB0602D500232360636010BD024B03484D
:104DE0005B689847F3E700BFC420002044790000C7
:104DF000B0B1436893B1DB060ED5012350E8002F14
:104E0000194640E8001C9CF0000FF7D1012AF5D0AC
:104E1000BFF35F8F00207047034870470348704717
:104E20006FF4E040704700BFE98FFFFFEA8FFFFF9C
:104E300068B143683BB1DB0607D5BFF35F8F002342
:104E400003601846704703487047034870476FF483
:104E5000E0407047EA8FFFFFE98FFFFF10B504467F
:104E600020B1002211232260636010BD0148FFF7CA
:104E70007FFEF6E76C79000030B10268034B04480E
:104E80009A4208BF0020704702487047DD55AABB10
:104E90008208F0007108F00038B50D460446B0B144
:104EA000A0220021043002F042FA95B108222946DE
:104EB00004F1640002F041FA082205F1200104F136
:104EC000840002F03AFA044B2360002038BD034806
:104ED000FCE70348FAE700BFDD55AABB7108F00004
:104EE0008308F0002DE9F74305460E469946114622
:104EF000FFF7C2FF0446002840F08480002E00F037
:104F00008580002900F08480B9F1200F40F0828074
:104F100005F14404082205F10408204602F00DFAC8
:104F200005F1240708223146404602F006FA06F150
:104F300020010822384602F000FA02A94FF48070DE
:104F400041F8049D02F0EDF9002865D1334A4FF491
:104F500080731360012193600823314A00F02EFB17
:104F60000121084605232F4A00F028FB082342466A
:104F700001211C2000F022FB08233A4601210320D6
:104F800000F01CFB224608230121022000F016FB42
:104F90000823254A01211A2000F010FB0523234A8B
:104FA00001211B2000F00AFB0823214A01211420C3
:104FB00000F004FB08231F4A0121152000F0FEFA2F
:104FC000082305F164020121162000F0F7FA0823F6
:104FD00005F184020121172000F0F0FA0823164A97
:104FE00001210B2000F0EAFA00F044FB044601988E
:104FF00000F0D2FA114B002C18BF1C46A421284601
:1050000002F097F9204603B0BDE8F0830C4CF9E7B5
:105010000C4CF7E70C4CF5E7084CEFE790B002506A
:10502000D0790000487A000090790000347A0000BE
:10503000F4790000147A0000B07900008408F000D0
:105040007608F0008008F0008108F0000C4BC2697F
:105050001A60826943F8042C426943F8082C0269FB
:1050600043F80C2CC26843F8102C826843F8142CC7
:10507000426843F8182C026843F81C2C704700BFA4
:105080005CB602500C4B1B68C3610C4B1B68836100
:105090000B4B1B6843610B4B1B6803610A4B1B687E
:1050A000C3600A4B1B688360094B1B684360094B54
:1050B0001B680360704700BF5CB6025058B60250D0
:1050C00054B6025050B602504CB6025048B6025088
:1050D00044B6025040B6025030B10268034B044857
:1050E0009A4208BF0020704702487047DD55AABBAE
:1050F0000202F0000002F00038B5044668B1051D58
:105100007021284602F015F928462022044902F0B1
:105110000CF9044B2360002038BD0348FCE700BFB6
:105120005C7A0000DD55AABB0002F0002DE9F043D7
:10513000284B04460E4615460FCB85B06F4687E8D0
:105140000F002DB94FF00009484605B0BDE8F083C7
:105150002046FFF7C1FF81460028F5D1231D0193AA
:10516000636AA3BB236F8BB1C3F14008A84528BF76
:10517000A84604F1300031461844424602F0D5F802
:10518000236F434446442367A5EB0805226F402A5A
:1051900006D104F13001384600F0AEFB002323674E
:1051A00005F03F0835F03F0505D031462A46384620
:1051B00000F0A2FB2E44B8F1000FC3D042463146A6
:1051C00004F1300002F0B1F8C4F87080BCE7DFF8F9
:1051D0000890B9E7607600000C02F0002DE9FF416D
:1051E000144B04460E460FCB6F4687E80F0020464F
:1051F000FFF772FF8046B0B9CEB1636A251D0195F5
:105200003BB901236362226F04F13001384600F09C
:1052100073FB2B46043E243453F8042B12BAA342EA
:1052200046F8042FF8D1404604B0BDE8F081DFF81D
:105230000880F8E7607600000502F000084B1B6864
:105240001B0EF02B08D1074B1A68074B9A4205D169
:10525000064B0020186070470520704706207047F5
:1052600028B9025024BA02500000E0200CBA0250C3
:10527000002230B549001346023840F6FC7502F1B1
:10528000A05404F52C44A400904202F10102CABFCC
:10529000236025605B181E2AF1D1044A13600B4479
:1052A0005360034B034A1A6030BD00BF78B0025010
:1052B00084B0025020F80F0030B51E4B85B01A465E
:1052C000196800910099CC07FAD500F1A05000F5BB
:1052D0002C408000016813680193019BD807FAD520
:1052E000154B164C1868164D1F30202390FBF3F019
:1052F0000138002810DA00230130400153B1A0F139
:1053000020014FF00042134204D1013888424FEA95
:105310005202F8D105B030BD13680393039BDB073D
:10532000FAD5431823602B680293029B002BE3D12C
:105330000138DEE7B4B00250ACB00250E4B0025025
:10534000DCB00250F0B51D6885B001F01F040DB946
:105350001F2C25D1154D2E462F680197019FFF0761
:10536000FAD500F1A05000F52C40800000683568A7
:105370000395039DED07FAD50D4D00EB61102860F4
:105380000C48006802901F2C18BFC94302980FBF39
:10539000106001F01F0100FA01F111600021196095
:1053A00010684300C00F136005B0F0BDB4B00250E8
:1053B000E4B00250DCB002500C4B18603F3020F0DB
:1053C0003F008901403058609960D9601961596186
:1053D00099611C330648196082B002680192019AF3
:1053E000D207FAD5196002B0704700BF90B00250E2
:1053F000B4B0025038B5A0F12003B3F5426F0546B2
:105400002CD88F2826D800F1470300F16604DB066C
:105410004FEA541400D0013464013F34A40901342C
:1054200011B1A1421AD30C46E3004FF48050B0FBF7
:10543000F3F0202828BF202002B11060084B012281
:105440001A602146FFF714FF28462146FFF7B4FFF4
:10545000002038BD00F11F046409DDE70148F8E7CA
:105460001CB802502221F000F0B5454B89B01D4612
:105470001C680194019CE407FAD5424BDFF80CE16B
:10548000DFF80CC113449B0000241A680B181E2B74
:1054900088BFC0F11E011F320B1852095343B3F5E8
:1054A000806F82BF4FF48061B1FBF2F1091A00F105
:1054B000A05000F52C402746A14233DC2B68049312
:1054C000049BDB07FAD5304B1B68296805910599C9
:1054D000CF07FAD52D4C2E49236000231E46934258
:1054E00003F1010040D120F00102294819460026AD
:1054F0008A423CD8296806910699CE07FAD52549F3
:105500000968286807900798C007FAD521602048E5
:1055100000210C468B422DD11D4900209A422CD8E7
:1055200009B0F0BD2B680293029BDB07FAD5031983
:105530009B001B682E680396039EF607FAD5CEF8EB
:1055400000300023934203F1010306D1164623F0F5
:105550000103B34204D80134AEE7CCF80070F1E7A0
:10556000CCF800700136F4E70E600346B7E706603A
:105570000131BDE704600131CCE708600133CDE7BC
:10558000B4B0025024AC00147CB00250D4B002502D
:10559000D8B0025078B0025008B540B1202801467A
:1055A0004FF0070228BF20210020FFF75DFF024BCC
:1055B00000221A6008BD00BF1CB80250F0B5294D8A
:1055C00085B02C462E680096009EF607FAD500F1AD
:1055D000A05000F52C4080000568206801900198DB
:1055E000C707FAD52048214F056002EB8306B24277
:1055F00029D15A1C1D4E22F0010200279A4227D8B9
:1056000023680293029BDE07FAD5194B0B449B00DB
:105610001B681F335B099A4213D2216803910399D7
:10562000C907FAD5154400219B1A104A056008469F
:105630008B4210D85A1C0D4922F0010200209A42D8
:105640000CD805B0F0BD52F804CBC7F800C0CEE7C7
:1056500037600133D2E710600131E9E708600133B8
:10566000EDE700BFB4B00250D4B00250D8B0025041
:1056700024AC00142DE9F041814B1D68986820335B
:10568000A0B01E461A680192019AD707FAD57D4B41
:105690007D4A1A6032680292029AD407FAD57B4A90
:1056A0001A607B4A1446116803910399C907FAD519
:1056B000784A1168C1F3402137680497049FFF07B7
:1056C000FAD5754F1F6027680597059FFF07FAD524
:1056D0001768002900F0CF80B90540F1CC8031680F
:1056E00006910699CF07FAD56C4919602168079190
:1056F0000799C907FAD51168C1F34021376808979F
:10570000089FFF07FAD5664F1F6027680997099F12
:10571000FF07FAD51268002900F0AF80910540F12B
:10572000AC8032680A920A9AD207FAD5564A1A60B1
:1057300032680B920B9AD707FAD55A4A1A60316829
:105740000C910C99CC07FAD55749196031680D9125
:105750000D99C907FAD55549196031680E910E990E
:10576000CF07FAD55249196031680F910F99CC07CC
:10577000FAD550491960504B1E461968109110997E
:10578000C907FAD53F4C4D4B236033681193119BE9
:10579000DB07FAD54A4B236033681293129BDF076D
:1057A000FAD5484B23603A4B9846196813911399E0
:1057B000C907FAD5324F386033681493149BDB075E
:1057C000FAD5226033681593159BD807FAD53E4B5E
:1057D000236033681693169BD907FAD53B4B236099
:1057E00033681793179BDA07FAD5394B2360336870
:1057F0001893189BDB07FAD5364B2360336819934F
:10580000199BD807FAD5344B236033681A931A9B37
:10581000D907FAD5314B236033681B931B9BDA07FA
:10582000FAD52F4B236000F01DFC08BBD8F80030E0
:105830001C931C9BDB07F9D53D6033681D931D9BB2
:10584000D907FAD5274B236033681E931E9BDA07CE
:10585000FAD5254B2360D8F800301F931F9BDB0738
:10586000F9D50C4B1B6813F4805F204B08BF18461A
:1058700020B0BDE8F0811E48FAE71E48F8E700BFF7
:1058800090B0025080B0025000100251C01F722927
:10589000B4B0025088B00250C0CF0129C01F0E29F9
:1058A000C03F002940010249003184A80000164988
:1058B000400108A180440888B0B00250C0447088FC
:1058C00080077A41C0077E4100006A498006164978
:1058D00040006E49000200210082202140822021E8
:1058E0008082242140A161A100C861510308F10018
:1058F0000108F1000208F1002DE9F74F314B44682F
:105900008046924699461A68002AFCD12E4B9B4647
:105910001A68002AFCD14FF0FF30019100F094FC8E
:10592000802000F097FC294D294A2A4F2A4E012356
:1059300007202B60A2F59E72C2F83C011360636AD7
:105940003B60A36A3360D8F8003042F8043CD8F8D2
:105950000830204698470199D9F80030002BFBD138
:10596000BAF1000F20D11D4B04221A60D9F8003083
:10597000002BFBD1DBF800A0BAF1000FFAD1D8F868
:105980000C30204698473B6863623368A362144B2F
:10599000C3F800A0C3F844A1D9F80030002BFBD114
:1059A0002B6003B0BDE8F08F236A012B04BF0C4AC3
:1059B00013600C4B40201960C3F804A000F050FCA9
:1059C000D4E700BF10B9025020BC025018B80250F2
:1059D00000B90250CCB70250D0B70250C8B702503D
:1059E00084B6025028BC025010B5544B98B01946EA
:1059F0001A680192019AD207FAD5514B514A1A609E
:105A00000A680292029AD407FAD54F4A1A600A68C5
:105A10000392039AD007FAD54C4818600A6804929A
:105A2000049AD207FAD54A4A1A600A680592059A7A
:105A3000D407FAD5474A1A600A680692069AD2072E
:105A4000FAD5454A1A600A680792079AD407FAD528
:105A5000424A1A600A680892089AD207FAD5404A60
:105A60001A600A680992099AD407FAD53D4A1A6061
:105A70000A680A920A9AD207FAD53B4A1A600A685B
:105A80000B920B9AD407FAD5384A1A600A680C921E
:105A90000C9AD207FAD5364A1A600A680D920D9A06
:105AA000D407FAD5334A1A600A680E920E9AD207C2
:105AB000FAD5314A1A600A680F920F9AD407FAD5BC
:105AC0002E4A1A600A681092109AD207FAD52C4A08
:105AD0001A601A4B19461C681194119CE407FAD5F8
