:020000040000FA
:1000000020600020251A00005B640000F919000040
:10001000F9190000F9190000F919000000000000AA
:100020000000000000000000000000008915000032
:10003000F919000000000000F9190000F91900008A
:100040000916000009160000091600000916000034
:100050000916000009160000091600000916000024
:100060000916000009160000091600000916000014
:100070000916000009160000091600000916000004
:1000800009160000091600000916000009160000F4
:1000900009160000091600000916000009160000E4
:1000A00009160000091600000916000009160000D4
:1000B00009160000091600000916000009160000C4
:1000C00009160000091600000916000009160000B4
:1000D00009160000091600000916000009160000A4
:1000E0000916000009160000091600000916000094
:1000F0000916000009160000091600000916000084
:1001000053B94AB9002908BF00281CBF4FF0FF317E
:100110004FF0FF3000F074B9ADF1080C6DE904CE7A
:1001200000F006F8DDF804E0DDE9022304B07047D2
:100130002DE9F047089D04468E46002B4DD18A429A
:10014000944669D9B2FA82F252B101FA02F3C2F1CD
:10015000200120FA01F10CFA02FC41EA030E94405E
:100160004FEA1C48210CBEFBF8F61FFA8CF708FB7F
:1001700016E341EA034306FB07F199420AD91CEB57
:10018000030306F1FF3080F01F81994240F21C8189
:10019000023E63445B1AA4B2B3FBF8F008FB1033D1
:1001A00044EA034400FB07F7A7420AD91CEB040406
:1001B00000F1FF3380F00A81A74240F207816444D6
:1001C000023840EA0640E41B00261DB1D44000235B
:1001D000C5E900433146BDE8F0878B4209D9002DBF
:1001E00000F0EF800026C5E9000130463146BDE849
:1001F000F087B3FA83F6002E4AD18B4202D38242B3
:1002000000F2F980841A61EB030301209E46002D61
:10021000E0D0C5E9004EDDE702B9FFDEB2FA82F2B6
:10022000002A40F09280A1EB0C014FEA1C471FFA14
:100230008CFE0126200CB1FBF7F307FB131140EAFB
:1002400001410EFB03F0884208D91CEB010103F1C8
:10025000FF3802D2884200F2CB804346091AA4B28A
:10026000B1FBF7F007FB101144EA01440EFB00FE5E
:10027000A64508D91CEB040400F1FF3102D2A645C3
:1002800000F2BB800846A4EB0E0440EA03409CE762
:10029000C6F12007B34022FA07FC4CEA030C20FA0F
:1002A00007F401FA06F31C43F9404FEA1C4900FA2F
:1002B00006F3B1FBF9F8200C1FFA8CFE09FB1811AC
:1002C00040EA014108FB0EF0884202FA06F20BD91F
:1002D0001CEB010108F1FF3A80F08880884240F26F
:1002E0008580A8F102086144091AA4B2B1FBF9F0B3
:1002F00009FB101144EA014100FB0EFE8E4508D9AE
:100300001CEB010100F1FF346CD28E456AD9023832
:10031000614440EA0840A0FB0294A1EB0E01A14217
:10032000C846A64656D353D05DB1B3EB080261EB85
:100330000E0101FA07F722FA06F3F1401F43C5E95F
:10034000007100263146BDE8F087C2F12003D84095
:100350000CFA02FC21FA03F3914001434FEA1C47D7
:100360001FFA8CFEB3FBF7F007FB10360B0C43EAC9
:10037000064300FB0EF69E4204FA02F408D91CEB79
:10038000030300F1FF382FD29E422DD90238634477
:100390009B1B89B2B3FBF7F607FB163341EA034117
:1003A00006FB0EF38B4208D91CEB010106F1FF3866
:1003B00016D28B4214D9023E6144C91A46EA00465D
:1003C00038E72E46284605E70646E3E61846F8E6EF
:1003D0004B45A9D2B9EB020864EB0C0E0138A3E738
:1003E0004646EAE7204694E74046D1E7D0467BE719
:1003F000023B614432E7304609E76444023842E791
:10040000704700BF7FB5214B214AC3F80026C3F8CF
:100410000426C3F80826C3F80C26C3F81026C3F830
:100420001426C3F81826C3F81C2605F008FC194842
:1004300000F034F800B9FEE701A800F0CFFB164B3E
:100440001B68834200D0FEE74FF41041002006F005
:10045000F0F900B1FEE769469DF8080005F0DDFB04
:10046000009B039C1C44019B1D8900F0F9FB66194D
:100470004FF02002EFF3118382F31288BFF36F8FE6
:10048000635983F3088873689847FEE700000140CA
:100490003546526E56710000B421002010B5044C50
:1004A000236813B903F084FE2060206810BD00BFEC
:1004B000B02100202DE9F04F1D46DBB0814BDDF867
:1004C00090B11E68DDE96648174600F097FB7E4B49
:1004D0000122C3F800253AA804F0DEFA3CB1B8F1D5
:1004E000000F04DD424621463AA805F0FDFD7B8958
:1004F000B7F808809844FB684FF000099844C84555
:100500004ED80DA93AA804F039FB6F4B0022C3F86E
:100510000025C3F80025689B23B120220DA91846A9
:1005200005F0DEFF002300932A464FF6FF7339469D
:1005300007A805F085FB0446002844D1DFF894A104
:10054000DFF8848102904FF0FF370DF1160305AA02
:1005500006A907A805F0C0FB041E34DB40F0A38009
:10056000BDF81690B9F1100F38D1BDF81490B9F15B
:10057000200F40F0A28006994B463AAA284605F083
:10058000B6FE0446F8B94A463AA90DA805F01BFC88
:1005900004464E4B1B68834215D101230293D4E7D6
:1005A000659AA8EB09039A4228BF1A461346924659
:1005B00049465A46284605F09AFE044638B1424B51
:1005C0000022C3F8002520465BB0BDE8F08F5246FC
:1005D00059463AA805F088FDD14490E7B9F1010FDA
:1005E0003ED1BDF81430202B67D806993AAA284688
:1005F00005F07DFE04460028E5D19DF814B0BBF15E
:10060000200F09D8DAF80030314F0393039B9C4246
:1006100005DB0023C8F800354FF0FF341CE000F084
:10062000EDFAC8F800951DA804F036FA7A6857F874
:10063000081B12681DA805F057FD15A91DA804F098
:100640009DFA0022C8F800253AA95A4615A805F0D7
:100650001EFF18B9C8F80005274676E70134D5E72C
:10066000B9F1220F7FF471AF002F19DBDAF80030F7
:10067000BB4215DDBDF81430802B1ED806993AAA6E
:10068000284605F034FE044600289CD1FFB2BDF890
:10069000143000973AAA20210DA800F01DF8064654
:1006A0004FF0FF3751E7029B53B1084B1B68B34231
:1006B00001D0044B1E68344685E74FF0FF3482E7D3
:1006C000012480E70020002000A00250B421002077
:1006D000DC6D0000D86D00002DE9F04196B01746A2
:1006E0001D469DF87020354B0E4653F8321001918F
:1006F00003EBC20380465B68186802AA01443023FA
:1007000001A805F07EFC10B14FF0FF3053E0DDE9A9
:1007100001431C4403AA06AB214601A805F099FC3D
:100720000028F1D1049A072AEED12549059805F051
:10073000AEFE0028E8D1079A082AE5D12149089899
:1007400005F0A5FE0028DFD102AA214601A805F088
:100750006CFC0028D8D1DDE9013213449C42D3D18E
:10076000412AD1D13D44302303AA294602A8029749
:1007700005F047FC0028C7D1DDE9023213449D4251
:10078000C2D32A4602A906A805F0F1FA0028BBD177
:100790002A4602A90EA805F0EAFA0028B4D1202EB4
:1007A000B2D101990B78042BAED1334606AA0131A0
:1007B000404600F03BFA16B0BDE8F081DC6D000069
:1007C00069710000717100002DE9F041334B88B070
:1007D000044600200D461E6805F025FA07A9C0B2A0
:1007E00000F0B2FD40B92946204605F00CFB38B9AF
:1007F0000126079805F07AFD304608B0BDE8F08183
:100800002C2303FB05431B69DB06F1D4E5B194F807
:100810004020237D9A4217D80AD394F84120637D63
:100820009A4211D804D3B4F84220E38A9A420BD2F8
:100830000021204605F0E7FA30B1079882680021D0
:1008400005F09FFD2E46D4E72C276F434FF48073AD
:100850000021019304EB0708114B0093CDE903112C
:10086000079B029142460846FFF724FE06460D4BC1
:10087000E25907989A420ED1B8F80820D8F80C30FF
:10088000D1438B4207D813448268934203D2064B6C
:100890001B68B342ADD0002DAAD0CFE700200020C6
:1008A000083700203DB8F396B42100202DE9F84F19
:1008B000DFF878B01B4C1C4D8A46904699460026BE
:1008C0000B9B9E4201D300200FE00B9B174A9F1BFE
:1008D000B7F5806F28BF4FF480673B4606EB0901F0
:1008E000504605F004FD10B10120BDE8F88F0A99CB
:1008F0003B465A467118404605F015FD0028F3D1D5
:10090000C4F800563E44C4F80456C4F80856C4F867
:100910000C56C4F81056C4F81456C4F81856C4F847
:100920001C56CDE7000001403546526E18220020CB
:100930002DE9F04FA54B1F68A54B43628846A54B98
:100940000365002189B00446084605F06CF904F1FE
:100950002001C0B200F0F8FC0121002005F063F98D
:1009600004F14C01C0B200F0EFFC0546204605F052
:100970006EFAC8B900221146204605F02BFA064649
:1009800070B9204605F0B6FA50B104A805F081FA16
:1009900005F088FA0146D0B904AA204605F01AFAF3
:1009A000012384F8583004E00123984284F8583039
:1009B000E0D194F858308DF81730042B2ED8012B45
:1009C0002ED800F09A80FF2384F8583095E09DF8E7
:1009D0001790B9F1010F15D1304602F01BFB831EB1
:1009E000022B06460BD849462046FFF7EDFE7A4B10
:1009F0001B68984203D001280CBF0126052684F805
:100A00005860D6E701212046FFF7DEFE724B1B68D7
:100A100098420CBF9DF817300523C2E7052BD0E79D
:100A20000121002005F0FFF802A9C0B200F08CFC03
:100A3000002867D00026029805F058FC02A9032080
:100A400000F082FC03A9012000F07EFC0025D4F810
:100A500028A0A946CA4511D0636A029803EBC903CE
:100A60002946D3F804B05A465D4405F08AFCB542E5
:100A700076D3E56DB6FBF5F605FB0655E06D05F0A2
:100A8000A4F9A26A636A013A196803EBC20300225F
:100A90005E68324490429C46A3F10803F8D8DCF823
:100AA00000300298591A05F06CFC00230195DDE92D
:100AB000022100932046FFF7F9FE0546E8B90298A7
:100AC00002F04AFA0546C0B9236D01465A680398F8
:100AD00005F057FCD4E91423013B02EBC30052F8A4
:100AE0003310136842680398C91A05F04AFC02984B
:100AF00005F0FCFB039805F0F9FB94F85830FF2B48
:100B000031D1FEE7A36BA68E0298F51803AA042341
:100B1000294605F0ECFB00288CD1BDF80C20E68EB0
:100B200046F608139A4218D1BDF80E309E4281D184
:100B30000298042303AA711905F0D9FB00287FF459
:100B400079AFBDF80C2046F607139A427FF472AFD6
:100B5000BDF80E301E442E446DE7002EF1D069E73B
:100B600009F1010976E7012B06D004AA00212046ED
:100B700005F030F90546D8B900212046FFF724FEDC
:100B80000746154E3368984212D1102200210DEB12
:100B9000020005F0B0FC206A05F04FF888F8040068
:100BA000236A37685B68C8F80830C8F80040002539
:100BB000E06C05F09BFB206A05F098FB002D14BF4C
:100BC0002846384609B0BDE8F08F00BF002000205D
:100BD00018260020182E0020B421002038B5064D1C
:100BE000044660220021284605F085FC214628465F
:100BF000FFF79EFE38BD00BFB821002070B5094D3B
:100C00002B7853B9084C0126C4F8006503F0E6FFC1
:100C100028B92E70C4F8000570BD0020FCE74FF025
:100C2000FF30F9E70838002000A0025070B50B4EE5
:100C3000AEB01D46CDE902210446FFF7DFFF0123D8
:100C4000C6F80035DDE902212346009505A805F028
:100C50002CFF0023C6F800352EB070BD00A0025056
:100C6000164A4FF0FF3301215160C2F84833C2F8F1
:100C7000083302F5C0425160C2F84833C2F8083365
:100C800002F598325160C2F84833C2F80833A2F531
:100C900008320021C2F80015C2F8083302F51832F4
:100CA000C2F80015C2F80833A2F51042C2F80835A0
:100CB0004FF08042C2F80833704700BF00B00040D8
:100CC0000B6801330B60014B1B68184704200020A0
:100CD00007B50B46002102460191034801A900F027
:100CE000E9F803B05DF804FBC10C00002DE9F74FF3
:100CF000B0F8189019F00808044693460ED0012960
:100D00000CBF49F0100949F02009A0F818908BF3A6
:100D10001188BFF36F8F03B0BDE8F08FDFF890A1AB
:100D200009F00709022907D1204605F025FA002815
:100D3000EDD00128238B4BD16769218B002F15DA69
:100D4000256821F00701C4E9008841F001012183F1
:100D50000026218B01F007024A4502D0A368002B30
:100D600057D10DB9002E6FD0002353E001F00703D7
:100D70005A1F012A1DD821F00701062B256889B2C8
:100D8000C4E900880AD13DB1638B2A461268013359
:100D90009BB2002AFAD1638341F0020121832046ED
:100DA00005F0EAF90028D3D0238B43F020032383F6
:100DB000CEE7042B0AD121F0070189B22183204616
:100DC00005F0DAF910B141F0200121830025BFE7D9
:100DD000032809D1226923F00703166843F00603AC
:100DE000238300252F46B4E7042806D1226923F087
:100DF0000703566843F00403F2E7052806D1226989
:100E000023F00703966843F00503E9E700252E4623
:100E1000E8E7012341F0080121838BF31188BFF338
:100E20006F8F03BB002D31D116B151462046B0471C
:100E30004FF02003EFF3118B83F31288BFF36F8F12
:100E4000238B23F008032383238BDA0627D523F093
:100E5000100323830121B4F8189009F00709002931
:100E60007FF460AF53E7A1680029DBD0D1F8009090
:100E7000D1F804B001923B462046D847019AB9F117
:100E8000000FCFD04946D9F80090F1E729463B46FC
:100E9000204601922D6805F08BF9019AC2E713F004
:100EA00020011EBF23F0200323830221D3E700BFCC
:100EB000DD6100002DE9F04F8FB01E46531E0190FA
:100EC0008A4602934FF00009029B5878252803F1C7
:100ED000010421D118464FF0000C4FF0FF370230CB
:100EE0006346CDF80CC03C460A2502780290392AA8
:100EF00000F1010058D81F2A18D8002A00F0FE81FE
:100F0000019B514625209847029B51461878019B2A
:100F1000984709F10209D7E7002800F0EF81019B0B
:100F20005146984709F101090294CDE7A2F1200149
:100F30001929E5D80FF2040E5EF821F0A50F000084
:100F4000010F0000010F0000A50F0000010F0000BD
:100F500029100000010F0000010F0000010F000028
:100F6000010F00006B100000A50F0000010F000032
:100F70007D10000037100000010F0000431000003A
:100F80005F1000005F1000005F1000005F100000A5
:100F90005F1000005F1000005F1000005F10000095
:100FA0005F1000009446A0E7582A00F01781A2F1D4
:100FB00063015FFA81FEBEF1170FA1D817299FD8F0
:100FC0000FF2040E5EF821F03B120000A3100000A7
:100FD000010F0000010F0000010F0000831000004E
:100FE000A3100000010F0000010F0000831000009B
:100FF000010F0000010F0000010F00008911000027
:10100000010F0000010F00001D120000010F000081
:10101000A3100000010F0000010F00008911000063
:10102000010F000083100000019B514625209847C6
:1010300009F1010948E7039A02F0FE020392002732
:1010400053E7002C0BDA002F0BDA0399002900F08C
:101050004D8124EAE47405FB0424303C45E7002F6D
:10106000F7DB05FB0727303F3FE7002F56F8042B3F
:1010700080F23E81002A80F23D8154420222039296
:1010800033E7682A03D1682B06D148232DE76C2A61
:1010900002D16C2B00F03081002B7FF431AF13466E
:1010A00023E77A2B06D1752A56F8045B61D14FF0FD
:1010B00000080DE06C2BF6D04C2BF4D1073626F04F
:1010C00007031E46752AF6E8020107D1D3E9005846
:1010D000BCF1200F50D18B4B013C09E005468846FE
:1010E000B8F1000FF4DA6D42874B68EB4808013C19
:1010F00000930DAB04934FF0000B284641460A22A3
:101100000023CDF814B0FEF7FBFF049B303203F848
:10111000012928460493414600230A22CDE90658B6
:10112000FEF7EEFF069B0A2B079B73F100030BF102
:10113000FF3B05468846E0D2059BC3F1010B3833DF
:101140000DEB0305002FA5F1040504DA039B13F052
:10115000010F18BF2746039BA7EB0B08B8F1000F40
:10116000D4BFA4EB0B04E41B980700F1838027464F
:1011700073E04FEAE578B3E7BCF12B0F0ABF634B8E
:10118000634B04F1FF34B3E7702A27D156F8041BF0
:101190000023002959D05F480090023C02F0600211
:1011A000A2F139080DF1340E002501F00F02092AD1
:1011B00088BF424430320EF8012910294FEA11123B
:1011C00042EA03724FEA131073F1000305F1FF3C8A
:1011D00020D2C5F1010B05F13803B1E76C2B03D127
:1011E00056F8041B002308E04C2BF9D1073626F0F3
:1011F00007031E465B6856F8081BBCF1230F06D197
:10120000454D444812F0200F08BF2846C4E7404827
:101210000090C3E7654611460346C6E756F8045BEF
:10122000284605F021F9002F834602DBB842A8BF0B
:10123000BB46374B009300278DE756F8043B8DF8EB
:1012400020304FF0010B08ADF3E7344D4FF0050BA4
:10125000EFE7019B514620209847013FF9D5631ED7
:10126000591CACBF22460022C4F10004B8BF0024C0
:1012700091441C44009FA9EB070304E000935146EE
:10128000019B9847009B03EB070917F8010B002807
:10129000F4D14746013F19D508F1FF330133B8BFF8
:1012A0004FF000085F46013F15D50BF1FF330133C6
:1012B000B8BF4FF0000BD8442546013D11D5631E41
:1012C0000133B8BF0024A044C144FDE5019B514651
:1012D00030209847DEE715F8010B019B51469847EF
:1012E000E1E7019B514620209847E6E70122C6E648
:1012F0001746FAE51446F8E54C23F6E548460FB0E4
:10130000BDE8F08F82750000D5710000D771000034
:101310000F7A0000DC710000D9710000DF7100005D
:1013200008B54FF02002EFF3118382F31288BFF368
:101330006F8F00F0BFFC034804F011FF00F062F86B
:10134000FCE700BFE57100000C4B1B6870B573B182
:101350000B4A15680022AA4202DB6FF0010070BD43
:101360001C4613F8106B864204D00132F3E76FF08D
:101370000C00F4E70C600020F1E700BF082000201B
:10138000686E000070B588B005460C46C0B269466C
:101390001646FFF7D9FF00281FDB009BEBB15A6808
:1013A00002929A682168D8680195CDE90326002247
:1013B000CDE90612059202F0FBFE0546009804F006
:1013C00095FF6DB12846084901AA05F0C7F90798AD
:1013D00008B9059B236008B070BD6FF01500FAE7EF
:1013E0006FF01200F7E700BF05640000014803F04A
:1013F000A7B800BF6C6E0000014910220A60704758
:1014000010ED00E072B6404080F31188BFF36F8F9B
:10141000BFF34F8F30BF62B6BFF36F8F704700BF0F
:1014200072B6494081F3118820BF80F3118862B6FB
:10143000704700BF37B505460C46C9B18B680093AD
:10144000D1E900230E48452104F043FF636900936E
:10145000D4E903230B48452104F03BFFE2690A4825
:10146000452104F036FFA2690848452104F031FF08
:101470002146284603B0BDE8304002F0C3BE00BF9D
:10148000167200004A7200007E7200009272000024
:1014900043B2002B08DB012200F01F0002FA00F02B
:1014A0005B09024A42F82300704700BF00E100E0F8
:1014B00043B2002B0DDB01225B0900F01F0002FA92
:1014C00000F02033034A42F82300BFF34F8FBFF3ED
:1014D0006F8F704700E100E0054B420900F01F00EC
:1014E00053F82220012303FA00F01040704700BF98
:1014F00000E100E043B2002BA8BF03F1604301F11B
:101500000101B8BF064B4FEA4111ACBF03F561437F
:1015100000F00F00C9B2B4BF195483F8001370472C
:1015200014ED00E030BFFFF7FDBF00BF144A08B55F
:10153000144B22F07F029A60BFF34F8FBFF36F8F7F
:10154000D3F8882022F47002C3F88820D3F88820CA
:1015500042F4A002C3F888204FF04042C3F834227E
:10156000BFF34F8FBFF36F8F0023E1EE103A02F00D
:101570009FFE02F0E1FE00F049FA02F0A3FE00BF78
:101580000000000000ED00E01EF0040F0CBFEFF3C0
:101590000880EFF30980816911F8021C0229FFD04D
:1015A00001B504F052FF01BD10F1160F074B08D032
:1015B000984208D32033834205D98B4203D904488B
:1015C00070472033F9E70020704700BF2038002023
:1015D000403800200446084611461A460023E1EE32
:1015E000103A084B202583F3098863B64FF00003B7
:1015F00083F31188BFF36F8FA04785F31188BFF382
:101600006F8FFEE74060002001B5EFF30580A0F189
:1016100010004FEAC0000449014409C99847BDE8D9
:101620000140024908470000D06B0000311600005D
:10163000704700BF2DE9F0412E4C074688462E48E2
:101640004521154604F045FEA36ADE0603D52B4866
:10165000452104F03EFEA36A180703D5284845211A
:1016600004F037FE234CA36A990721D46FF01506C6
:10167000204CA36ADB0703D52248452104F029FE4C
:10168000A36A980603D52048452104F022FE194B91
:101690009A6AD10621D49A6A92071ED40020154A6C
:1016A000936A43F0FF03936200232B70BDE8F0813F
:1016B0001648452104F00DFE666BA36A1A06D5D5BF
:1016C00013483246452104F004FEB8F1000FCFD094
:1016D000A36A23F08003A362CAE75B681B05DDD51C
:1016E00039463046FFF760FF0028D7D080F30988DD
:1016F0000220D4E700ED00E0C5720000E0720000B7
:1017000018730000687300008C73000030730000D1
:101710004D73000010B51D4C1D48452104F0D9FD46
:10172000A36A9B0103D51B48452104F0D2FDA36A9F
:10173000DC0103D51848452104F0CBFD134CA36A06
:10174000180303D51548452104F0C3FDA36A5903C6
:1017500003D51348452104F0BCFD0C4CA36A9A0341
:1017600003D51048452104F0B4FDA36ADB0303D57B
:101770000D48452104F0ADFD044A936A6FEA034326
:101780006FEA13439362002010BD00BF00ED00E03C
:10179000C0730000DD730000F573000014740000D6
:1017A00037740000617400008074000070B5234C31
:1017B00006460D462248452104F08BFDA36AD90454
:1017C00003D52048452104F084FDA36A1A0503D5FA
:1017D0001D48452104F07DFD184CA36A9B0510D5DA
:1017E0001A48452104F075FDA26BA36A180408D5B8
:1017F0001748452104F06DFD1EB1A36A23F4004390
:10180000A3620E4CA36A590503D51248452104F082
:1018100060FDA36ADA050BD50F48452104F059FD98
:10182000064A936A002043F47F439362287070BD98
:10183000A36A9B04F4D509484521EFE700ED00E0D9
:10184000B0740000CB74000018730000E174000055
:10185000FF74000019750000397500008C730000DA
:101860002DE9F041554B5F688AB0C7F308040026A4
:1018700086F31188BFF36F8F02F07F43B3F17F4F80
:1018800007D102F00C03082B05D14D48452104F087
:1018900020FD354604E012074EBF0D4605460126E1
:1018A0004FF00008E31E8DF80780092B73D8DFE89E
:1018B00003F005676B6472727272726F3F4F41483A
:1018C000452104F006FDFC6A8DF8078014F002043F
:1018D00005D03D48452104F0FCFC002406E0FB6AED
:1018E000002B1DDA3948452104F0F3FC9DF8073040
:1018F0009BB92022294602A804F0F2FD099B002E84
:1019000056D0C3F3080222B96FEA53236FEA432388
:10191000099302A92046FFF78DFD0AB0BDE8F081CA
:10192000FB6A5B00E2D52A48452104F0D2FCAB6992
:1019300033F8022C4DF602739A420AD097F82830F9
:1019400073B10DF1070201212846FFF773FE04462B
:10195000CCE72A681F48452104F0BBFC2C68C5E78A
:1019600097F829302BB10DF107010120FFF71EFF79
:10197000EDE77B8D9BB2002BB8D0FFF7CBFEE6E7FF
:101980000DF107020021DFE70DF107010020EDE76F
:10199000114845219FE71149114A124817F4F87F71
:1019A00008BF0A46A4F11003452104F092FC94E715
:1019B00023F4FF7323F00103AAE700BF00ED00E06A
:1019C00084750000B4750000D0750000F675000045
:1019D000097600002D7600004E7600005675000056
:1019E0006B75000077760000024A536943F01003DC
:1019F0005361704700ED00E0EFF30880EFF30981D9
:101A000001B57246FFF72CFF01BD00BF044800235B
:101A10002021C2180133302B82F80013F9D170470E
:101A200000E100E0002080F31488BFF36F8F05F021
:101A300069F800200D490860BFF34F8F0C4880F310
:101A4000088800F02BF8202080F3118809484FF413
:101A50000261401880F30988EFF3148002210843E3
:101A600080F31488BFF36F8FFFF760FD94ED00E003
:101A700020600020406000200749D1F8902000231A
:101A8000C2F307221846934200D17047C1F898303C
:101A9000C1F8A0000133F6E700ED00E008B572B62A
:101AA000002383F31388FFF7E7FF144B4FF0FF3257
:101AB000C3F88020C3F88420C3F88820C3F88C20A2
:101AC000C3F89020C3F89420C3F89820C3F89C2052
:101AD000C3F88021C3F88421C3F88821C3F88C217E
:101AE000C3F89021C3F89421C3F89821C3F89C212E
:101AF00062B6BFF34F8FBFF36F8F08BD00E100E008
:101B0000024B034A0348022100F06AB80000042097
:101B100000200020746E0000F8B5234F00268E428E
:101B20000FDA4468002C3CD09BB104F1FF3C14EA6E
:101B30000C0F08D01D483246452104F0CAFB6FF057
:101B400015021046F8BD1F2CF4D905681CEA050FD4
:101B5000F0D1202C0568D0F808C0D2B20FD9B4F16A
:101B6000004F0ED8013CB4FA84F4C4F11F046400A1
:101B7000072A4CEA040406D90D484521DDE708246C
:101B8000F6E73E24F4E725F01F05154345F0100560
:101B900044F00104C7F89820C7F89C500132C7F8F8
:101BA000A04001360C30BAE700ED00E0937600006B
:101BB000BB760000044B0522C3F89420BFF34F8F7F
:101BC000BFF36F8F704700BF00ED00E0BFF35F8F82
:101BD000024B0022C3F89420704700BF00ED00E0E4
:101BE00010B5034C01232278FFF796FF207010BD3B
:101BF0000938002014490868082810B521D8FFF7D3
:101C0000E5FF124C49680022904201F10C0105D118
:101C10000F4B1870FFF7CEFF002010BDC4F89820BE
:101C200051F80C3C23F01F03134343F01003C4F896
:101C30009C3051F8043C43F00103C4F8A030013259
:101C4000E2E74FF0FF30E8E78C6E000000ED00E0C7
:101C50000938002010B54FF02003EFF3118083F313
:101C60001288BFF36F8F114A0123C2F840354FF03D
:101C700080424FF08051C2F87835D1F83041082CBD
:101C800008D1D1F83411052904D8094C615C09B197
:101C9000C2F838364FF080430122C3F8802580F324
:101CA0001188BFF36F8F002010BD00BF00E001401E
:101CB000F97600004FF08043C0B2C3F81C05BFF3B3
:101CC0004F8F0549054BCA6802F4E0621343CB60AD
:101CD000BFF34F8F00BFFDE700ED00E00400FA0501
:101CE00020B1034B800143F001031847704700BF48
:101CF000D06D0000084B70B5C31A0D4607499B1004
:101D0000044659430648402204F01AFC2B4601467B
:101D10002046BDE87040184728360020B76DDBB676
:101D2000586B000073B50C4C0C4A4023041B009305
:101D30000D460B460A49A41061430646094804F0C3
:101D40002CFC011E05DA30462B4602B0BDE870407F
:101D5000184702B070BD00BF283600200D66000095
:101D6000B76DDBB6586B0000002270B50121044648
:101D70001046FFF7BFFB0020FFF78AFB0F4801F07A
:101D8000EBFA0F4B984215D104F0C7FD26690D49B7
:101D9000304604F041FA00280BDB2469094901258B
:101DA000356404F11C0004F037FA002801DBE56417
:101DB000002070BD6FF00400FBE700BF051E0000AF
:101DC0000000AD0BDC6E000073B50C2301460B4820
:101DD0004B43C418D4E90E5200264033A66318447E
:101DE000019204F09AFB35B1019A05482B4602B0E6
:101DF000BDE87040184702B070BD00BF2836002013
:101E0000586B000010B1012804D07047034B1B6CC5
:101E10005B0701D1FFF7D8BF704700BF283600200D
:101E200008B54FF02003EFF3118183F31288BFF35D
:101E30006F8F124A136843F0020013F00103106021
:101E40000CD04FF08042D2F80C34D2F80C2413F0AE
:101E5000010303D00A4804F060FB012381F31188D9
:101E6000BFF36F8F23B1BDE808400020FFF7ACBF80
:101E7000BDE80840012004F05ABD00BF78360020BC
:101E800068360020094BBFF35B8F53E8002F22F028
:101E9000020143E800100028F7D1BFF35B8FD3079E
:101EA00002D4012001F068BA704700BF78360020E4
:101EB0002DE9F8433749BFF35B8F0746012251E80C
:101EC000003F41E800200028F9D1BFF35B8F33B910
:101ED000314932484B60CB608A6004F0B0F97B1E18
:101EE000012B31D8012F07D14FF08043D3F81C3498
:101EF00003F00303012B27D004F0CCFD044618B9EE
:101F0000274B1B78002B3DD14FF02003EFF31186B8
:101F100083F31288BFF36F8F0124DFF888904FF0AE
:101F200080454FF00108D5F81834D5F81824D203AD
:101F30000CD503F00303012B01D0012F06D1DCB136
:101F400086F31188BFF36F8FBDE8F8833046FFF743
:101F500067FAD5F81835002BE5D1D5F80421002A09
:101F6000E1D0C5F80431D5F80431C5F81885C9F8B1
:101F70008081C5F80880D6E74FF080430222C3F87D
:101F80000423E1E74FF080430222C3F8082306460A
:101F9000C3E700BF7C3600201836002044360020FE
:101FA0000D38002000E100E030B54068047B01F00E
:101FB0001F05B2F5005F45EA441585B04FF00004F7
:101FC00004D1284601F088FC002032E0B2F5804FB1
:101FD000CDE902442FD1B3F5003F0CBF0423052304
:101FE0008DF80830836823FA01F1C9072FD4B2F5C0
:101FF000A03F2CD16A09012A05F01F031C4A03F5F2
:10200000E07318BF4FF0A04252F82330DB071ED414
:102010000DF107042146284601F0C2FB154B9842FA
:1020200014D1204601F00AFC134B98420ED06FF0F9
:102030000B0005B030BDB3F5C02F05D0B3F5003FA0
:102040000CBF02230123CBE70323C9E7039400233A
:10205000194602AA284601F07DFA074B984204D19E
:102060000121284601F0F0FBAEE76FF00400E0E745
:10207000000300500400AD0B0000AD0B10B501F0E3
:10208000CDFB044668B901F0A1FB084B98420AD188
:102090000748214601F07EFB224605210620FFF776
:1020A00029FA002010BD6FF00400FBE70000AD0B23
:1020B000B5200000430970B502D0012B15D070BDCA
:1020C0000B4E336959680029F9D000F01F03012530
:1020D0000C689D408A682A4002D04B683046984779
:1020E000002CECD021462468F4E7024EE9E700BF5B
:1020F000706B0000886B00002DE9F04347683B7B64
:1021000001F01F0585B00E4645EA43151446CAB9CD
:1021100002A9284601F044FB0446284601F004FCCD
:10212000484B984204D06FF0040005B0BDE8F0833E
:10213000844205D19DF8080001F07AFBA042F2D15B
:102140000020F2E74FF000090DF103013046CDE920
:10215000029901F025FB4B46804602AA49462846D3
:1021600001F0F8F9374B984202D06FF01500DCE728
:10217000804503D19DF8030001F05AFBA3054ED51D
:10218000314B324A234093423AD00CD8062B14D01C
:1021900004D893B1022BE8D104230EE0B3F5801FDD
:1021A000E3D1012309E02A4A93422BD0B3F5A00FD3
:1021B0002AD0B3F5800FD8D102238DF8043084F4EF
:1021C0008073C3F30023E0068DF8053054BFC4F3D9
:1021D0004013032321058DF8063017D57B680121B4
:1021E00001FA06F6C3F80865002201A9284601F0A5
:1021F0005FFA144B984214BF6FF01500002094E76B
:102200000723DAE70523D8E70323D6E7620541BFB2
:102210007B68012101FA06F6C3F80C65E4E7E306E2
:102220004FF0000354BFC4F3401403241A4601A91D
:1022300028468DF8044001F08DF9024B98423FF496
:102240007FAF92E70000AD0B0600F0000600100023
:102250000200400000F1744000F5A6000A289ABF71
:10226000024B33F910006FF00F007047407100000F
:10227000024B0B6001231360704700BF2C6F0000FE
:1022800000487047346F00004FF0805310B5D3F80A
:102290003031082B0ED1084C23785BB9026907490D
:1022A000406801F05FFDFFF7D5FFB0FA80F35B09EE
:1022B000237010BD0020FCE70A380020CF66000024
:1022C00037B50D464168B1B1D1E900138468A4B1B6
:1022D000D4E9002494B18BB19C4208D10133092B7D
:1022E00000780ED902465721114803F0F2FF6FF033
:1022F000150003B030BD0B46E8E722460133234406
:10230000EDE78DF8013001238DF800008DF80230E3
:102310008DF80330684600238DF804308DF80550A1
:1023200001F008FE03B0BDE83040FFF793BF00BFE7
:102330002D7700000C4B994210B5044610D14FF098
:102340002002EFF3118382F31288BFF36F8F1846D8
:10235000237833B10023237080F31188BFF36F8F8C
:1023600010BDFFF75DF8EAE70000AD0B4FF08053BA
:1023700010B5D3F83031082B12D10C4C01F01AFEF5
:10238000A0420ED14FF0A0430322C3F844274FF4DC
:102390000032C3F8082501F031FE054B00221A7007
:1023A00010BD4CF2503004F07BFBE7E70000AD0BB2
:1023B0000A3800202DE9F04F814685B00E461C46B4
:1023C00017467AB1002B00F093800029426803DBA6
:1023D0009269CB18934208D9464823463246452194
:1023E00003F077FF6FF015057CE0FFF74DFF054622
:1023F000002875D1754205F00305A54228BF254682
:102400007B4203F0030307F0030B58BFC3F1000B3B
:10241000CBF1000B0BF0030BA34528BFA346631BB6
:10242000A4EB0B0424F0030423F00308A045C8BF69
:10243000A04603F0030AC8BFA3EB040AB8F1000FDB
:1024400018D007EB0B03721941461846019304F0AC
:102450000FFB04460146D9F81000FFF76BFF264A30
:10246000944239D15D4505D0019B42461946781901
:1024700004F01EF8B5B1321F2A44042102A804F06A
:10248000F7FA04460146D9F81000FFF753FF1A4B3C
:102490009C4221D1C5F1040102AB2A4619443846B9
:1024A00004F01EF8BAF1000F20D00821721942443E
:1024B0000DEB010004F0DCFA04460146D9F81000E7
:1024C000FFF738FF0C4B9C4206D108EB0500524643
:1024D00002A9384404F004F82046FFF7BBFE054685
:1024E000FFF744FF284605B0BDE8F08F024CF3E744
:1024F0001D46F7E7557700000000AD0B2DE9FF47BB
:1025000006460F461D4690469AB193B1042B01D959
:102510009A070ED1BB070CD1002F726803DB9269BA
:102520007B19934208D934482B463A46452103F09B
:10253000D0FE6FF0150456E03046FFF7A5FE0446C6
:1025400000284ED104F0C7F80446002840D1032DDE
:102550001CD83A460421684604F08AFA044601462B
:102560003069FFF7E7FE254B9C4231D12A464146B0
:10257000684603F0B5FF3A460421684604F075FA50
:10258000044601463069FFF7D5FE21E008F06043BC
:10259000B3F1005F2BD0DFF864A0102DA94628BF4F
:1025A0004FF010094A464146684603F099FF3A4603
:1025B0001021684604F059FA044601463069FFF7D5
:1025C000B9FE544504D1B5EB0905C8444F44E4D1E4
:1025D000012004F080F8002C18BF2046FFF73AFED7
:1025E0000446FFF7C3FE204604B0BDE8F0873A4634
:1025F00029464046C2E700BFA37700000000AD0BAC
:102600002DE9F04107468AB0002201212920FEF77A
:1026100071FF7D683A694749284601F0A3FBFFF73F
:1026200019FE041E08DB04F06BF8041E08DA4248A9
:102630002246452103F04DFE20460AB0BDE8F08158
:10264000E4B28DF81040EB7A023B012B38D995F8B3
:102650000A80A8F10308B8F1010F8CBF4FF0000801
:102660004FF00108C4F38013984504AD05AE2AD09D
:102670000121002384F0400407A8CDE906138DF85A
:102680001040059509938DF81C100896FFF718FE69
:10269000044638B904F034F8041E01DBE107F9D42C
:1026A00004EAE474002C0EDA2449254A2548B8F1DE
:1026B000000F18BF0A462346452103F00AFEBBE778
:1026C0004FF00108CEE7FFF751FE00230322CDE9CA
:1026D0000623089338469F2305958DF81C300996EC
:1026E000FFF7D2FD044620B9014607A8FFF7E8FD31
:1026F0000446FFF73BFED4B97E680322294606F163
:102700001C0003F0C4FE0446002895D0B37F039359
:10271000737F0293337F01939DF8123000939DF8ED
:1027200010209DF811300848452103F0D2FD6FF0CC
:10273000120481E7CF660000FC770000F27700000A
:10274000F677000011780000277800002DE9F84F97
:1027500015460A1ED0F80480074605DBD8F8183065
:1027600054199C42914607D933482B46452103F022
:10277000B0FD6FF015042CE0002DFAD042EA0503FD
:10278000C3F30B03002BF4D1FFF77EFD0446F0B931
:1027900003F0A1FF0446D0B9DFF8ACA0D8F8183098
:1027A000AB4219D104F067F9AB46064638693146A9
:1027B000FFF7C0FD214B9E4233D1B5EB0B05D94449
:1027C000ECD1012003F087FF002C08BF0446FFF77F
:1027D000CDFD2046BDE8F88FB5F5803F0AD31FFA3E
:1027E00089F33BB94946012001F05CFC4FF4803B82
:1027F0000646DBE7B5F5805F09D3C9F30B0030B9B6
:10280000494601F04FFC4FF4805B0646CEE72B466D
:102810004A464521504603F05CFD094E4FF0000B3F
:10282000C4E708482B464A46452103F052FD30468E
:10283000FFF710FD0446C4E75E7800000000AD0B12
:102840000400AD0BD0780000AD780000024B0B60A7
:1028500001231360704700BF98360020004870477E
:102860008C6F000010B504F0EEF8034C206004F00B
:10287000E6F86060002010BD9836002037B50C46A1
:10288000204619460193154603F055FF019B40B9B8
:1028900009482246452103F01CFD6FF0150003B0E6
:1028A00030BD33B11A462146284603F019FE0020F8
:1028B000F5E71846F3E700BFFC7800004FF08042D0
:1028C000D2F81015D2F8103501F01E0123F01F03C5
:1028D0000B4343F00103C2F81035024B00221A707B
:1028E000704700BF0C3800204FF08053D3F83031D0
:1028F000082B22D14FF08042D2F8101511F00100C0
:102900001CD0D2F8100501F01E0120F01F00084372
:10291000C2F81005D2F8080158B1D2F8103523F0EA
:102920001F030B4343F00103C2F810356FF08B0017
:102930007047034B01221A7070470020704700BF98
:102940000C3800202DE9F8430E463046194617464C
:102950001C4603F0F0FE48B91B4823463246452189
:1029600003F0B7FC6FF01500BDE8F88344EA0605F4
:1029700015F0030504D01548234632464521EFE7FC
:10298000FCB1DFF8509024F00304AC4205EB0608DC
:1029900006D10F4AD2F80034DB07FBD50020E3E76D
:1029A000FFF7A2FF50B97959404601F0E3F899F8D2
:1029B00000300BB1FFF782FF0435E6E76FF08B00C4
:1029C000D2E72046D0E700BFFC7800001E79000067
:1029D00000E001400C3800202DE9F0410F4615467B
:1029E00004F02DF829460646384603F0A4FEB84602
:1029F00060B3B7FBF6F306FB137323B9B5FBF6F42C
:102A000006FB145444B114482B463A46452103F0C2
:102A100060FC6FF0150413E0AE4211D804F00FF81B
:102A20000E4F0646FFF760FF044660B9404601F0CE
:102A300081F83B780BB1FFF741FFAD1BB044F1D1FA
:102A40002046BDE8F0816FF08B04F9E704482B467F
:102A50003A464521DBE700BF417900000C380020F1
:102A6000FC78000010B501238340114ABFF35B8F4F
:102A7000DC4352E8001F01EA040C42E800CEBEF13C
:102A8000000FF6D1BFF35B8F4FF4803202FA00F0F3
:102A900002F1804202F58052C2F80803BFF35F8F53
:102AA000BFF36F8F0B4214BF0120002010BD00BF89
:102AB000A43600201949F8B5044622F07F4508687D
:102AC000C1E90023A5F50013101AB3F5400F22D277
:102AD000134B1B681A0A1B065E19124B42F10007C2
:102AE000C3E90067012601F085FCA30003F18043E0
:102AF00003F58833D3F84025AA420BD11EB94FF411
:102B00000002C3F84025084B4FF4803000FA04F46B
:102B1000C3F84443F8BD0026E5E700BF20210020AC
:102B2000A8360020082100200010014019B3BFF38F
:102B30005B8F0123104A834052E8001F194342E88B
:102B4000001CBCF1000FF7D1BFF35B8F0B4A4FF4B1
:102B500080338340C2F80433094BBFF35B8F1B689B
:102B6000BFF35B8F23FA00F0C30742BF054B4FF45E
:102B70000032C3F800217047A43600200010014045
:102B8000A036002000E100E00D4B1868010A0006A5
:102B9000BFF35F8F0B4BD3F80435181841F10001D8
:102BA000B3F5801F0AD2084BD3E90023904271EBA2
:102BB000030303D210F1807041F10001704700BFA0
:102BC000A836002000100140082100202DE9F04F18
:102BD0002DED028B85B0164698460546FFF742FF5D
:102BE00008EE100AFFF7D0FFB04271EB08037BD26A
:102BF000474B301A68EB0101984271F1000380F0F5
:102C00008480444B03EB0513D3E902ABD84508BFDE
:102C1000564551D04FEA850909F1804905F1500721
:102C200009F58839BF004FF4803101FA05F3BFB2CE
:102C300026F07F4207F180470193D9F84005364BD3
:102C400007F588371446D3F80415401A20F07F4062
:102C500021F07F4C0128C9F840C507D1CDE90221F8
:102C6000132003F01DFFDDE902212B4B01F1020CC3
:102C7000A4EB0C0020F07F40B0F5000F88BF644645
:102C80000020386038680198C3F8440324F07F407E
:102C9000C9F84005D3F80405814206D0201A02384D
:102CA00020F07F40B0F5000F1CD8A41A24F07F4418
:102CB00014EB060A48F1000B164910982B0101EBA2
:102CC0000512C2E902ABC850119B5360002428468C
:102CD00018EE101AFFF72AFF204605B0BDEC028B54
:102CE000BDE8F08F2046AEE701230C4ABFF35B8FAF
:102CF000AB4052E8001F194342E800100028F8D109
:102D0000BFF35B8FB246C346D6E76FF01504DEE72C
:102D1000010000011021002000100140A036002019
:102D200073B5194B194D00244FF0FF304FF0FF31B0
:102D3000C5F80845C3E902014FF48033C5F80433F0
:102D4000134B02264FF400320121C5F80463112011
:102D5000C3F880212246FEF7CDFB1120FEF798FB39
:102D60000C4A0123AB602B6013600B4B0B4A0093A2
:102D7000019400232046FFF729FF3046FFF798F81B
:102D8000204602B070BD00BF10210020001001409D
:102D900000E100E0A4360020B52A0000FFFF7F001C
:102DA0002DE9F743364CD4F804339A070BD5D4F801
:102DB000043143B1334A0023C4F80431D4F8043158
:102DC0001368013313604FF02003EFF3118283F394
:102DD0001288BFF36F8FD4F80433DB0312D5BFF32F
:102DE0005B8F294B53E8001F21F0010043E80006E8
:102DF000002EF7D1BFF35B8F002939D1D4F84031D1
:102E0000002B35D1002382F31188BFF36F8F63B39A
:102E1000FFF7BAFE4FF02003EFF3118C83F3128813
:102E2000BFF36F8F194BD3E90267B04271EB070212
:102E300028BF4FF0FF384FF0000221BF4FF0FF399D
:102E4000D3E90015C3E902891A6026BF4FF4803325
:102E5000C4F8483311468CF31188BFF36F8F21B14A
:102E6000009532463B460020884703B0BDE8F0831A
:102E70000023C4F84031D4F840310123C3E700BF38
:102E800000100140A8360020A036002010210020AC
:102E9000154BB0F1FF3F14BF02461A4613B5541E3E
:102EA000002C1EDD9C42A8BF1C46FFF76DFE0F4B99
:102EB000D3E90013401AB0F5000F28BF00240130F9
:102EC00002190948824228BF024652184FF00000FA
:102ED00007490190009143F10003FFF777FE02B02C
:102EE00010BD0024E1E700BFFFFF7F00202100208C
:102EF000B52A000008B5FFF747FE024B1B68C01A51
:102F000008BD00BF202100200C4A30B513680C4DCD
:102F1000002405EB0311D1F80818C9B221B904B196
:102F200013600360002008E00133072B4FF0010419
:102F3000EFD9036013606FF01B0030BDAC3600208A
:102F400000E00140034808B5452103F0C2F9002024
:102F5000FEF7B0FE6F7900008168054A08B51039A8
:102F6000102303F0E0F9003818BF012008BD00BFAE
:102F7000946F000030B50C46816887B0102302AA18
:102F80001039054603F0B3F9002802DA012007B032
:102F900030BD102202A9284603F059FC68B3032370
:102FA0002370A96801230DF107022839284603F090
:102FB0009EF90028EADB9DF8073003F00F021B0999
:102FC0006270237101220DF10701284603F03FFCD6
:102FD00010B96378042B03D9012363700023237194
:102FE000AA68A11C203A284603F056FC0028CDD13F
:102FF000E11C284603F06DFCC9E70549102202A830
:1030000003F045FA002814BF02230123C8E700BFDC
:10301000946F00002DE9F04385B06946032003F06A
:103020005CFC002836D102A9012003F056FC0128DF
:103030002ED103238DF808308DF80B309DF8005009
:103040009DF808609DF803709DF80B809DF8029034
:10305000164A00241078294603F00AFCF0B1507893
:10306000314603F005FCC8B19378042B01D0BB4274
:1030700014D1D378042B01D043450FD11379042BFD
:103080000AD15079831E022B04D805B0BDE8F08325
:103090000028D3D0FF20F8E74B45F2D00134032CB1
:1030A00002F10602D6D10120EFE700BF91790000BE
:1030B0004FF08053D3F83021082A06D1D3F83431A9
:1030C000052B02D8024AD05C70470020704700BF31
:1030D000A9790000024AD2F80034002BFBD07047D7
:1030E00000E0014010B503F00CFC40B14FF080430C
:1030F0000022C3F80C21C3F81021C3F8382503F0CF
:1031000000FC002846D04FF08052654BD2F80414E2
:10311000C3F82015D2F80814C3F82415D2F80C14FB
:10312000C3F82815D2F81014C3F82C15D2F81414CB
:10313000C3F83015D2F81814C3F83415D2F81C149B
:10314000C3F84015D2F82014C3F84415D2F824145B
:10315000C3F84815D2F82814C3F84C15D2F82C142B
:10316000C3F85015D2F83014C3F85415D2F83414FB
:10317000C3F86015D2F83814C3F86415D2F83C14BB
:10318000C3F86815D2F84014C3F86C15D2F844247B
:10319000C3F87025FFF78CFF18B1424B424AC3F8C1
:1031A0008C26FFF785FF18B1404BFB22C3F818258A
:1031B000FFF77EFF70B14FF080414FF08053D1F8A0
:1031C000E42ED3F8583222F00F0203F00F0313431A
:1031D000C1F8E43EFFF76CFF20B1354B4FF40072AD
:1031E000C3F8402603F08DFB48B14FF08043D3F87D
:1031F0000024D20744BF6FF00102C3F800242D4A17
:10320000D2F8883043F47003C2F88830BFF34F8F90
:10321000BFF36F8F4FF08053D3F83021082A0ED1BF
:10322000D3F83431052B02D8234AD35C3BB14FF09D
:103230001023D3F808224FF08043C3F858254FF0ED
:103240001023D3F80022002A03DBD3F80432002B2A
:1032500022DA1A4901234FF01020C1F80435122454
:10326000FFF738FFC0F80042FFF734FFC0F8044210
:10327000FFF730FF0023C1F80435FFF72BFFBFF342
:103280004F8F0C490E4BCA6802F4E0621343CB60C7
:10329000BFF34F8F00BFFDE70A4B0B4A1A6010BD0A
:1032A00000C00040005000404881030000F0004092
:1032B0000090024000ED00E0A379000000E0014032
:1032C0000400FA050C2000200090D00370B5012501
:1032D0000368B3FA83F2202AC2F11F0414D0BFF3AB
:1032E0005B8F05FA04F223EA020250E8006F9E4267
:1032F00004D140E8002CBCF1000FF6D1BFF35B8F86
:10330000E6D102480C7070BD0148FCE70000AD0B2F
:103310000200AD0B0368CB40DB0710B515D40123C9
:1033200003FA01F10368BFF35B8F41EA030250E83F
:10333000004F9C4204D140E8002CBCF1000FF6D1B4
:10334000BFF35B8FEED1024810BD0248FCE700BF1F
:103350000000AD0B0400AD0B044B1A7922B9012219
:1033600018609A800248704702487047B0360020C3
:103370000000AD0B0C00AD0B38B510B1012817D013
:1033800038BD4FF080440223C4F80833C4F8040168
:10339000D4F804310123E36042F21075D4F81834F4
:1033A000DB03EDD5012003F0B6FA013DF6D1E7E7E6
:1033B0004FF080440023C4F80803C4F80031D4F867
:1033C0000031606042F21075D4F80C34D4F80C244B
:1033D000D20303F0010305D523B1012003F09BFACA
:1033E000013DF1D1014B00225A71C9E7B0360020EE
:1033F0004FF0804310B5D3F800216AB10022C3F822
:103400000021D3F800210122C3F80823114B587979
:1034100010B95A711B6898474FF08043D3F80421C4
:1034200072B10022C3F80421D3F80421D3F8182480
:10343000D3F81814920704D10122C3F818259A6012
:1034400010BD0222C3F80823024BBDE810401B68E0
:1034500001201847B0360020036803F01F025B0903
:10346000012B0260024818BF4FF0A040704700BF18
:1034700000030050034B083033F81000C0F3401035
:10348000704700BF1020002070B500F108030C4CFD
:1034900034F81330DA0505460E4607D5C3F3432347
:1034A00004EBC30254F8333052689847A3682BB139
:1034B000E26831462846BDE87040184770BD00BF3D
:1034C00010200020134A083010B432F81030D9050B
:1034D0001CD5C3F3432123F4F85322F8103002F132
:1034E0001004002034F8023B13F4807F03D0C3F3B0
:1034F000432399420AD001303028F3D1002342F807
:10350000313005485DF8044BFFF704BF5DF8044B0C
:10351000704700BF102000208420002038B50246EC
:10352000FFF7A8FF094C02F1080540B134F8153047
:1035300007495B0B03F5A273002041F823001046F6
:10354000FFF7C0FF002324F8153038BD10200020FD
:10355000006000402DE9FF41044617461D4621B397
:103560004E4E00F1080836F818309B0706D5FFF7D5
:1035700081FF18B14A4804B0BDE8F0810023CDE9CD
:1035800000338DF80E308DF80F300DF10F020B4621
:1035900020460DF10E0103F0F6F936F8183023F04D
:1035A000020343F0010326F8183097B13B4B3E78F5
:1035B0007A6804F1080033F810108F070CD5002A40
:1035C000D8D133F8102022F01C0242EA860223F8F8
:1035D0001020CDBB3348CEE721F02001C904C90C2F
:1035E00023F81010002AECD0032EC3D817782EB978
:1035F0002D4A07F5A27142F82160E2E7BA0002F114
:10360000804202F5C04241EA4731D2F810C52CF0A1
:10361000030CC2F810C5D2F810C52CF44F3C2CF4A2
:10362000407CC2F810C5D2F810E54FEA042C0CF427
:103630007C5C4EEA064E4CEA0E0C41F0200123F869
:103640001010C2F810C5BCE7D5E900672046FFF7A7
:1036500039FF002EBED0114D2B689E4204D16B68FD
:103660009F4201D100220AE010480DF10F01FFF73F
:103670002DFE0C4B98427FF47EAF9DF80F2045F84D
:10368000326005EBC20308345F6035F8143043EA5A
:10369000422343F4807325F814309BE71020002068
:1036A0000400AD0B0000AD0B006000408420002042
:1036B000F0B5044685B0154619B3334E00F108073E
:1036C00036F81720930703D4FFF7D4FE002858D10B
:1036D00012F01C0F02D04B78012B52D001238DF831
:1036E0000F300023CDE900134A1C8B1C20460DF13E
:1036F0000F0103F048F936F8173043F0030326F8BA
:10370000173015B9214805B0F0BD1F4E04F1080768
:1037100036F81700830734D595F800C06146890054
:1037200020F0200001F18041C00401F5C041C00C2F
:1037300026F817000023C1F810356A78002AE1D076
:10374000D1F81035AD7823F4991323F4F853C1F868
:103750001035D1F810E5230203F47C53120402F46F
:10376000403243EA0E0313432A0502F4801240EA72
:103770004C30134340F0200026F81700C1F81035F4
:10378000C0E70348BFE700BF102000200000AD0BDA
:103790000400AD0B014BC3E902017047102000206B
:1037A00008B50246FFF766FE38B1054B05480832FA
:1037B00033F812305B0B0B7008BD0348FCE700BF09
:1037C000102000200000AD0B0400AD0B38B50F4CED
:1037D00094F87850BDB96022294604F1100002F037
:1037E0008AFE0620FDF754FE094B0A48C3F87C51B7
:1037F000D3F87C214FF00042C3F80423012384F85E
:103800007830636738BD0448FCE700BF1020002013
:10381000006000400000AD0B0500AD0B034B93F8BA
:103820007800003818BF0120704700BF102000202A
:1038300001460148FFF76EBD802000200146014887
:10384000FFF744BD8020002037B50446FFF712FE85
:1038500004F108021E4B33F81230E8B113F00205F0
:103860001AD15B0B9A0002F1804000F5C24002F1D0
:10387000804202F5C04205600068D2F8100540F0B1
:103880000100C2F8100529B1012202FA03F3114A1E
:10389000C2F8043303B030BDC3F38203042B12D04B
:1038A000052B12D001A80194FFF7D6FD019BD0F89B
:1038B0001015D94001F001010231204603B0BDE8E6
:1038C000304003F0A7B80321F7E70221F5E700BF76
:1038D000102000200060004008B50246FFF7CAFD36
:1038E000C0B102F108010E4B33F81130990711D421
:1038F0005B0B01229A409B000A4903F1804303F5C8
:10390000C043C1F80823D3F8102522F00302C3F8FE
:10391000102508BDBDE808400021104603F07AB824
:1039200010200020006000400E4B00F1080213B58B
:1039300033F81230DB07044611D5FFF7CDFF2046E0
:10394000FFF7ECFD01A80194FFF786FD019B03F54D
:10395000E073022240F82320034802B010BD034860
:10396000FBE700BF102000200000AD0B0400AD0BF2
:103970002DE9F04F644B65486549002687B0012268
:1039800034461D6835B1D0F8045315421EBF1C6083
:103990001D68164304338B424FEA4202F1D1DFF82F
:1039A0006C81D8F87C31002B00F091804FF0A0435F
:1039B000D3F820250492C3F82025D3F820280592B7
:1039C000C3F8202800270DF110097B0100934FF068
:1039D000010A49E0009B4F4A94FAA4F4B4FA84F433
:1039E0001C4404F10803E00832F81330039404F097
:1039F00007020AFA02FC19F8002022EA0C0209F870
:103A0000002003A8C3F382059908FFF725FD039A58
:103A100002F5E0724B0750F82220AB46C2F3014298
:103A200029D520465946D5B2FFF72EFD03A80394A9
:103A3000FFF712FD039B03F5E07350F82330C3F347
:103A400001439D4207D10021204602F0E3FF2946B1
:103A5000204602F0DFFF03A80394FFF7FDFC039B61
:103A60000AFA03F3C0F8203559F82740002CB1D1E9
:103A7000CFB90127A9E7022A0CBF03210221204662
:103A8000019202F0C7FF032D04D0019A022A06D149
:103A9000012DE0D159462046FFF7F6FCDBE7032A6B
:103AA000D9D1022DF5E7C8F87C41D8F87C311A4904
:103AB0004FF0A043D3F820250492C3F82025D1F875
:103AC00020350593C1F8203513437FF47BAF0124E3
:103AD00016B907B0BDE8F08F96FAA6F3B3FA83F3F0
:103AE00004FA03F29B0003F1804303F5C04326EA86
:103AF0000206D3F81005D3F81015C0F30520C1F362
:103B00000141FFF7C1FCE3E70061004000600040B5
:103B1000206100401020002000030050044AD2F829
:103B20000034DB07FBD50160BFF35F8F704700BF38
:103B300000E001404FF080531A69B0FBF2F302FB42
:103B4000130373B9084B0222C3F80425C3F8080510
:103B5000D3F80024D207FBD500220448C3F804257B
:103B600070470348704700BF00E001400000AD0B04
:103B70000A00AD0B10B5054C0123C4F80435FFF75E
:103B8000CDFF0023C4F8043510BD00BF00E00140A4
:103B9000036803F01F025B09012B0260024818BF93
:103BA0004FF0A040704700BF0003005070B500F018
:103BB0006044B4F1005F4BD1840749D1264C94F89E
:103BC0003050012D01D09D4244D12568002D2ED0CA
:103BD000A6682EB3E0606161E26100261F4C022BF3
:103BE0000BBFC4F81025C4F80425C4F81405C4F8A4
:103BF000080507BFC4F818150823C4F80C150423DA
:103C0000BDB903F1804303F524330122C4F8005108
:103C10001A60124AD2F80031002BFBD0104870BD58
:103C2000A0602161A26184F830300126D6E72E46DB
:103C3000D4E7002EF2D0094903F18043002203F5B6
:103C40002433C1F800210122C1F804231A60E5E7FA
:103C50000448E4E70448E2E7B83600200090024058
:103C60000000AD0B0A00AD0B0B00AD0B38B5074DD6
:103C70006424D5F8003133B90A2002F04CFE013C2F
:103C8000F7D1034838BD0348FCE700BF009002406D
:103C90000700AD0B0000AD0B084B9A685A621A6919
:103CA0009A629A69DA62DA689A6032B15A691A617C
:103CB000DA699A610022DA6070477047B8360020EE
:103CC0000E4B0238D3F83C26D3F83836072813D8E1
:103CD000DFE800F0110F0D0B0A080604100EC87182
:103CE000100C8871100A48710A711A0ECA701A0CE9
:103CF0008A701A0A4A700B70704700BF0090024029
:103D0000023807281FD8DFE800F0292725112321D2
:103D10001F04CB791B068A7943EA02434A7943EAB6
:103D200002230A7913430E4AC2F83C36CB781B06AD
:103D30008A7843EA02434A7843EA02230A78134323
:103D4000074AC2F8383670470023E4E70023E5E766
:103D50000023E6E70023EBE70023ECE70023EDE791
:103D600000900240F7B56F4E96F830300446154685
:103D7000002B40F0D280C27C1AB1037D002B40F0B2
:103D800084802379FF2B00F0CB806079FF2800F03E
:103D9000C780A079FF2800F0C380E079FF2800F0F9
:103DA000BF80002A42D101A80193FFF7F1FE019BD9
:103DB00003F5E07340F2023740F8237001A86379FD
:103DC0000193FFF7E5FE019B03F5E07340F82370D4
:103DD00001A8A3790193FFF7DBFE019B03F5E073D4
:103DE00040F8237001A8E3790193FFF7D1FE019B0E
:103DF00003F5E07340F82370237AFF2B08D001A865
:103E00000193FFF7C5FE019B03F5E07340F82370B3
:103E1000637AFF2B0AD001A80193FFF7B9FE019B3B
:103E200003F5E07340F2023240F82320237D63BBA8
:103E30002379FF2B18BF1A463B4B08BF4FF0FF32C8
:103E4000C3F824256279FF2A08BF4FF0FF32C3F878
:103E50002825A279FF2A08BF4FF0FF32C3F830258A
:103E6000E279FF2A08BF4FF0FF32C3F83425227AE7
:103E7000FF2A08BF4FF0FF32C3F83825627AFF2AC5
:103E800008BF4FF0FF32C3F83C25274A2368C2F829
:103E90004035237BE77AA07A9B0143EAC7030343BB
:103EA000607B002814BF802000200343C2F8443503
:103EB000D2F80036A07B94F810C0677C23F07F43D3
:103EC00023F0FF030343E07B43EA4C63002814BF65
:103ED0004FF08070002043EA07730343C2F80036B6
:103EE000E37C86F831300123C6E90015C2F80833B7
:103EF00011B12920FDF7CCFA0B4B01220021C6E9B4
:103F0000021186F83020C3F80025C3F800111A60AA
:103F100003B0BDE8F040FFF7A9BE044803B0F0BD10
:103F20000348FBE7B8360020009002400500AD0BC7
:103F30000400AD0B70B51446194A92F83020012ADE
:103F400005462BD1174E0022C6F8002111B140784A
:103F5000FFF7D6FE0123C6F80833AB786A781B0357
:103F600043EA02232A781343EA7843EA42332A7960
:103F700043EA82336A7943EAC233C6F83436FFF73C
:103F800075FE094B98420AD00023C6F800311CB1D7
:103F900068782146FFF794FE044800E0044870BDAD
:103FA000B8360020009002400700AD0B0000AD0BBA
:103FB0000B00AD0B1FB500238DF807300C4B0DF136
:103FC0000702186802909B88ADF80C30114602A8D1
:103FD000FFF7B0FF074B984206D19DF8073013F06A
:103FE000010F054B18BF184605B05DF804FB00BF74
:103FF000C06D00000000AD0B0B00AD0B2DE9F041D2
:104000002920FDF755FA244B244DD3F8342602F429
:104010004032B2F5803F04BF214AC3F834264FF046
:1040200080510122C3F808231A61D1F83011082900
:1040300008BF5A65184B0022C3F80025C3F80021B9
:1040400095F831201ABBD3F82405D3F82885D3F886
:104050003075D3F83465D3F83845D3F83C15C0B281
:1040600002F0F5FC5FFA88F002F0F1FCF8B202F021
:10407000EEFCF0B202F0EBFCE0B2FF28C9B201D0D6
:1040800002F0E5FCFF2902D0084602F0E0FC002324
:1040900085F83030BDE8F08100900240B83600204D
:1040A000000103008B0710B520D1124A14681CB11F
:1040B00092F83030012B1BD1042382F830300E4BA4
:1040C000C3F81C150021C3F82005C3F80011012115
:1040D000D96044B9D3F800110029FBD0012382F83C
:1040E0003030064810BDC3F80413FAE70448F9E776
:1040F0000448F7E7B8360020009002400000AD0BFE
:104100000A00AD0B0B00AD0B174BD3F8002110B517
:10411000E2B10022154CC3F8002194F83020032AA4
:1041200015D0042A15D0022A04D1012384F82030A6
:10413000FFF7B2FDA36813B9012384F83030D4E946
:10414000003100209847002384F8203010BD02235E
:10415000ECE7032284F82020D3F81C256262D3F810
:10416000203584F82830E5E700900240B83600207A
:104170000E4B70B553F82040013053F82060A64232
:1041800000D870BDD4E900352846984765B1EB6882
:1041900030B10028B8BF4042FF28A8BFFF201870E8
:1041A0005A7842F001025A700834E8E7A46F000020
:1041B00070B5054610B90024204670BD0378002B69
:1041C000F9D00E4C0E4EB44208D10C4CB442F2D091
:1041D000204602F055FC50B91834F7E7204602F0AB
:1041E0004FFC10B12368AB42E6D01834EBE72168EE
:1041F000284602F040F90028EED1DDE7586B0000B8
:10420000D06B000073B504460D464FF02003EFF36A
:10421000118683F31288BFF36F8F042896BF124B69
:10422000124B53F8203000220092452102461048DC
:1042300002F04FF83DB1EB69C3F308031BB10D4821
:10424000452102F046F80C4B0C480022452102F0B3
:1042500040F829462046FEF775FE86F31188BFF325
:104260006F8F02B070BD00BFB86F0000AF79000063
:10427000BD790000EA790000107A0000187A000089
:1042800008B5094B012202201A70FFF771FF02F0F6
:104290000BFC0320FFF76CFFFCF7B4F8034A137B19
:1042A00023F00103137308BD0D38002028210020DE
:1042B0000248034A0021121A02F01DB90821002009
:1042C0001038002008B5194B83F30888184C63692F
:1042D00043F4007363610025E02384F82230E5771E
:1042E00025766576A57684F82050636A43F4E0234A
:1042F000636284F82350FDF777FBFDF77DF84FF0FC
:10430000FF33A362E362FDF775FCFDF7F9FB02F0F2
:10431000B6FB2846FFF72CFF0120FFF729FF0548D1
:104320002B462A462946FDF755F900BF6068002054
:1043300000ED00E08142000008B50648064A074942
:10434000121A02F0CDF8BDE80840054A05490648B2
:1043500002F0C6B80020002008210020847A000066
:1043600000000000847A000000200020034B1B683E
:104370000BB9FEF7BFBD0020704700BFEC36002030
:104380000E4B10B51C689C4208BF0024FFF7EEFFDF
:1043900002466CB1D4E90401801A61EBE272012893
:1043A00072F1000307DBB0F1004F72F1000301DB93
:1043B0006FF0004010BD0020FCE700BF8C20002003
:1043C00030B5036868B10A4A5268904209D043B1D7
:1043D000D3E90421D0E90445121941EB0501C3E9F1
:1043E0000421426813605A600023C0E9003330BDE5
:1043F0008C2000202DE9F8434FF02003EFF31184C7
:1044000083F31288BFF36F8F234EDFF89480234D20
:104410003060D8F8000032684045D5E9001E4FEA08
:10442000E2770BD050B1D0E9043C9A4277EB0C090B
:1044300016DA9B1A6CEB070CC0E9043C52184EEBE1
:104440000707C5E9002700253560FFF799FF2946D2
:10445000FEF71EFD84F31188BFF36F8FBDE8F8836C
:1044600059184EEBE377D31A336000220023C0E9DA
:104470000423C5E90017FFF7A3FF84F31188BFF3F6
:104480006F8F836898474FF02003EFF3118483F315
:104490001288BFF36F8FBCE7EC360020A821002004
:1044A0008C20002010B50A4C23681BB10123236027
:1044B000002010BD00F056F80028F7D0013806287B
:1044C00003D8044B53F8200010BD034810BD00BFB3
:1044D000F0360020CC6F0000FE8FFFFFBFF34F8F40
:1044E0000549064BCA6802F4E0621343CB60BFF390
:1044F0004F8F00BFFDE700BF00ED00E00400FA05AC
:10450000F0B4094F094E0A4C0A4A0B4D0B494FF0C3
:10451000FE333B6052683360236000242B60C1F897
:104520000045F0BC104700BF00B4025004B4025074
:1045300008B40250942000200CB4025000A0025095
:10454000D0E90012014BC3E900127047942000200B
:1045500038B131B1014400220346013088421A705B
:10456000FAD1704710B500F033F820B1032400F001
:1045700067F8204610BD00F035F890B900F0B0F8AB
:1045800090B90F4B1B681B0EF02B08D10D4A0E4B38
:1045900012689A420AD0072400F01CF8E7E70624C4
:1045A000FAE70424204610BD0024F5E7012000F0BE
:1045B00097F804460028F7D1044B1860D9E700BFEC
:1045C00028B9025024BA02500000E0200CBA025070
:1045D0000020704700207047014B1860704700BFF3
:1045E00004BA025010B5114800F048F800B110BDEF
:1045F0000F4800F043F80028F9D10E4C204600F097
:104600003DF80028F3D10C4B0C481C6000F036F844
:1046100001460028EBD100F02DF8044608B12046F1
:1046200010BD00F03FF82046FAE700BFA8200020A8
:104630009C200020A4200020AC200020A0200020EE
:1046400008B5084800F024F8074800F021F80748AA
:1046500000F01EF8064800F01BF8BDE8084000F026
:104660000BB800BFA82000209C200020A420002020
:10467000A020002000207047704700BF08B5034B02
:1046800002681B6810689847002008BDB820002009
:1046900008B5034B02685B6810689847002008BDA6
:1046A000B820002070B5094C094D2069AB689847C7
:1046B00018B1084B08485B689847084AEB682069BE
:1046C00000211160BDE87040184700BFC8200020DD
:1046D000B820002094200020E86F0000F43600206D
:1046E00070B51A4D1A4E0446B26828699047F0B961
:1046F0005CB1184C2368ABB1012B1AD0013B23608D
:104700002869F3689847002070BD124C216839B9B8
:10471000114B124A0120C3F800051368002BFCD18D
:1047200001312160F36828699847002070BD0C486A
:1047300070BD0A4A1368002BFCD1074A6FF07E4017
:10474000C2F80035FFF748FF2368D7E7C8200020EC
:10475000B8200020F436002000A0025010B902500A
:10476000E98FFFFF10B5044630B16368DB0602D560
:1047700000232360636010BD024B03485B689847C9
:10478000F3E700BF942000200870000068B1436880
:104790003BB1DB0607D5BFF35F8F002303601846EC
:1047A000704703487047034870476FF4E040704714
:1047B000EA8FFFFFE98FFFFF10B5044620B100220A
:1047C00011232260636010BD0148FFF799FEF6E7F0
:1047D00030700000C0B14368A3B1DB0610D50122E0
:1047E000BFF35B8F50E8003F40E800210029F9D17A
:1047F000BFF35B8F012BF3D0BFF35F8F00207047B7
:1048000003487047034870476FF4E040704700BFAB
:10481000E98FFFFFEA8FFFFF30B10268034B0448C6
:104820009A4208BF0020704702487047DD55AABB76
:104830008208F0007108F00038B50D460446B0B1AA
:10484000A0220021043002F049F995B1082229463E
:1048500004F1640002F048F9082205F1200104F196
:10486000840002F041F9044B2360002038BD034866
:10487000FCE70348FAE700BFDD55AABB7108F0006A
:104880008308F0002DE9F74305460E469946114688
:10489000FFF7C2FF0446002840F08480002E00F09D
:1048A0008580002900F08480B9F1200F40F08280DB
:1048B00005F14404082205F10408204602F014F929
:1048C00005F1240708223146404602F00DF906F1B1
:1048D00020010822384602F007F902A94FF480703F
:1048E00041F8049D02F0F4F8002865D1334A4FF4F2
:1048F00080731360012193600823314A00F02EFB7E
:104900000121084605232F4A00F028FB08234246D0
:1049100001211C2000F022FB08233A46012103203C
:1049200000F01CFB224608230121022000F016FBA8
:104930000823254A01211A2000F010FB0523234AF1
:1049400001211B2000F00AFB0823214A0121142029
:1049500000F004FB08231F4A0121152000F0FEFA95
:10496000082305F164020121162000F0F7FA08235C
:1049700005F184020121172000F0F0FA0823164AFD
:1049800001210B2000F0EAFA00F044FB04460198F4
:1049900000F0D2FA114B002C18BF1C46A421284667
:1049A00002F09EF8204603B0BDE8F0830C4CF9E716
:1049B0000C4CF7E70C4CF5E7084CEFE790B00250D1
:1049C000947000000C71000054700000F87000003A
:1049D000B8700000D8700000747000008408F00007
:1049E0007608F0008008F0008108F0000C4BC269E6
:1049F0001A60826943F8042C426943F8082C026962
:104A000043F80C2CC26843F8102C826843F8142C2D
:104A1000426843F8182C026843F81C2C704700BF0A
:104A20005CB602500C4B1B68C3610C4B1B68836166
:104A30000B4B1B6843610B4B1B6803610A4B1B68E4
:104A4000C3600A4B1B688360094B1B684360094BBA
:104A50001B680360704700BF5CB6025058B6025036
:104A600054B6025050B602504CB6025048B60250EE
:104A700044B6025040B6025030B10268034B0448BD
:104A80009A4208BF0020704702487047DD55AABB14
:104A90000202F0000002F00038B5044668B1051DBE
:104AA0007021284602F01CF828462022044902F012
:104AB00013F8044B2360002038BD0348FCE700BF17
:104AC00020710000DD55AABB0002F0002DE9F04383
:104AD000284B04460E4615460FCB85B06F4687E837
:104AE0000F002DB94FF00009484605B0BDE8F0832E
:104AF0002046FFF7C1FF81460028F5D1231D019311
:104B0000636AA3BB236F8BB1C3F14008A84528BFDC
:104B1000A84604F1300031461844424601F0DCFF5B
:104B2000236F434446442367A5EB0805226F402AC0
:104B300006D104F13001384600F0AEFB00232367B4
:104B400005F03F0835F03F0505D031462A46384686
:104B500000F0A2FB2E44B8F1000FC3D0424631460C
:104B600004F1300001F0B8FFC4F87080BCE7DFF852
:104B70000890B9E7B06D00000C02F0002DE9FF418C
:104B8000144B04460E460FCB6F4687E80F002046B5
:104B9000FFF772FF8046B0B9CEB1636A251D01955B
:104BA0003BB901236362226F04F13001384600F003
:104BB00073FB2B46043E243453F8042B12BAA34251
:104BC00046F8042FF8D1404604B0BDE8F081DFF884
:104BD0000880F8E7B06D00000502F000084B1B6884
:104BE0001B0EF02B08D1074B1A68074B9A4205D1D0
:104BF000064B00201860704705207047062070475C
:104C000028B9025024BA02500000E0200CBA025029
:104C1000002230B549001346023840F6FC7502F117
:104C2000A05404F52C44A400904202F10102CABF32
:104C3000236025605B181E2AF1D1044A13600B44DF
:104C40005360034B034A1A6030BD00BF78B0025076
:104C500084B0025020F80F0030B51E4B85B01A46C4
:104C6000196800910099CC07FAD500F1A05000F521
:104C70002C408000016813680193019BD807FAD586
:104C8000154B164C1868164D1F30202390FBF3F07F
:104C90000138002810DA00230130400153B1A0F19F
:104CA00020014FF00042134204D1013888424FEAFC
:104CB0005202F8D105B030BD13680393039BDB07A4
:104CC000FAD5431823602B680293029B002BE3D193
:104CD0000138DEE7B4B00250ACB00250E4B002508C
:104CE000DCB00250F0B51D6885B001F01F040DB9AD
:104CF0001F2C25D1154D2E462F680197019FFF07C8
:104D0000FAD500F1A05000F52C408000006835680D
:104D10000395039DED07FAD50D4D00EB611028605A
:104D20000C48006802901F2C18BFC94302980FBF9F
:104D3000106001F01F0100FA01F1116000211960FB
:104D400010684300C00F136005B0F0BDB4B002504E
:104D5000E4B00250DCB002500C4B18603F3020F041
:104D60003F008901403058609960D96019615961EC
:104D700099611C330648196082B002680192019A59
:104D8000D207FAD5196002B0704700BF90B0025048
:104D9000B4B0025038B5A0F12003B3F5426F054618
:104DA0002CD88F2826D800F1470300F16604DB06D3
:104DB0004FEA541400D0013464013F34A409013493
:104DC00011B1A1421AD30C46E3004FF48050B0FB5E
:104DD000F3F0202828BF202002B11060084B0122E8
:104DE0001A602146FFF714FF28462146FFF7B4FF5B
:104DF000002038BD00F11F046409DDE70148F8E731
:104E00001CB802502221F000F0B5454B89B01D4678
:104E10001C680194019CE407FAD5424BDFF80CE1D1
:104E2000DFF80CC113449B0000241A680B181E2BDA
:104E300088BFC0F11E011F320B1852095343B3F54E
:104E4000806F82BF4FF48061B1FBF2F1091A00F16B
:104E5000A05000F52C402746A14233DC2B68049378
:104E6000049BDB07FAD5304B1B682968059105992F
:104E7000CF07FAD52D4C2E49236000231E469342BE
:104E800003F1010040D120F0010229481946002613
:104E90008A423CD8296806910699CE07FAD5254959
:104EA0000968286807900798C007FAD5216020484C
:104EB00000210C468B422DD11D4900209A422CD84E
:104EC00009B0F0BD2B680293029BDB07FAD50319EA
:104ED0009B001B682E680396039EF607FAD5CEF852
:104EE00000300023934203F1010306D1164623F05C
:104EF0000103B34204D80134AEE7CCF80070F1E707
:104F0000CCF800700136F4E70E600346B7E70660A0
:104F10000131BDE704600131CCE708600133CDE722
:104F2000B4B0025024AC00147CB00250D4B0025093
:104F3000D8B0025078B0025008B540B120280146E0
:104F40004FF0070228BF20210020FFF75DFF024B32
:104F500000221A6008BD00BF1CB80250F0B5294DF0
:104F600085B02C462E680096009EF607FAD500F113
:104F7000A05000F52C408000056820680190019841
:104F8000C707FAD52048214F056002EB8306B242DD
:104F900029D15A1C1D4E22F0010200279A4227D81F
:104FA00023680293029BDE07FAD5194B0B449B0042
:104FB0001B681F335B099A4213D22168039103993E
:104FC000C907FAD5154400219B1A104A0560084606
:104FD0008B4210D85A1C0D4922F0010200209A423F
:104FE0000CD805B0F0BD52F804CBC7F800C0CEE72E
:104FF00037600133D2E710600131E9E7086001331F
:10500000EDE700BFB4B00250D4B00250D8B00250A7
:1050100024AC00142DE9F041814B1D6898682033C1
:10502000A0B01E461A680192019AD707FAD57D4BA7
:105030007D4A1A6032680292029AD407FAD57B4AF6
:105040001A607B4A1446116803910399C907FAD57F
:10505000784A1168C1F3402137680497049FFF071D
:10506000FAD5754F1F6027680597059FFF07FAD58A
:105070001768002900F0CF80B90540F1CC80316875
:1050800006910699CF07FAD56C49196021680791F6
:105090000799C907FAD51168C1F340213768089705
:1050A000089FFF07FAD5664F1F6027680997099F79
:1050B000FF07FAD51268002900F0AF80910540F192
:1050C000AC8032680A920A9AD207FAD5564A1A6018
:1050D00032680B920B9AD707FAD55A4A1A60316890
:1050E0000C910C99CC07FAD55749196031680D918C
:1050F0000D99C907FAD55549196031680E910E9975
:10510000CF07FAD55249196031680F910F99CC0732
:10511000FAD550491960504B1E46196810911099E4
:10512000C907FAD53F4C4D4B236033681193119B4F
:10513000DB07FAD54A4B236033681293129BDF07D3
:10514000FAD5484B23603A4B984619681391139946
:10515000C907FAD5324F386033681493149BDB07C4
:10516000FAD5226033681593159BD807FAD53E4BC4
:10517000236033681693169BD907FAD53B4B2360FF
:1051800033681793179BDA07FAD5394B23603368D6
:105190001893189BDB07FAD5364B236033681993B5
:1051A000199BD807FAD5344B236033681A931A9B9E
:1051B000D907FAD5314B236033681B931B9BDA0761
:1051C000FAD52F4B236000F01DFC08BBD8F8003047
:1051D0001C931C9BDB07F9D53D6033681D931D9B19
:1051E000D907FAD5274B236033681E931E9BDA0735
:1051F000FAD5254B2360D8F800301F931F9BDB079F
:10520000F9D50C4B1B6813F4805F204B08BF184680
:1052100020B0BDE8F0811E48FAE71E48F8E700BF5D
:1052200090B0025080B0025000100251C01F72298D
:10523000B4B0025088B00250C0CF0129C01F0E295F
:10524000C03F002940010249003184A800001649EE
:10525000400108A180440888B0B00250C044708862
:1052600080077A41C0077E4100006A4980061649DE
:1052700040006E490002002100822021408220214E
:105280008082242140A161A100C861510308F1007E
:105290000108F1000208F1002DE9F74F314B446895
:1052A0008046924699461A68002AFCD12E4B9B46AE
:1052B0001A68002AFCD14FF0FF30019100F094FCF5
:1052C000802000F097FC294D294A2A4F2A4E0123BD
:1052D00007202B60A2F59E72C2F83C011360636A3E
:1052E0003B60A36A3360D8F8003042F8043CD8F839
:1052F0000830204698470199D9F80030002BFBD19F
:10530000BAF1000F20D11D4B04221A60D9F80030E9
:10531000002BFBD1DBF800A0BAF1000FFAD1D8F8CE
:105320000C30204698473B6863623368A362144B95
:10533000C3F800A0C3F844A1D9F80030002BFBD17A
:105340002B6003B0BDE8F08F236A012B04BF0C4A29
:1053500013600C4B40201960C3F804A000F050FC0F
:10536000D4E700BF10B9025020BC025018B8025058
:1053700000B90250CCB70250D0B70250C8B70250A3
:1053800084B6025028BC025010B5544B98B0194650
:105390001A680192019AD207FAD5514B514A1A6004
:1053A0000A680292029AD407FAD54F4A1A600A682C
:1053B0000392039AD007FAD54C4818600A68049201
:1053C000049AD207FAD54A4A1A600A680592059AE1
:1053D000D407FAD5474A1A600A680692069AD20795
:1053E000FAD5454A1A600A680792079AD407FAD58F
:1053F000424A1A600A680892089AD207FAD5404AC7
:105400001A600A680992099AD407FAD53D4A1A60C7
:105410000A680A920A9AD207FAD53B4A1A600A68C1
:105420000B920B9AD407FAD5384A1A600A680C9284
:105430000C9AD207FAD5364A1A600A680D920D9A6C
:10544000D407FAD5334A1A600A680E920E9AD20728
:10545000FAD5314A1A600A680F920F9AD407FAD522
:105460002E4A1A600A681092109AD207FAD52C4A6E
:105470001A601A4B19461C681194119CE407FAD55E
:10548000174B1860086812901298C407FAD51A6072
:105490000A681392139AD007FAD5124A1A600A685A
:1054A0001492149AD207FAD51E4A1A600A68159205
:1054B000159AD407FAD51C4A1A600A681692169AE9
:1054C000D007FAD5194A1A600A681792179AD207B4
:1054D000FAD5174A1A6018B010BD00BFB0B002501C
:1054E00080B0025000936521000431904096659091
:1054F0000083612100C3302100C36490008161906A
:1055000000461021008111210041442100C32029BF
:105510000C4610C80086312100C3602140C12829F3
:10552000409665210013319040962529594614C8AC
:105530004004324910B5494B94B019461A6800929C
:10554000009AD207FAD5464B464A1A600A68019279
:10555000019AD407FAD5444A1A600A680292029A5C
:10556000D007FAD5414818600A680392039AD20717
:10557000FAD53F4A1A600A680492049AD407FAD509
:105580003C4A1A600A680592059AD207FAD53A4A47
:105590001A600A680692069AD407FAD5374A1A6042
:1055A0000A680792079AD207FAD5354A1A600A683C
:1055B0000892089AD407FAD5324A1A600A68099202
:1055C000099AD207FAD5304A1A600A680A920A9AEA
:1055D000D407FAD52D4A1A600A680B920B9AD207A3
:1055E000FAD52B4A1A600A680C920C9AD407FAD59D
:1055F000284A1A600A680D920D9AD207FAD5264AEF
:105600001A600A680E920E9AD407FAD5234A1A60D5
:105610000A680F920F9AD207FAD5214A1A600F4BE7
:1056200019461C681094109CE407FAD50C4B1860BE
:10563000086811901198C407FAD51A600A68129286
:10564000129AD007FAD5174A1A600A681392139A69
:10565000D207FAD5144A1A6014B010BDB0B0025087
:1056600080B00250809065210004099040966590BA
:1056700080806121802008218020649000816190D9
:105680000046102100811121004144218020202961
:10569000024610C800860921802060214021282967
:1056A0004096652140962529594614C810B5504B9F
:1056B00096B01C461A680192019AD207FAD54D4B52
:1056C0004D4A1A6022680292029AD207FAD54B4AD2
:1056D0001A604B4A42EA804022680392039AD2073A
:1056E000FAD5186022680492049AD007FAD5454A80
:1056F0001A60A2F5800242EA814122680592059A69
:10570000D207FAD5196022680692069AD007FAD510
:105710003D4A1A6022680792079AD107FAD53B4A98
:105720001A6022680892089AD207FAD5384A1A6095
:1057300022680992099AD007FAD5364A1A60226877
:105740000A920A9AD107FAD5334A1A6022680B9254
:105750000B9AD207FAD5314A1A6022680C920C9A39
:10576000D007FAD52E4A1A6022680D920D9AD107F9
:10577000FAD52C4A1A6022680E920E9AD207FAD5F0
:10578000294A1A6022680F920F9AD007FAD5274A41
:105790001A60216810911099C907FAD51A60144B44
:1057A0001A46196811911199C807FAD5114B204969
:1057B0001960116812911299C907FAD51D4919602B
:1057C000116813911399CC07FAD50B491960116828
:1057D00014911499C807FAD51749196011681591E1
:1057E0001599C907FAD5154A1A6016B010BD00BF41
:1057F000B0B0025080B00250400441900086292988
:10580000D81001C84014419040142129401465214A
:105810000034409000310C90C0400C90C0302029E2
:1058200040960D9000416090031645C800861121F6
:1058300000416021594644C84014459040142D90C1
:1058400070B5264888B0054604680094009CE607B9
:10585000FAD52348234C0460234C44EA83432C6844
:105860000194019CE407FAD50360930143EA824264
:1058700042F0104444F4C0442B680293029BDE07BC
:10588000FAD504602B680393039BDB07FAD5174B0B
:1058900003608B0143EA814141F0104343F4C0436C
:1058A0002E680496049EF607FAD503602B680593CC
:1058B000059BDE07FAD5046041F058412B6806933A
:1058C000069BDC07FAD5016042F058422B6807932B
:1058D000079BDB07FAD5026008B070BDB0B002507C
:1058E00080B00250C0210229807100988061189018
:1058F000354B8EB019461A680092009AD207FAD535
:10590000324B334A1A600A680192019AD007FAD5DD
:10591000304A1A600A680292029AD207FAD52E4AD1
:105920001A600A680392039AD007FAD52B4A1A60C4
:105930000A680492049AD207FAD5294A1A600A68BA
:105940000592059AD007FAD5264A1A600A68069287
:10595000069AD207FAD5244A1A600A680792079A6B
:10596000D007FAD5214A1A600A680892089AD20725
:10597000FAD51F4A1A600A680992099AD007FAD51F
:105980001C4A1A600A680A920A9AD207FAD51A4A79
:105990001A6008680B900B98C007FAD51A600A685D
:1059A0000C920C9AD007FAD5144A1A600A680D9224
:1059B0000D9AD207FAD5124A1A600E210D230F2232
:1059C00000200EB0FFF73CBFB0B0025080B00250D4
:1059D00080430129406339218070012980205421AE
:1059E00000D13490C0403490C0302029C0530D9075
:1059F00000413890832308C880E3102100413821FA
:105A0000CF4308C82DE9F041012392B0CDE903331B
:105A1000624B1D461A680592059AD207FAD5604C6A
:105A2000604B2360604B19461A680692069AD707A6
:105A3000FAD55E4B1A68D60400F1A8802A6807924E
:105A4000079AD007FAD55A4A22600A680892089A3B
:105A5000D207FAD51E68C6F30036002E40F09880B3
:105A60001220FFF7F9F807461320FFF7F5F88742F1
:105A70008CBF12201320FFF7EFF8471EFFF738FF07
:105A800003AB01AA39461220FFF72CF904AB80467C
:105A900002AA39461320FFF725F900EB4800022837
:105AA00032D003283ED0012874D12B680993099B7A
:105AB000DB07FAD53F4B23602B680A930A9BD80774
:105AC000FAD53D4B23602B680F930F9BD907FAD56E
:105AD0003A4B23602B681093109BDA07FAD5384BAA
