:020000040000FA
:1000000080680020391A0000B36500000D1A000056
:100010000D1A00000D1A00000D1A0000000000006B
:100020000000000000000000000000006D1500004E
:100030000D1A0000000000000D1A00000D1A00004B
:10004000ED150000ED150000ED150000ED150000A8
:10005000ED150000ED150000ED150000ED15000098
:10006000ED150000ED150000ED150000ED15000088
:10007000ED150000ED150000ED150000ED15000078
:10008000ED150000ED150000ED150000ED15000068
:10009000ED150000ED150000ED150000ED15000058
:1000A000ED150000ED150000ED150000ED15000048
:1000B000ED150000ED150000ED150000ED15000038
:1000C000ED150000ED150000ED150000ED15000028
:1000D000ED150000ED150000ED150000ED15000018
:1000E000ED150000ED150000ED150000ED15000008
:1000F000ED150000ED150000ED150000ED150000F8
:1001000053B94AB9002908BF00281CBF4FF0FF317E
:100110004FF0FF3000F00CB8ADF1080C6DE904CEE3
:1001200000F008F8DDF804E0DDE9022304B07047D0
:10013000704700BF2DE9F04786468C460846089E6A
:10014000154674461946002B40F0C2808542B2FA2B
:1001500082F245D94AB1C2F1200300FA02FC2EFA1C
:1001600003F3954043EA0C0C94404FEA154EA8B2B5
:10017000BCFBFEF8230C0EFB18CC08FB00F943EA8D
:100180000C43994528D9EB1808F1FF3704D299455B
:1001900002D9A8F102072B44A3EB0903A4B2B3FBD5
:1001A000FEFC0EFB1C330CFB00F044EA0344A042AF
:1001B00014D92C190CF1FF3304D2A04202D9ACF1AE
:1001C00002032C44241A43EA07401EB1D440002302
:1001D00034607360BDE8F0874746DDE76346F1E7CA
:1001E00092BB431B01214FEA154EAFB2B3FBFEFC9D
:1001F000200C0EFB1C330CFB07F840EA0343984528
:1002000062D9EB180CF1FF3004D2984502D9ACF159
:1002100002002B44A3EB0803A4B2B3FBFEFC0EFBCD
:100220001C330CFB07F744EA0344A7424ED92C19B0
:100230000CF1FF3304D2A74202D9ACF102032C44E3
:10024000E41B43EA0040C0E7C2F1200320FA03F1B7
:10025000954090402EFA03F303434FEA154EAFB298
:10026000B1FBFEFC0EFB1C10190C0CFB07F841EA5D
:100270000041884504FA02F422D969180CF1FF30D4
:1002800004D2884502D9ACF102002944A1EB08014F
:100290009BB2B1FBFEFC0EFB1C110CFB07F743EA03
:1002A00001439F420ED9EB180CF1FF3104D29F425B
:1002B00002D9ACF102012B44DB1B41EA004192E779
:1002C0006046E3E76146F7E76046A3E76346B7E7C2
:1002D000834206D916B9002108467BE7C6E900E04B
:1002E000F9E7B3FA83F78FB9834201D3724508D88F
:1002F000BEEB020460EB030301209C461EB9002103
:1003000068E73846FAE7C6E9004CF8E7C7F1200C81
:10031000BB4022FA0CF41C432EFA0CF120FA0CF329
:10032000B84001434FEA14490EFA07F5B3FBF9F858
:100330001FFA84FE09FB18300B0C08FB0EFA43EA87
:1003400000439A4502FA07F240D9E31808F1FF305A
:1003500004D29A4502D9A8F102002344A3EB0A0370
:1003600089B2B3FBF9F809FB183308FB0EFE41EA2A
:1003700003418E452CD9611808F1FF3304D28E4514
:1003800002D9A8F10203214443EA0040A0FB0298ED
:10039000A1EB0E014145CE46434602D306D14D4561
:1003A00004D2B9EB020E68EB04030138002EA6D08C
:1003B000B5EB0E0261EB030101FA0CFC22FA07F324
:1003C0004CEA0303F940C6E9003198E74046C5E727
:1003D0004346D9E77FB51F4B1F4AC3F80026C3F831
:1003E0000426C3F80826C3F80C26C3F81026C3F861
:1003F0001426C3F81826C3F81C2605F0EEFC01A845
:1004000000F0C2FB154B1B68834200D0FEE74FF49F
:100410001041002006F0C1FA00B1FEE769469DF8E0
:10042000080005F0C8FC009B039C1C44019B1D892F
:1004300000F0F0FB66194FF02002EFF3118382F316
:100440001288BFF36F8F635983F3088873689847E6
:10045000FEE700BF000001403546526EA821002093
:100460002DE9F04F1E46DBB0824BDDF8A0B1D3F88A
:100470000080DDE96657144600F096FB7E4B0122B2
:10048000C3F800253AA804F0D5FB35B1002F04DDF0
:100490003A4629463AA805F0FCFE638927891F449D
:1004A000E3684FF000091F444F4525D80DA93AA82D
:1004B00004F032FC704B0022C3F80025C3F800257D
:1004C000BBF1000F04D020220DA9584606F0A6F873
:1004D0000023009332464FF6FF73214607A805F02C
:1004E0007DFC0546D0B930460C9C05F044FD8442A5
:1004F0001FD94FF0FF3511E0659B649AA7EB090AFD
:100500009A4528BF9A4653464946304605F0D4FFDF
:10051000054638B1584B0022C3F8002528465BB089
:10052000BDE8F08F649952463AA805F0B2FED14476
:10053000BAE7DFF850B1DFF840914FF0FF370DF127
:10054000160305AA06A907A805F096FC041EC0F22A
:100550008F8040F08280BDF816A0BAF1100F18D13C
:10056000BDF81450202DC4D106992B463AAA304626
:1005700005F0A2FF044600287AD12A463AA90DA820
:1005800005F0F2FC05463D4B1B688342C6D10125B0
:10059000D5E7BAF1010F3ED1BDF81430202BA8D811
:1005A00006993AAA304605F087FF044600285FD135
:1005B0009DF814300293202B09D8DBF80030304F1F
:1005C0000393039B9C4205DB0023C9F800354FF0E1
:1005D000FF341CE000F0E8FAC9F800A51DA804F0FB
:1005E00029FB7A6857F8081B12681DA805F051FE10
:1005F00015A91DA804F090FB0022C9F80025029A55
:100600003AA915A805F0E3FF18B9C9F8000527466F
:1006100095E70134D5E7BAF1220F90D17B1C8ED03B
:10062000DBF80030BB4215DDBDF81430802B3FF6FF
:1006300060AF06993AAA304605F03EFF0446B8B9C5
:10064000FFB2BDF8143000973AAA20210DA800F09F
:100650001BF880464FF0FF3771E745B1074B1B6829
:1006600043451CBF034BD3F80080454656E70124A1
:10067000254653E70020002000A00250A8210020BA
:100680005C6F0000586F00002DE9F04196B01746EE
:100690001D469DF87020354B0E4653F832100191DF
:1006A00003EBC20380465B68186802AA014430234A
:1006B00001A805F07CFD20B14FF0FF3016B0BDE879
:1006C000F081DDE901431C4403AA06AB214601A8E1
:1006D00005F095FD0028EFD1049A072AECD12449B2
:1006E000059805F074FF0028E6D1079A082AE3D19F
:1006F0002049089805F06BFF0028DDD102AA2146A9
:1007000001A805F068FD0028D6D1DDE901321344C7
:100710009C42D1D1412ACFD13D44302303AA29465E
:1007200002A8029705F043FD0028C5D1DDE9023299
:1007300013449D42C0D32A4602A906A805F0E8FB4F
:100740000028B9D12A4602A90EA805F0E1FB00282D
:10075000B2D1202EB0D101990B78042BACD1334605
:1007600006AA0131404600F037FAA7E75C6F0000A7
:100770001F730000167300002DE9F041314B88B063
:10078000044600200D461E6805F01BFB07A9C0B2F9
:1007900000F0C8FD50BB2946204605F004FC08B314
:1007A0002C2303FB05431B69DB061BD415B394F80C
:1007B0004020237D9A421DD80AD394F84120637DBE
:1007C0009A4217D804D3B4F84220E38A9A4211D24D
:1007D0000021204605F0E7FB60B107988268002100
:1007E00005F094FE0126079805F065FE304608B036
:1007F000BDE8F0812C276F434FF4807300210193F3
:1008000004EB0708104B0093CDE90311079B0291FD
:1008100042460846FFF724FE06460C4BE25907986D
:100820009A420CD1D8F80C20B8F808309B1806D2A0
:100830008268934203D2064B1B68B342D3D0002D8B
:10084000D0D0CBE700200020FC3600203DB8F39646
:10085000A82100202DE9F84FDFF878B01B4C1C4D83
:10086000884691469A4600260B9B9E4201D3002063
:100870000FE00B9B174A9F1BB7F5806F28BF4FF403
:1008800080673B4606EB0A01404605F015FE10B1B5
:100890000120BDE8F88F0A993B465A467118484630
:1008A00005F01FFE0028F3D1C4F800563E44C4F8FA
:1008B0000456C4F80856C4F80C56C4F81056C4F8C8
:1008C0001456C4F81856C4F81C56CDE70000014071
:1008D0003546526EAC3100202DE9F047A74B4362FC
:1008E0000F46A74B0365002188B00446084605F073
:1008F00068FA04F12001C0B200F014FD01210020CB
:1009000005F05FFA04F14C01C0B200F00BFD0546A2
:10091000204605F06EFBC8B900221146204605F0BE
:100920002CFB064670B9204605F0B6FB50B104A872
:1009300005F081FB05F088FB0146D0B904AA2046EA
:1009400005F01BFB012384F8583004E00123984292
:1009500084F85830E0D194F858308DF81730042BD3
:100960002ED8012B2ED800F09A80FF2384F858301F
:1009700095E09DF81780B8F1010F15D1304602F0CF
:10098000F5FB831E022B06460BD841462046FFF797
:10099000F3FE7C4B1B68984203D0012814BF052648
:1009A000012684F85860D6E701212046FFF7E4FECF
:1009B000744B1B6898420CBF9DF817300523C2E7A3
:1009C000052BD0E70121002005F0FBF902A9C0B2F8
:1009D00000F0A8FC002867D00026029805F06BFD07
:1009E00002A9032000F09EFC03A9012000F09AFC5C
:1009F0000025D4F828A0A846C24511D0636A029801
:100A000003EBC8032946D3F804904A464D4405F049
:100A10007DFDB54276D3E56DB6FBF5F605FB0655D3
:100A2000E06D05F0A3FAA26A636A013A196803EB64
:100A3000C20300225E68324490429C46A3F1080340
:100A4000F8D8DCF800300298591A05F05FFD002351
:100A50000195DDE9022100932046FFF7FBFE0546E4
:100A6000E8B9029802F00CFB0546C0B9236D0146B7
:100A70005A68039805F04AFDD4E91423013B02EBC0
:100A8000C30052F83310136842680398C91A05F07E
:100A90003DFD029805F00FFD039805F00CFD94F85C
:100AA0005830FF2B31D1FEE7A36BA58E02981D4471
:100AB00003AA0423294605F0FFFC00288CD1BDF8C9
:100AC0000C20E68E029846F608139A4217D1BDF81C
:100AD0000E309E4280D1042303AA711905F0ECFC6C
:100AE00000287FF479AFBDF80C2046F607139A4230
:100AF0007FF472AFBDF80E301E442E446DE7002E19
:100B0000F1D069E708F1010876E7012B10D004AABB
:100B10000021204605F031FA054648B1E06C05F0A9
:100B2000CAFC206A05F0C7FC284608B0BDE8F0877B
:100B300000212046FFF720FE0646DFF84880D8F85F
:100B40000030984210D1102200210DEB020005F078
:100B500070FD206A05F03FF93871236A5B683C60DC
:100B6000D8F80050BB60D9E7E06C05F0A4FC206A1F
:100B700005F0A1FC002D08BF3546D5E7AC290020C3
:100B8000AC210020A821002038B5064D0446602283
:100B90000021284605F04DFD21462846FFF79CFE22
:100BA00038BD00BFAC35002070B5094D2B780BB1B6
:100BB000002070BD074C0126C4F8006504F0DCF885
:100BC00018B92E70C4F80005F2E74FF0FF30F0E7D7
:100BD000FC37002000A002502DE9F041DFF8308002
:100BE000ACB01F4606460C461546FFF7DDFF012355
:100BF000C8F800352A4633460097214603A806F078
:100C00001EF80023C8F800352CB0BDE8F08100BF05
:100C100000A00250164A4FF0FF3301215160C2F884
:100C20004833C2F8083302F5C0425160C2F8483375
:100C3000C2F8083302F598325160C2F84833C2F85E
:100C40000833A2F508320021C2F80015C2F80833B3
:100C500002F51832C2F80015C2F80833A2F51042A6
:100C6000C2F808354FF08042C2F80833704700BF21
:100C700000B00040014B1B68184700BF0420002053
:100C800007B50B46002102460091034800F014F915
:100C900003B05DF804FB00BF750C00002DE9F047C0
:100CA000058B04462807904611D4022905F0070554
:100CB00040F0CD80204605F016FB78B10138218B3D
:100CC000042811D8DFE800F0C3106D8595000129D4
:100CD0000CBF45F0100545F02005258388F31188E9
:100CE000BFF36F8FBDE8F08701F0070AAA4500F057
:100CF000A6800027B9463E46A368002B00F0BD80C1
:100D000041F00801218388F31188BFF36F8FA16838
:100D1000002900F0BB800D68002900F0B780D1F8F1
:100D20000480334652462046C047002D76D02B68BB
:100D300029461D46F0E701F007035A1F012A1BD878
:100D4000002221F00701062B276889B2C4E900229E
:100D500009D13B4603E0628B013262831B68002BA2
:100D6000F9D141F002012183204605F0BCFA0028A8
:100D70007BD041F0200177E0042B0AD121F007015C
:100D800089B22183204605F0AEFA10B141F020016E
:100D90002183218B01F0070AAA4550D00027B946CC
:100DA000AAE7236921F0070141F00601062DD3F8D7
:100DB000009021832DD1B9F1000F40D041F00801FE
:100DC000218388F31188BFF36F8F3A492046C847C3
:100DD00029E021F00701236941F0040189B2042DC3
:100DE000D3F804902183E6D000273E464FF0040A52
:100DF00082E721F00701236941F0050189B2052D41
:100E0000D3F808902183D6D000273E464FF0050A3C
:100E100072E700273E464FF0060A6DE72B4687E74C
:100E2000B9F1000FD1D14FF02003EFF3118883F314
:100E30001288BFF36F8F238B23F008032383258B46
:100E4000EA062ED525F01003238305F00705666911
:100E5000218B002EBFF66FAF00232768C4E9003353
:100E600021F0070141F001012183218B01F0070AE4
:100E7000AA454FF000097FF43FAF002F9BD041F00F
:100E80000801218388F31188BFF36F8F002FC7D02B
:100E90003D68394633465246204605F050FA2F4603
:100EA000F4E7AB067FF51AAF25F02003238305F0A6
:100EB0000705FFE66B6300002DE9F04F8DB01D467E
:100EC000531E8246019103934FF00009039B58780B
:100ED000252803F1010419D11E4600204FF0FF38E8
:100EE000023603460290444631780396392954D895
:100EF0001F2914D8002900F0ED8101992520D04741
:100F000001993078D04709F10209DFE7002800F0A5
:100F1000E1810199D04709F101090394D6E7A1F1D4
:100F20002002192AE9D801A757F822F0950F0000EE
:100F3000FB0E0000FB0E0000950F0000FB0E0000F2
:100F400015100000FB0E0000FB0E0000FB0E000061
:100F5000FB0E000061100000950F0000FB0E00006A
:100F60007510000021100000FB0E00002F10000083
:100F70004F1000004F1000004F1000004F100000F5
:100F80004F1000004F1000004F1000004F100000E5
:100F90004F10000008460136A6E7582900F0EB8004
:100FA000A1F16302D7B2172FA7D8172AA5D801A796
:100FB00057F822F01D1200009B100000FB0E0000ED
:100FC000FB0E0000FB0E00007B1000009B100000D9
:100FD000FB0E0000FB0E00007B100000FB0E00006B
:100FE000FB0E0000FB0E000051110000FB0E000084
:100FF000FB0E0000F1110000FB0E00009B10000032
:10100000FB0E0000FB0E000051110000FB0E000063
:101010007B10000001992520D04709F1010955E70F
:10102000029A02F0FE0202924FF00008B3E7002C91
:101030000DDAB8F1000F0DDA029A002A00F04281B1
:1010400024EAE4740A2202FB0414303CA3E7B8F15A
:10105000000FF5DB0A2202FB0812A2F130089AE722
:10106000B8F1000F55F8042B80F22E81002A80F28F
:101070002D815442022202928DE7682903D1682B08
:1010800006D1482387E76C2902D16C2B00F0208120
:10109000002B7FF432AF0B467DE77A2B06D1752902
:1010A00055F8046B14D14FF0000B0CE06C2BF6D00C
:1010B0004C2BF4D1073525F007037529D3E9006BD4
:1010C00003F1080506D120283BD1844F013C09E0FB
:1010D0004FEAE67BBBF1000FF5DA7642804F6BEB0F
:1010E0004B0B013C0DF12D03059300230493304677
:1010F00059460A220023FFF703F8049B8E46591E27
:10110000049105993032B44601F8012DBCF10A0F63
:101110005A4672F1000205910646F346E7D2C3F142
:10112000010B30330DEB0306B8F1000FA6F10406F6
:101130006DDA029BD9077CD4A8EB0B03A4EB0B045C
:1011400013E02B280ABF674F674F04F1FF34C9E74C
:1011500070290FD155F8042B0023FAB9634E053CD2
:101160006FF004034FF0050B5F4F029A92076FD4A4
:10117000A04665E078216C2B03D155F8042B0023A1
:1011800008E04C2BF9D1073525F007031D465B68B5
:1011900055F8082B232825D1880621D5544F023C29
:1011A00001F06001A1F1390B0DF12D0E002602F0C6
:1011B0000F01092988BF594430310EF8011D102A4A
:1011C0004FEA121141EA03714FEA131073F1000361
:1011D00006F1FF3C08D2C6F1010B06F13003A1E78E
:1011E000444FDCE7404FDBE766460A460346DEE74E
:1011F00055F8046B304605F0E3F9B8F1000F83466B
:1012000002DB4045A8BFC346374F4FF00008A8EBAC
:101210000B03002B92DDA4EB0804A6E755F8043B72
:101220008DF81830013C4FF0FF334FF0010B06AE44
:101230009AE7A046EBE7029301992020D047029B52
:10124000B8F10108F7D524EAE472013C9144A41AEC
:10125000B84606E0049302920199D047029A049B93
:101260009046424612F8010B0028F3D11A46013A83
:1012700015D5002BACBFC7EB03077F425B46013B94
:1012800015D5BBF1000FA8BF5F444F442646013E71
:1012900014D5002CA8BF3F1907EB080916E60493E4
:1012A000029201993020D047049B029ADFE7029313
:1012B000019916F8010BD047029BE0E70199202025
:1012C000D047E4E70122D6E6904664E6144662E69B
:1012D0004C2360E648460DB0BDE8F08F387700003B
:1012E0009373000095730000FE7B00009D73000067
:1012F000977300009A73000008B54FF02002EFF3D7
:10130000118382F31288BFF36F8F00F0DFFC034874
:1013100004F0DCFF00F06AF8FCE700BFA3730000F4
:1013200001F088BF70B5114B1C680D46DCB1104B45
:10133000196800238B4202DB6FF0010070BD22466A
:1013400012F8106B864202D001331446F2E7E068CF
:1013500010B96FF01200F1E705F057FC0028F8D043
:101360002C600020EAE76FF00C00E7E7082000207F
:10137000686F000070B588B005460C46C0B269467B
:101380001646FFF7CFFF00281BDB0098C8B1436863
:101390000293836822680195CDE903360023CDE9E5
:1013A00006230593C56805F086F86DB128460849FF
:1013B00001AA05F071FA079808B9059B236008B0E7
:1013C00070BD6FF01500FAE76FF01200F7E700BF8D
:1013D00055650000014803F075B900BFFC6F0000BF
:1013E000014910220A60704710ED00E072B64040DB
:1013F00080F31188BFF36F8FBFF34F8F30BF62B69A
:10140000BFF36F8F704700BF72B6494081F31188F8
:1014100020BF80F3118862B6704700BF37B505461C
:101420000C46C9B18B680093D1E900230E484521D1
:1014300005F034F863690093D4E903230B48452190
:1014400005F02CF8E2690A48452105F027F8A26961
:101450000848452105F022F82146284603B0BDE89A
:10146000304002F069BF00BFCC7300000074000080
:10147000347400004874000040B2002807DB044ABE
:101480004109012300F01F00834042F821307047DA
:1014900000E100E040B200280CDB4309064900F0FF
:1014A0001F0020330122824041F82320BFF34F8FD9
:1014B000BFF36F8F704700BF00E100E0054B4209AA
:1014C00000F01F0053F82220012303FA00F010401F
:1014D000704700BF00E100E040B20028A8BF00F163
:1014E000604001F10101B8BF064B4FEA4111ACBFAA
:1014F00000F5614000F00F00C9B2B4BF195480F884
:101500000013704714ED00E030BFFFF7FDBF00BFD0
:10151000144A08B5144B22F07F029A60BFF34F8F34
:10152000BFF36F8FD3F8882022F47002C3F88820AD
:10153000D3F8882042F4A002C3F888204FF040423C
:10154000C3F83422BFF34F8FBFF36F8F0023E1EE58
:10155000103A02F069FF02F0AFFF00F061FA02F00A
:101560006FFF00BF0000000000ED00E01EF0040F60
:101570000CBFEFF30880EFF30980816911F8021CBA
:101580000229FFD001B505F00CF801BD10F1160FCE
:10159000074B08D0984208D34033834205D98B4289
:1015A00003D9044870474033F9E70020704700BF73
:1015B00080400020C04000200446084611461A46DC
:1015C0000023E1EE103A084B202583F3098863B627
:1015D0004FF0000383F31188BFF36F8FA04785F3AB
:1015E0001188BFF36F8FFEE7C068002001B5EFF3ED
:1015F0000580A0F110004FEAC0000449014409C968
:101600009847BDE80140024908470000606D0000AE
:1016100015160000704700BF2DE9F041324C074617
:10162000884632484521154604F038FFA36ADE0695
:1016300003D52F48452104F031FFA36A180703D5CD
:101640002C48452104F02AFF274CA36A990728D487
:101650006FF01506244CA36ADB0703D52648452105
:1016600004F01CFFA36A9C0603D52448452104F01E
:1016700015FF1D4CA36AD80628D4A36A990725D460
:101680000020A36A184A9B0642BF636A23F40053F2
:101690006362936A43F0FF03936200232B70BDE8FB
:1016A000F0811748452104F0F9FE666BA36A1A061B
:1016B000CED514483246452104F0F0FEB8F1000FB3
:1016C000C8D0A36A23F08003A362C3E763681A0546
:1016D000D6D539463046FFF759FF0028D0D080F3E1
:1016E00009880220CDE700BF00ED00E07B74000018
:1016F00096740000CE7400001E7500004275000054
:10170000E67400000375000010B51D4C1D4845210E
:1017100004F0C4FEA36A9B0103D51B48452104F0D5
:10172000BDFEA36ADC0103D51848452104F0B6FECE
:10173000134CA36A180303D51548452104F0AEFEE7
:10174000A36A590303D51348452104F0A7FE0C4CA6
:10175000A36A9A0303D51048452104F09FFEA36AAB
:10176000DB0303D50D48452104F098FE044A936A33
:101770006FEA03436FEA13439362002010BD00BF7A
:1017800000ED00E07675000093750000AB75000079
:10179000CA750000ED75000017760000367600006F
:1017A00070B5234C06460D462248452104F076FECE
:1017B000A36AD90403D52048452104F06FFEA36A2B
:1017C0001A0503D51D48452104F068FE184CA36A8C
:1017D0009B0510D51A48452104F060FEA26BA36A50
:1017E000180408D51748452104F058FE1EB1A36A15
:1017F00023F40043A3620E4CA36A590503D5124893
:10180000452104F04BFEA36ADA050BD50F484521AC
:1018100004F044FE064A936A002043F47F43936237
:10182000287070BDA36A9B04F4D509484521EFE7F1
:1018300000ED00E06676000081760000CE740000C6
:1018400097760000B5760000CF760000EF760000B6
:10185000427500002DE9F0415D4B5F688AB0054696
:10186000C7F30804002686F31188BFF36F8F02F0D8
:101870007F43B3F17F4F07D102F00C03082B14D143
:101880005448452104F00AFE002635464FF0000872
:10189000E31E8DF80780092B00F28780DFE803F054
:1018A0000A7A7E7685858585858210074CBF0D4630
:1018B0000126EBE74848464C452104F0EFFD8DF842
:1018C0000780E36A9A0705D54448452104F0E6FD00
:1018D000002433E0E36A002B02DA41484521F5E7B2
:1018E000E36A5B00F4D53F48452104F0D7FD636906
:1018F000AA6943F480736361BFF34F8FBFF36F8FA7
:10190000636932F8022C23F480736361BFF34F8F55
:10191000BFF36F8F4DF602739A4209D0A36ADBB210
:1019200033B30DF1070201212846FFF775FE2FE0C2
:101930002A682D48452104F0B1FD2C689DF8073038
:101940009BB92022294602A804F068FE099B002EBC
:1019500038D0C3F3080222B96FEA53236FEA432356
:10196000099302A92046FFF759FD0AB0BDE8F081AE
:10197000A36A13F47F4F05D00DF107010120FFF793
:101980000FFF05E0A36AB3F5803FA1D3FFF7BCFECC
:101990000446D3E70DF107020021C5E70DF1070169
:1019A0000020ECE71148452190E71149114A1248FF
:1019B00017F4F87F08BF0A46A4F11003452104F08C
:1019C0006DFD85E723F4FF7323F00103C8E700BF33
:1019D00000ED00E03A7700006A77000086770000AB
:1019E000AC770000BF770000E377000004780000C8
:1019F0000C770000217700002D780000024A53691F
:101A000043F010035361704700ED00E0EFF30880EE
:101A1000EFF3098101B57246FFF71CFF01BD00BF5E
:101A2000044800232021C2180133302B82F8001310
:101A3000F9D1704700E100E0002080F31488BFF383
:101A40006F8FFFF76DFC00200D490860BFF34F8FCB
:101A50000C4880F3088800F02BF8202080F31188D0
:101A600009484FF40461401880F30988EFF31480AB
:101A70000221084380F31488BFF36F8FFFF748FDFE
:101A800094ED00E080680020403800200749D1F83C
:101A900090200023C2F307221846934200DB7047D0
:101AA000C1F89830C1F8A0000133F6E700ED00E07E
:101AB00008B572B6002383F31388FFF7E7FF144BD2
:101AC0004FF0FF32C3F88020C3F88420C3F8882089
:101AD000C3F88C20C3F89020C3F89420C3F8982052
:101AE000C3F89C20C3F88021C3F88421C3F888215F
:101AF000C3F88C21C3F89021C3F89421C3F898212E
:101B0000C3F89C2162B6BFF34F8FBFF36F8F08BD40
:101B100000E100E0024B034A0348022100F06CB8E8
:101B2000000004200020002004700000F8B5244EBE
:101B300000258D420FDA4468002C3ED09BB104F1A1
:101B4000FF3C14EA0C0F08D01E482A46452104F039
:101B5000A5FC6FF015021046F8BD1F2CF4D90768DC
:101B60001CEA070FF0D1202C0768D0F808C05FFAF4
:101B700082FE10D9B4F1004F0FD8013CB4FA84F4BE
:101B8000C4F11F046400BEF1070F4CEA040C06D92F
:101B90000D484521DBE70824F5E73E24F3E727F06D
:101BA0001F04144344F01004C6F89820C6F89C4063
:101BB0004CF00104C6F8A040013201350C30B8E702
:101BC00000ED00E04978000071780000044B052228
:101BD000C3F89420BFF34F8FBFF36F8F704700BFE0
:101BE00000ED00E0BFF35F8F024B0022C3F89420AA
:101BF000704700BF00ED00E010B5034C01232278D0
:101C0000FFF794FF207010BDFD37002014490868CD
:101C1000082810B521D8FFF7E5FF124C49680022CB
:101C2000904201F10C0105D10F4B1870FFF7CEFF68
:101C3000002010BDC4F8982051F80C3C23F01F037D
:101C4000134343F01003C4F89C3051F8043C43F0B4
:101C50000103C4F8A0300132E2E74FF0FF30E8E7BB
:101C60001C70000000ED00E0FD37002010B54FF0C3
:101C70002003EFF3118083F31288BFF36F8F114AB3
:101C80000123C2F840354FF080424FF08051C2F836
:101C90007835D1F83041082C08D1D1F83411052914
:101CA00004D8094C615C09B1C2F838364FF0804362
:101CB0000122C3F8802580F31188BFF36F8F0020C5
:101CC00010BD00BF00E00140AB7800004FF0804342
:101CD000C0B2C3F81C05BFF34F8F0549054BCA6856
:101CE00002F4E0621343CB60BFF34F8F00BFFDE708
:101CF00000ED00E00400FA0520B1034B800143F041
:101D000001031847704700BF506F0000084B70B5C3
:101D1000C31A0D4607499B10044659430648402202
:101D200004F0ACFC2B4601462046BDE87040184745
:101D300020360020B76DDBB6E86C000073B50C4CA4
:101D40000C4A4023041B00930D460B460A49A4107D
:101D500061430646094804F0BDFC011E05DA304621
:101D60002B4602B0BDE87040184702B070BD00BFFE
:101D70002036002045670000B76DDBB6E86C000038
:101D8000002270B5012104461046FFF7A5FB0F485D
:101D900001F0E8FB0E4B984215D104F06CFE266969
:101DA0000C49304604F0F0FA00280BDB01253564BD
:101DB0002469084904F11C0004F0E6FA002801DB5C
:101DC000E564002070BD6FF00400FBE70D1E00000D
:101DD0000000AD0B3C70000070B501460C230948B3
:101DE0004B43C418D4E90E5600224033A263184472
:101DF00004F031FC2DB132462B460348BDE870405B
:101E0000184770BD20360020E86C000010B1012892
:101E100004D07047034B1B6C5B0701D1FFF7DCBF9D
:101E2000704700BF2036002008B54FF02003EFF3C5
:101E3000118183F31288BFF36F8F124A136843F046
:101E400002001060DA0708D481F31188BFF36F8FA6
:101E50000120BDE8084004F01BBE4FF08043D3F8DA
:101E60000C24D3F80C34D307EED5074804F0F3FB69
:101E700081F31188BFF36F8F0020BDE80840FFF7A2
:101E8000ABBF00BF7036002060360020094BBFF3A7
:101E90005B8F53E8002F22F0020143E80010002876
:101EA000F7D1BFF35B8FD30702D4012004F02CBE1F
:101EB000704700BF703600202DE9F8433649BFF364
:101EC0005B8F0746012251E8003F41E800200028CF
:101ED000F9D1BFF35B8F33B9304931484B60CB60E8
:101EE0008A6004F064FA7B1E012B2DD8012F07D1E4
:101EF0004FF08043D3F81C3403F00303012B23D0AD
:101F000004F092FE054608BB264B1B78F3B14FF058
:101F100080430222C3F808230646DFF88C904FF076
:101F200080444FF00108D4F81834D4F81824D203B0
:101F300016D503F00303012B01D0012F10D12DB3CF
:101F400086F31188BFF36F8FBDE8F8834FF020034D
:101F5000EFF3118683F31288BFF36F8F0125DCE75F
:101F60003046FFF751FAD4F81835002BDBD1D4F8FE
:101F70000421002AD7D0C4F80431D4F80431C4F8BD
:101F80001885C9F88081C4F80880CCE74FF08043F9
:101F90000222C3F80423D7E71C3600200C360020A9
:101FA0003C3600200138002000E100E030B54068F8
:101FB000057B01F01F04B2F5001F85B044EA45140B
:101FC00005D1204601F052FD002005B030BD0025AE
:101FD000B2F5800FCDE9025514D1B3F1007F0CBFEB
:101FE000042305238DF808300023194602AA204651
:101FF00001F07AFB1F4B984239D10121204601F0B4
:10200000EDFCE1E7B3F1C06F26D0B3F1007F14BF60
:10201000012302238DF808308368CB40D907E3D42D
:10202000B2F1A07FE0D16209012A04F01F03124A35
:1020300003F5E07318BF4FF0A04252F82330DB07DE
:10204000D2D40DF107052946204601F073FC0B4B55
:10205000984203D00395C7E70323DBE7284601F046
:10206000B7FC044B9842F5D06FF00B00ADE76FF072
:102070001500AAE70000AD0B000300500400AD0BF3
:1020800010B501F095FC044668B901F069FC084BF5
:1020900098420AD10748214601F046FC2246052114
:1020A0000620FFF719FA002010BD6FF00400FBE7CF
:1020B0000000AD0BB9200000420970B5034602D004
:1020C000012A17D070BD0D4E326951680029F9D030
:1020D00003F01F0301250C689D400029F2D08A6897
:1020E0002A4002D04B68304698472CB123682146DD
:1020F0001C46F2E7024EE7E72346F8E7186D0000BA
:10210000006D00002DE9FF4147683B7B01F01F0592
:1021100045EA43150E4628460DF10301144601F029
:1021200009FC14F4403F80460BD1284601F0C6FC60
:102130003D4B984503D19DF8030001F043FC00207E
:102140000CE00023194602AA2846CDE9023301F02B
:10215000CBFA354B984204D06FF0150004B0BDE8BF
:10216000F081804503D19DF8030001F02BFCA3030F
:102170004BD540F206332340B3F5837F19D00CD8FA
:10218000062B17D004D8ABB1022BE5D1042311E004
:10219000B3F5807FE0D101230CE040F202229342AC
:1021A00027D0B3F5407F26D0B3F5007FD4D10223EA
:1021B00000E007238DF8043084F48033C3F3004338
:1021C000E0068DF8053054BFC4F340130323210308
:1021D0008DF8063011D57A680123B340C2F808356E
:1021E000002201A9284601F02DFB0F4B9842A6D0F2
:1021F000B2E70523DEE70323DCE7620341BF0123E7
:102200007A68B340C2F80C35EAE7E3064FF0000302
:1022100054BFC4F3401403241A4601A928468DF87C
:10222000044001F061FAE0E70000AD0B00F17440FA
:1022300000F5A6000A289ABF024B33F910006FF090
:102240000F007047F0720000024B0B600123136017
:10225000704700BF2C71000000487047C07000003C
:1022600010B5084C23785BB902690749406801F052
:1022700067FEFFF7DBFFB0FA80F35B09237010BD48
:102280000020FCE7FF3700200F68000037B50D463F
:102290004168B1B1D1E900138468A4B1D4E9002444
:1022A00094B18BB19C4208D10133092B00780ED92F
:1022B00002465721104804F0F1F86FF0150003B002
:1022C00030BD0B46E8E7224601332344EDE78DF8A5
:1022D000013040F201138DF80000ADF8023068467D
:1022E00000238DF804308DF8055001F009FF03B08C
:1022F000BDE83040FFF79ABFFA78000010B5084CEF
:1023000001F03EFFA04205D101F05CFF054B002229
:102310001A7010BD4CF2503004F08CFCF0E700BF96
:102320000000AD0BFF3700200C4B994210B504465E
:102330000FD14FF02003EFF3118083F31288BFF326
:102340006F8F237833B10023237080F31188BFF39C
:102350006F8F10BDFFF758F8EBE700BF0000AD0B23
:102360002DE9F04F814685B00E461C4690467AB165
:10237000002B00F092800029426803DB9269CB18A1
:1023800093420BD9464823463246452104F086F84D
:102390006FF01505284605B0BDE8F08FFFF760FF28
:1023A0000546002876D1754205F00305A54228BFF1
:1023B0002546D8F1000303F0030308F0030758BFD4
:1023C0005F427F4207F00307A74228BF2746631BEF
:1023D000E41B24F0030423F0030AA245C8BFA2466D
:1023E00003F0030BC8BFA3EB040BBAF1000F19D025
:1023F00008EB0703721951461846019304F0FDFBE0
:1024000004460146D9F81000FFF78EFF254A944292
:102410003CD1BD4206D0019B5246194608EB05004F
:1024200004F0E5F8BDB1C5F10407F21B042102A8D0
:1024300004F0E3FB04460146D9F81000FFF774FFEF
:10244000184B9C4222D107F108032A460DEB0301E9
:10245000404604F0E3F8BBF1000F16D008217219D2
:1024600052440DEB010004F0C8FB04460146D9F8C4
:102470001000FFF759FF0B4B9C4207D10AEB0500F8
:102480005A4602A9404404F0C9F8064C2046FFF71A
:10249000CDFE0546FFF732FF7CE71D467AE700BF19
:1024A000227900000000AD0B2DE9FF4706460F46DC
:1024B0001D4690469AB193B1042B01D99A070ED1CB
:1024C000BB070CD1002F726803DB92697B19934222
:1024D0000BD935482B463A46452103F0DFFF6FF014
:1024E0001504204604B0BDE8F0873046FFF7B8FE7B
:1024F000044650B904F0AAF9044648B1012004F09A
:10250000A5F92046FFF792FE0446FFF7F7FEE8E73D
:10251000032D1CD83A460421684604F06EFB04469D
:1025200001463069FFF700FF204B9C4231D12A461B
:102530004146684604F072F83A460421684604F0C1
:1025400059FB044601463069FFF7EEFE21E008F032
:102550006043B3F1005F23D0DFF850A0102DA946EF
:1025600028BF4FF010094A464146684604F056F825
:102570003A461021684604F03DFB044601463069A6
:10258000FFF7D2FE544504D1B5EB0905C8444F44CA
:10259000E4D1012004F05AF9002C08BF0446B0E74A
:1025A0003A4629464046CAE7707900000000AD0B64
:1025B0002DE9F84F15460A1ED0F80490804605DB39
:1025C000D9F8183051199942174609D934482B4681
:1025D000452103F063FF6FF015042046BDE8F88F36
:1025E000C2F30B02002DF6D0C5F30B031343F2D157
:1025F000FFF736FE0446F0B904F028F90446D0B9D6
:10260000DFF8ACA0D9F81830AB4217D104F0F8FAD3
:10261000AB460646D8F810003146FFF785FE564512
:1026200032D1B5EB0B055F44ECD1012004F00EF97B
:10263000002C08BF0446FFF761FECEE7B5F5803FEA
:1026400009D3BBB253B93946012001F00FFE4FF454
:10265000803B0646DEE7B5F5805F09D3C7F30B0084
:1026600030B9394601F002FE4FF4805B0646D1E7EF
:102670000C480D4E2B463A46452103F00FFF0A4900
:10268000D8F81000FFF750FE08482B463A4645217F
:1026900003F004FF3046FFF7C9FD0446C5E700BF5D
:1026A000BF7900000E7A00000400AD0B317A000003
:1026B0000000AD0B2DE9F04143681E6A8AB0054663
:1026C00007AA0021304604F013F9041E2EDB079BF5
:1026D00032681979186800F0F1FB041E26DB00222D
:1026E00001212920FEF7F8FE6E682A694749304625
:1026F00001F026FCFFF79AFD041E17DBF37A023B7C
:10270000012B17D996F80A80A8F10308B8F1010F38
:102710008CBF4FF000084FF0010804F07CF8041E55
:102720000BDA3B482246452103F0B8FE20460AB0AA
:10273000BDE8F0814FF00108EFE7E2B2C4F3801486
:10274000A04504AE05AF26D00023012182F040024F
:1027500007A8CDE90613ADF8103005968DF81020C6
:1027600009938DF81C100897FFF790FD041E0CD0FC
:10277000DCDA2849284A2948B8F1000F08BF0A4680
:102780002346452103F08AFED0E704F044F8041EF6
:10279000EFDBE307F9D4FFF7B1FD4FF003080023A7
:1027A000CDE90683089328469F2305968DF81C30B3
:1027B0000997FFF755FD014620B1FFF79FFD6FF028
:1027C0001204B3E707A8FFF761FD0446FFF796FD83
:1027D000002CF4D16D684246314605F11C0003F02F
:1027E000F6FE04460028A1D0AB7F03936B7F0293D3
:1027F0002B7F01939DF8123000939DF810209DF8D7
:1028000011300748452103F049FED8E70F68000062
:102810005E7A0000587A0000547A0000737A000053
:10282000897A0000024B0B6001231360704700BFE0
:102830008C360020004870474871000010B504F045
:10284000C7F9034C206004F0BFF96060002010BDA0
:102850008C36002070B50D462846194616461C4693
:1028600004F009F840B9084823462A46452103F0F8
:1028700015FE6FF0150070BD24B122462946304682
:1028800003F0CCFE0020F6E7D17A00004FF0804242
:10289000D2F81015D2F8103501F01E0123F01F03F5
:1028A0000B4343F00103C2F81035024B00221A70AB
:1028B000704700BF003800204FF08053D3F830310C
:1028C000082B20D14FF08042D2F81015CB071AD533
:1028D000D2F8103501F01E0123F01F030B43C2F89C
:1028E0001035D2F808315BB1D2F8103523F01F0350
:1028F0000B4343F00103C2F810356FF08B007047B3
:10290000024B01221A700020704700BF00380020DF
:102910002DE9F0410F46154604F056F929460646C2
:10292000384603F0A8FFB84660B3B7FBF6F306FBE2
:10293000137323B9B5FBF6F406FB145444B11448E1
:102940002B463A46452103F0A9FD6FF0150413E02C
:10295000AE4211D804F038F90E4F0646FFF7ACFF2F
:10296000044660B9404601F0B7F93B780BB1FFF778
:102970008DFFAD1BB044F1D12046BDE8F0816FF072
:102980008B04F9E704482B463A464521DBE700BFB4
:10299000F37A000000380020D17A00002DE9F843D6
:1029A0000E463046194617461C4603F064FF48B9E8
:1029B0001B4823463246452103F070FD6FF0150099
:1029C000BDE8F88346EA040515F0030504D0154870
:1029D000234632464521EFE7FCB1DFF850902B1932
:1029E000032BA6EB050806D80F4AD2F80034DB0704
:1029F000FBD50020E4E7FFF75FFF58B97B1B40469B
:102A0000196801F089F999F800300BB1FFF73EFF22
:102A1000043DE4E76FF08B00D2E72046D0E700BF2B
:102A2000D17A0000177B000000E001400038002050
:102A300070B5012383400E4ABFF35B8FDC4352E83D
:102A4000001F01EA040542E80056002EF7D1BFF34B
:102A50005B8F4FF4803282400648C0F80823BFF3F2
:102A60005F8FBFF36F8F0B4214BF0120002070BD3A
:102A70009836002000100140F8B51B49044622F0AA
:102A80007F450868C1E90023A5F50013101AB3F5C6
:102A9000400F0FD301F070FDA30003F1804303F555
:102AA0008833D3F8402595421DD14FF40002C3F876
:102AB000402512E00D4B1B681A0A1B065E190C4BD1
:102AC00042F10007C3E9006701F056FD094A04F529
:102AD000A87352F823309D4205D1064A4FF4803343
:102AE000A340C2F84433F8BD102100209C360020DA
:102AF000182100200010014011B3BFF35B8F0123A8
:102B0000104A834052E800CF4CEA030C42E800C16F
:102B10000029F7D1BFF35B8F0B4A4FF4803383401A
:102B2000C2F80433094BBFF35B8F1B68BFF35B8FA5
:102B3000C340DB0742BF064B4FF40032C3F800210D
:102B4000704700BF983600200010014094360020E6
:102B500000E100E00D4B1868010A0006BFF35F8F2B
:102B60000B4BD3F80435181841F10001B3F5801F61
:102B70000AD2084BD3E90023904271EB030303D23E
:102B800010F1807041F10001704700BF9C360020B9
:102B900000100140182100202DE9F74F14461D4672
:102BA0000746FFF745FF0090FFF7D4FFA04271EB07
:102BB00005037AD2464B201A65EB0101984271F168
:102BC000000180F08180434B03EB0713D3E902231C
:102BD0009D4208BF944253D04FEA870A0AF1804AC7
:102BE00007F150090AF5883A4FEA89091FFA89F96D
:102BF00024F07F4809F180494FF48033DAF840052A
:102C0000354A09F58839BB404646D2F804B5A0EBF1
:102C10000B0020F07F402BF07F410128CAF84015BF
:102C200005D10193132004F005F82B4A019B0BF109
:102C3000020CA6EB0C0020F07F40B0F5000F88BF1F
:102C400066460020C9F80000D9F80000C2F84433F5
:102C500026F07F40CAF84005D2F80405834506D027
:102C6000301A023820F07F40B0F5000F1BD8A6EBD9
:102C7000080626F07F46361945F1000334461D4606
:102C800014490C983B0101EB0712C8500D9B53608F
:102C9000C2E90245002438460099FFF72DFF20467F
:102CA00003B0BDE8F08F3046AFE701230B4ABFF316
:102CB0005B8FBB4052E8000F184342E80001002937
:102CC000F8D1BFF35B8FDBE76FF01504E3E700BFDC
:102CD0000100000100210020001001409436002076
:102CE00073B5194B194D00244FF0FF304FF0FF31F1
:102CF000C5F80845C3E902014FF48033C5F8043331
:102D0000134B02264FF400320121C5F80463112051
:102D1000C3F880212246FEF7DFFB1120FEF7ACFB53
:102D20000C4A0123AB602B6013600B4B0B4A0093E2
:102D3000019400232046FFF72FFF3046FFF7BCF831
:102D4000204602B070BD00BF0021002000100140ED
:102D500000E100E098360020792A0000FFFF7F00A4
:102D60002DE9F743334CD4F804339A070BD5D4F844
:102D7000043143B1304A0023C4F80431D4F804319B
:102D80001368013313604FF02003EFF3118283F3D4
:102D90001288BFF36F8FD4F80433DB0329D5BFF358
:102DA0005B8F264B53E8001F21F0010043E800052C
:102DB000002DF7D1BFF35B8F11B9D4F84031C3B107
:102DC0000025C4F84051D4F8403182F31188BFF394
:102DD0006F8FFFF7BFFE4FF02003EFF3118283F3F5
:102DE0001288BFF36F8F164BD3E90267B042B94127
:102DF00006D282F31188BFF36F8F03B0BDE8F08372
:102E00004FF0FF384FF0FF39D3E90010C3E90289D2
:102E10001D604FF48033C4F8483382F31188BFF348
:102E20006F8F0029E9D0009032463B4628468847FC
:102E3000E3E700BF001001409C36002094360020DC
:102E400000210020431C13B521D0012821DDB0F55D
:102E5000000F20DA441EFFF77DFE104BD3E900136C
:102E6000421AB2F5000F0E4828BF00240132224456
:102E7000824228BF024652184FF0000009490190D3
:102E8000009143F10003FFF787FE02B010BD044834
:102E9000E0E70024DFE7024CDDE700BF102100205F
:102EA000FFFF7F00792A000008B5FFF753FE024BB1
:102EB0001B68C01A08BD00BF102100202DE9F04199
:102EC0005A4E00EB81010127814202D10020BDE86A
:102ED000F081046804F07F03C4F343257F2B4FEA9D
:102EE000144408BF4FF0FF33222C00F29B80DFE830
:102EF00004F0122429442C404499999999477099D7
:102F00009999999999999999737B7E8199999984BD
:102F10008A8D90939600C2F80C354FEA531CBCF191
:102F2000010F03F01F0414BF4FF0A04CB44607FA82
:102F300004F4CCF80845012402E0C2F8143500245A
:102F4000A64624E0C2F80835E7E7C2F808350024B1
:102F50004FEA531EBEF1010F14BF4FF0A04EB6460C
:102F600003F01F0C07FA0CFCCEF80CC54FF0010E55
:102F70000DE0C2F80C350124EAE7C2F81035DEE7AF
:102F8000C2F80835002DDAD10024A646062550F8EF
:102F900004CB0CF40058B8F1000F4FEA0525CCF330
:102FA000C11803F01F0C4FEA53131CBF01244FF04C
:102FB000000E45EA8805012B0CBF33464FF0A043B5
:102FC00045EA0E050CF5E07C45EA440543F82C5033
:102FD0007AE7C2F80C35D5E7C2F860350468C4F367
:102FE0008034002CC7D098E7C2F86435F6E7C2F801
:102FF0006835F3E7C2F86C35F0E7C2F824350124F0
:103000004FF0000EC3E7C2F8283586E7C2F8303526
:10301000F5E7C2F83435F2E7C2F83835EFE7C2F821
:103020003C35ECE76FF0850051E700BF000300502E
:1030300030B50C490C4D0B680246002405EB03101B
:10304000D0F80808C0B218B904B10B60002007E03E
:103050000133072B4FF00104F0D90B606FF01B0018
:10306000136030BDA036002000E00140034808B5E1
:10307000452103F013FA0020FEF728FE5E7B0000D6
:1030800030B5816885B0103921F00704054603F09A
:103090005AFA10220146684603F0CBFA074910227B
:1030A000684603F0BBFA10236A462146284603F01F
:1030B00018FA003818BF012005B030BD06730000B3
:1030C00030B50D46816887B0102302AA1039044636
:1030D00003F0F2F9002802DA012007B030BD102217
:1030E00002A9204603F07BFC00283AD11E49102299
:1030F00002A803F06CFA00280CBF012302232B70F6
:10310000204603F058FC012301460DF1070220463A
:1031100003F0D2F90028DFDB9DF8073003F00F023F
:103120001B096A702B7101220DF10701204603F083
:1031300056FC10B96B78042B03D901236B70002364
:103140002B71A268183A22F00702083AA91C2046FF
:1031500003F058FC0028BFD1E91C204603F06EFCA8
:10316000BBE70323CBE700BF067300007FB5032056
:10317000694603F069FC98BB02A9012003F064FCD6
:1031800001282BD103238DF808308DF80B309DF8E2
:1031900000509DF80860194A00241078294603F071
:1031A00010FC18B35078314603F00BFCF0B1937863
:1031B000042B03D09DF80310994217D1D378042B28
:1031C00003D09DF80B10994210D11379042B09D12B
:1031D0005079831E022B03D804B070BD0028D6D0CE
:1031E000FF20F9E79DF802109942F1D00134032C39
:1031F00002F10602D1D10120EEE700BF807B000082
:103200004FF08053D3F83021082A06D1D3F8343157
:10321000052B02D8024AD05C70470020704700BFDF
:10322000987B0000024AD2F80034002BFBD0704794
:1032300000E0014010B54FF08053D3F83021082A48
:103240004ED14FF080420021C2F80C11C2F810118B
:10325000C2F8381502F54042D3F80414C2F820151C
:10326000D3F80814C2F82415D3F80C14C2F82815A2
:10327000D3F81014C2F82C15D3F81414C2F8301572
:10328000D3F81814C2F83415D3F81C14C2F840153A
:10329000D3F82014C2F84415D3F82414C2F8481502
:1032A000D3F82814C2F84C15D3F82C14C2F85015D2
:1032B000D3F83014C2F85415D3F83414C2F860159A
:1032C000D3F83814C2F86415D3F83C14C2F8681562
:1032D000D3F84014C2F86C15D3F84434C2F87035F2
:1032E000FFF78EFF18B1434B434AC3F88C26FFF714
:1032F00087FF18B1414BFB22C3F81825FFF780FF69
:1033000070B14FF080414FF08053D1F8E42ED3F8E4
:10331000583222F00F0203F00F031343C1F8E43ECA
:10332000FFF76EFF20B1364B4FF40072C3F8402612
:103330004FF08053D3F83031082B09D14FF0804340
:10334000D3F80024D20744BF6FF00102C3F8002471
:103350002C4AD2F8883043F47003C2F88830BFF3A7
:103360004F8FBFF36F8F4FF08053D3F83021082A6F
:103370000ED1D3F83431052B02D8234AD35C3BB1AC
:103380004FF01023D3F808224FF08043C3F858259C
:103390004FF01023D3F80022002A03DBD3F80432C5
:1033A000002B22DA194901234FF01020C1F804350F
:1033B0001224FFF737FFC0F80042FFF733FFC0F8D1
:1033C0000442FFF72FFF0023C1F80435FFF72AFF5F
:1033D000BFF34F8F0B490E4BCA6802F4E0621343F0
:1033E000CB60BFF34F8F00BFFDE70A4B0A4A1A605C
:1033F00010BD00BF005000404881030000F00040B5
:103400000090024000ED00E0927B000000E00140EF
:103410000400FA050C2000200090D00370B50125AF
:103420000268BFF35B8FB2FA82F3C3F11F03DBB212
:1034300005FA03F422EA040450E8006F964204D12E
:1034400040E8004CBCF1000FF6D1BFF35B8FE7D131
:1034500001480B7070BD00BF0000AD0B10B50368D4
:10346000CB40DB0714D401238B400268BFF35B8F92
:1034700043EA020150E8004F944204D140E8001CA6
:10348000BCF1000FF6D1BFF35B8FEED1014810BD48
:103490000148FCE70000AD0B0400AD0BF7B5044696
:1034A00018B1012822D003B0F0BD4FF080430222B2
:1034B000C3F80823C3F80401D3F804210122DA6019
:1034C000074601238DF8073042F210754FF0804611
:1034D000CCB1012CE7D1C7B3D6F80C3403F001030B
:1034E0003B70D6F80C34DA0321D516E04FF0804358
:1034F0000022C3F80803C3F80021D3F80021586064
:103500000DF10707DDE7B7B1D6F8183403F0030370
:103510003B60D6F81834D803C5D59DF807000128BC
:1035200003D103F0A6FA013DD2D1012CBBD10C4B43
:1035300000225A71B7E7D6F81834D903B3D5012061
:1035400003F097FA013DF6D1ADE7D6F80C34DB0372
:10355000EDD5012003F08DFA013DF6D1E7E700BF7C
:10356000A4360020044B1A7922B9012218609A80EF
:103570000248704702487047A43600200000AD0B97
:103580000C00AD0B10B54FF08043D3F800216AB1A9
:103590000022C3F80021D3F800210122C3F8082338
:1035A000114B587910B95A711B6898474FF08043F6
:1035B000D3F8042172B10022C3F80421D3F8042106
:1035C000D3F81824D3F81814920704D10122C3F8B1
:1035D00018259A6010BD0222C3F80823024BBDE8EB
:1035E00010401B6801201847A4360020036803F030
:1035F0001F025B09012B0260024818BF4FF0A04078
:10360000704700BF00030050034B083033F8100030
:10361000C0F34010704700BF1020002070B500F1CB
:1036200008030C4C34F81330DA0505460E4607D56E
:10363000C3F3432304EBC30254F833305268984772
:10364000A3682BB1E26831462846BDE870401847B0
:1036500070BD00BF1020002010B4134A083032F8AB
:103660001030D9051CD5C3F3432123F4F85322F8B5
:10367000103002F10E04002034F8023F13F4807F72
:1036800003D0C3F3432399420AD001303028F3D149
:10369000002342F8313005485DF8044BFFF7DEBEE9
:1036A0005DF8044B704700BF1020002084200020EC
:1036B00038B50246FFF7A8FF094C02F1080540B1F2
:1036C00034F8153007495B0B03F5A273002041F86D
:1036D00023001046FFF7C0FF002324F8153038BD43
:1036E00010200020006000402DE9FF4104461646EE
:1036F0001D4601B34E4F00F1080837F818309B07FC
:1037000002D5FFF781FF10BB0023CDE900338DF810
:103710000E308DF80F300DF10F020B4620460DF1E3
:103720000E0103F0F3F937F8183023F0020343F0E9
:10373000010327F8183046B33D4B96F800C0726875
:1037400004F1080733F81710880702D5AAB13948E1
:103750001DE021F02001C904C90C23F8171062B143
:10376000BCF1030FF3D872681678BCF1000F11D1C9
:10377000314A06F5A27642F826C033F8172022F027
:103780001C0242EA8C0223F8172045BB2B4804B0E8
:10379000BDE8F081B20002F1804202F5C04241EA88
:1037A0004631D2F8100520F00300C2F81005D2F817
:1037B000100520F44F3020F44070C2F810052002AC
:1037C000D2F810E500F47C5040EA0C4040EA0E00CC
:1037D00041F0200123F81710C2F81005CDE7D5E914
:1037E00000672046FFF738FF002ECFD0104DD5E9F7
:1037F0000023964201D19F4218D011480DF10F01CC
:10380000FFF70CFE0D4B9842C1D19DF80F2045F8F3
:10381000326005EBC20308345F6035F8143043EAC8
:10382000422343F4807325F81430AFE70022EEE71B
:10383000102000200400AD0B006000400000AD0B24
:1038400084200020F0B5044685B0154619B3334EE8
:1038500000F1080736F81720930703D4FFF7D4FECA
:10386000002858D112F01C0F02D04B78012B52D0F7
:1038700001238DF80F300023CDE900134A1C8B1C67
:1038800020460DF10F0103F041F936F8173043F0EF
:10389000030326F8173015B9214805B0F0BD1F4EB7
:1038A00004F1080736F81700830734D595F800C0EF
:1038B0006146890020F0200001F18041C00401F53B
:1038C000C041C00C26F817000023C1F810356A78F3
:1038D000002AE1D0D1F81035AD7823F4991323F400
:1038E000F853C1F81035D1F810E5230203F47C53E6
:1038F000120402F4403243EA0E0313432A0502F491
:10390000801240EA4C30134340F0200026F81700A4
:10391000C1F81035C0E70348BFE700BF1020002002
:103920000000AD0B0400AD0B014BC3E90201704771
:103930001020002008B50246FFF766FE38B1054B9F
:103940000548083233F812305B0B0B7008BD034892
:10395000FCE700BF102000200000AD0B0400AD0B01
:1039600038B50F4C94F87850BDB96022294604F15F
:10397000100002F05EFE0620FDF77EFD094B0A48AE
:10398000C3F87C51D3F87C214FF00042C3F80423E4
:10399000012384F87830636738BD0448FCE700BF32
:1039A00010200020006000400000AD0B0500AD0BB2
:1039B000034B93F87800003818BF0120704700BF10
:1039C0001020002001460148FFF748BD802000205C
:1039D00001460148FFF722BD8020002037B504468C
:1039E000FFF712FE04F108021E4B33F81230E8B163
:1039F00013F002051AD15B0B9A0002F1804000F52A
:103A0000C24002F1804202F5C04205600068D2F86F
:103A1000100540F00100C2F8100529B1012202FA98
:103A200003F3114AC2F8043303B030BDC3F3820379
:103A3000042B12D0052B12D001A80194FFF7D6FD5C
:103A4000019BD0F81015D94001F001010231204648
:103A500003B0BDE8304003F0A2B80321F7E702212C
:103A6000F5E700BF102000200060004008B50246C6
:103A7000FFF7CAFDC0B102F108010E4B33F8113057
:103A8000990711D45B0B01229A409B000A4903F16C
:103A9000804303F5C043C1F80823D3F8102522F072
:103AA0000302C3F8102508BDBDE8084000211046F8
:103AB00003F075B8102000200060004013B50E4BD5
:103AC00000F10802044633F81230DB0711D5FFF786
:103AD000CDFF2046FFF7ECFD01A80194FFF786FD1E
:103AE000019B03F5E073022240F82320034802B053
:103AF00010BD0348FBE700BF102000200000AD0B05
:103B00000400AD0B2DE9F04F684B69486949002668
:103B100087B0012234461D6835B1D0F804531542F0
:103B20001EBF1C601D68164304338B424FEA4202DD
:103B3000F1D1DFF87C91D9F87C31002B00F099802D
:103B40004FF0A043D3F820250492C3F82025D3F8E2
:103B500020280592C3F820284FF000080DF1100A24
:103B60004FEA481300934FF0010B49E0009B524A83
:103B700094FAA4F4B4FA84F41C44E00804F10803B1
:103B8000039432F813701AF8003004F007020BFAAD
:103B900002F223EA02030AF8003003A8FFF726FD29
:103BA000039B03F5E073B90850F82330C7F382058F
:103BB0004A072F46C3F301432CD520463946DDB2D0
:103BC000FFF72CFD03A80394FFF710FD039B03F5FB
:103BD000E07350F82330C3F301439D4207D1002125
:103BE000204602F0DCFF2946204602F0D8FF03A859
:103BF0000394FFF7FBFC039B0BFA03F3C0F820359B
:103C00005AF82840002CB1D1B8F1000F1DD14FF067
:103C10000108A5E7022B0CD10321204602F0BFFFCB
:103C200005F00503012BE2D139462046FFF7F6FCEB
:103C3000DDE702212046019302F0B1FF032DF3D00E
:103C4000019B032BD3D1022DEDE74FF0A042C9F821
:103C50007C41D9F87C311949D2F820350493C2F857
:103C60002035D1F8202505921343C1F820257FF493
:103C700073AF012416B907B0BDE8F08F96FAA6F32A
:103C8000B3FA83F304FA03F29B0003F1804303F5D4
:103C9000C04326EA0206D3F81005D3F81015C0F386
:103CA0000520C1F30141FFF7B9FCE3E700610040E3
:103CB0000060004020610040102000200003005000
:103CC000044AD2F80034DB07FBD50160BFF35F8FF5
:103CD000704700BF00E001404FF080531A69B0FB0D
:103CE000F2F302FB130373B9084B0222C3F8042555
:103CF000C3F80805D3F80024D207FBD500220448F6
:103D0000C3F8042570470348704700BF00E0014036
:103D10000000AD0B0A00AD0B10B5054C0123C4F833
:103D20000435FFF7CDFF0023C4F8043510BD00BFF4
:103D300000E00140036803F01F025B09012B0260F1
:103D4000024818BF4FF0A040704700BF000300506A
:103D500070B500F06044B4F1005F66D1840764D1AF
:103D6000344D95F83040012C01D09C425FD12C6835
:103D700004BB022B304B0BBFC3F81025C3F804253E
:103D8000C3F81405C3F808050BBFC3F81815C3F82A
:103D90000C15082204220021C3F8001102F180430F
:103DA00003F5243301221A60234AD2F80031002B94
:103DB000FBD00DE0AE68204C66B1022BE860696173
:103DC000EA612BD1C4F81025C4F81405C4F81815FD
:103DD0001A4870BD022B85F830300CBF082304232D
:103DE0002961AA61A86003F180430BBFC4F81025C4
:103DF000C4F80425C4F81405C4F808050CBFC4F8B9
:103E00001815C4F80C150C49002203F52433C1F829
:103E100000210122C1F804231A60D9E7C4F804255F
:103E2000C4F80805C4F80C15D2E70548D1E70548E1
:103E3000CFE700BFAC360020009002400000AD0B81
:103E40000A00AD0B0B00AD0B38B5074D6424D5F857
:103E5000003133B90A2002F00CFE013CF7D10348CF
:103E600038BD0348FCE700BF009002400700AD0BDF
:103E70000000AD0B084B9A685A621A699A629A69F7
:103E8000DA62DA689A6032B15A691A61DA699A615B
:103E90000022DA6070477047AC36002010B50E4B38
:103EA0000238D3F83C26D3F83836072813D8DFE891
:103EB00000F0110F0D0B0A080604100EC871100C4B
:103EC0008871100A48710A711A0ECA701A0C8A7029
:103ED0001A0A4A700B7010BD009002400238072881
:103EE0001FD8DFE800F02927251123211F04CB79F3
:103EF0001B068A7943EA02434A7943EA02230A7994
:103F000013430E4AC2F83C36CB781B068A7843EA44
:103F100002434A7843EA02230A781343074AC2F865
:103F2000383670470023E4E70023E5E70023E6E79F
:103F30000023EBE70023ECE70023EDE700900240CD
:103F4000F7B56B4E96F8303004461546002B40F01E
:103F5000CA80C27C1AB1037D002B40F08480237993
:103F6000FF2B00F0C3806079FF2800F0BF80A079AC
:103F7000FF2800F0BB80E079FF2800F0B780002A1E
:103F800042D101A80193FFF7D5FE019B03F5E07331
:103F900040F2023740F8237001A863790193FFF7DC
:103FA000C9FE019B03F5E07340F8237001A8A379D3
:103FB0000193FFF7BFFE019B03F5E07340F8237008
:103FC00001A8E3790193FFF7B5FE019B03F5E073C8
:103FD00040F82370237AFF2B08D001A80193FFF744
:103FE000A9FE019B03F5E07340F82370637AFF2B71
:103FF0000AD001A80193FFF79DFE019B03F5E07332
:1040000040F2023240F82320237D63BB2379FF2B4B
:1040100018BF1A46374B08BF4FF0FF32C3F82425AC
:104020006279FF2A08BF4FF0FF32C3F82825A27932
:10403000FF2A08BF4FF0FF32C3F83025E279FF2A8C
:1040400008BF4FF0FF32C3F83425227AFF2A08BF99
:104050004FF0FF32C3F83825627AFF2A08BF4FF0CD
:10406000FF32C3F83C25234A2368C2F84035237B3E
:10407000E77AA07A9B0143EAC7030343607B43EAE4
:10408000C013C2F84435D2F80006A37B20F07F406D
:1040900020F0FF000343E07B43EA0063207C43EA17
:1040A0004063607C43EA0073C2F80036E37C86F824
:1040B00031300123C6E90015C2F8083311B12920B7
:1040C000FDF7DAF90B4B01220021C6E9021186F84F
:1040D0003020C3F80025C3F800111A6003B0BDE812
:1040E000F040FFF7B1BE044803B0F0BD0348FBE762
:1040F000AC360020009002400500AD0B0400AD0B73
:1041000070B51446194A92F83020012A05462BD181
:10411000174E0022C6F8002111B14078FFF7DEFEED
:104120000123C6F80833AB786A781B0343EA0223FD
:104130002A781343EA7843EA42332A7943EA8233FE
:104140006A7943EAC233C6F83436FFF77DFE094B7D
:10415000984208D00023C6F800311CB16878214687
:10416000FFF79CFE044870BD0448FCE7AC36002015
:10417000009002400700AD0B0000AD0B0B00AD0B33
:104180001FB50D4A02920DF107020023114602A845
:104190008DF80730ADF80C30FFF7B2FF074B9842AF
:1041A00006D19DF8073013F0010F054B18BF1846D4
:1041B00005B05DF804FB00BF050200010000AD0B77
:1041C0000B00AD0B2DE9F0412920FDF763F9244BDD
:1041D000244DD3F8342602F44032B2F5803F04BFB8
:1041E000214AC3F834264FF080510122C3F8082336
:1041F0001A61D1F83011082908BF5A65184B0022FE
:10420000C3F80025C3F8002195F831201ABBD3F874
:104210002405D3F82885D3F83075D3F83465D3F85E
:104220003845D3F83C15C0B202F0D6FC5FFA88F0EE
:1042300002F0D2FCF8B202F0CFFCF0B202F0CCFCFB
:10424000E0B2FF28C9B201D002F0C6FCFF2902D0BB
:10425000084602F0C1FC002385F83030BDE8F0814B
:1042600000900240AC360020000103008B0721D1F2
:10427000124A13681BB192F83030012B1CD1042371
:1042800082F830300E4BC3F81C150021C3F820050E
:10429000C3F800110121D960106840B9D3F80011AA
:1042A0000029FBD0012382F8303006487047C3F85C
:1042B0000413FAE70448704704487047AC360020FE
:1042C000009002400000AD0B0A00AD0B0B00AD0BDF
:1042D00010B5174BD3F80021E2B10022154CC3F8FA
:1042E000002194F83020032A15D0042A15D0022A80
:1042F00004D1012384F82030FFF7BCFDA36813B973
:10430000012384F83030D4E900310020984700239D
:1043100084F8203010BD0223ECE7032284F820202B
:10432000D3F81C256262D3F8203584F82830E5E7FD
:1043300000900240AC36002073B504460D464FF0A5
:104340002003EFF3118683F31288BFF36F8F0428E5
:1043500096BF124B124B53F8203000220092452199
:104360000246104802F09AF83DB1EB69C3F3080326
:104370001BB10D48452102F091F80C4B0C4800226E
:10438000452102F08BF829462046FEF76FFE86F3A2
:104390001188BFF36F8F02B070BD00BF5071000075
:1043A0009E7B0000AC7B0000D97B0000FF7B0000FF
:1043B000077C00000F4B70B553F82040013053F8D4
:1043C0002060A64200D870BDD4E900352846984741
:1043D0006DB138B10028B8BF4042EB68FF28A8BFD4
:1043E000FF201870EA68537843F0010353700834D3
:1043F000E7E700BF6471000008B5094B0122032004
:104400001A70FFF7D7FF02F019FC0420FFF7D2FF64
:10441000FBF7E0FF034A137B23F00103137308BD8E
:10442000013800202021002008B50348034A00215C
:10443000121A02F0F5FB08BD00210020043800200C
:1044400008B50020FFF7B6FF184B83F30888184C17
:10445000636943F4007363610025E02384F822302C
:10446000E57725766576A57684F82050636A43F46F
:10447000E023636284F82350FDF7C0FAFCF7B0FF35
:104480004FF0FF33A362E362FDF7C0FBFDF742FB91
:1044900002F0BAFB0120FFF78DFF0220FFF78AFF31
:1044A00004482B462A462946FDF786F8804000201E
:1044B00000ED00E0F943000008B50648064A074948
:1044C000121A02F0AFFBBDE80840054A054906484C
:1044D00002F0A8BB00200020FE200020747C000019
:1044E00000000000747C000000200020034B1B68CB
:1044F0000BB9FEF7D9BC0020704700BFE0360020A2
:1045000010B50E4B1C689C4204D1FFF7EFFF6FF013
:10451000004010BDFFF7EAFF002CF8D0D4E90432C8
:104520001B1A62EBE072B3F1004F72F10001EEDA98
:10453000002AACBF18460020EBE700BF8C2000200B
:1045400030B570B10B4B5B6898420AD0036843B139
:10455000D3E90421D0E90445121941EB0501C3E96F
:104560000421D0E9003213605A600023C0E900330F
:1045700030BD00BF8C2000202DE9F84303464FF0EA
:104580002002EFF3118482F31288BFF36F8F254F5F
:10459000DFF89490D9F80000DFF890C03B60484500
:1045A000DCE9001E4FEAE3750CD058B1D0E904866F
:1045B000434575EB060217DAB8EB030266EB050616
:1045C000C0E9042659184EEB0505CCE90015002575
:1045D0003D60FFF795FF2946FEF734FC84F3118810
:1045E000BFF36F8FBDE8F88318EB01014EEBE87362
:1045F000CCE9001300220023C0E90423FFF7A0FF49
:1046000084F31188BFF36F8F836898474FF02003BE
:10461000EFF3118483F31288BFF36F8F3B68A3EB32
:104620000803B7E7E03600208C200020A0210020FE
:1046300010B50A4C23681BB101232360002010BD74
:1046400000F052F80028F7D00138062803D8044BB0
:1046500053F8200010BD034810BD00BFE436002011
:104660007C710000FE8FFFFFBFF34F8F0549064BA3
:10467000CA6802F4E0621343CB60BFF34F8F00BF00
:10468000FDE700BF00ED00E00400FA0510B40A4B9E
:104690000A490B4C4FF0FE32C3F800244968C3F8B6
:1046A0000424C3F80824C3F80C240023C4F80035FC
:1046B0005DF8044B084700BF00B002509420002072
:1046C00000A00250D0E90012014BC3E9001270476C
:1046D0009420002038B131B101440022034601305A
:1046E00088421A70FAD1704738B500F02FF820B11F
:1046F000032400F063F8204638BD00F031F898B983
:1047000000F0ACF898B90F4DD5F828391B0EF02BF6
:1047100008D1D5F8242A0C4B9A420AD0072400F07D
:1047200017F8E6E70624FAE70424204638BD0024FB
:10473000F5E7012000F092F804460028F7D1C5F80B
:104740000C0AD8E700B002500000E02000207047BB
:1047500000207047014BC3F8040A704700B00250B4
:1047600010B5114800F048F800B110BD0F4800F036
:1047700043F80028F9D10E4C204600F03DF80028FF
:10478000F3D10C4B0C481C6000F036F801460028B1
:10479000EBD100F02DF8044608B1204610BD00F022
:1047A0003FF82046FAE700BFA82000209C20002008
:1047B000A4200020AC200020A020002008B508483C
:1047C00000F024F8074800F021F8074800F01EF830
:1047D000064800F01BF8BDE8084000F00BB800BF29
:1047E000A82000209C200020A4200020A020002041
:1047F00000207047704700BF08B5034B02681B6874
:1048000010689847002008BDB820002008B5034B69
:1048100002685B6810689847002008BDB820002037
:1048200070B5094C094D2069AB68984718B1084B21
:1048300008485B689847084AEB68206900211160C6
:10484000BDE87040184700BFC8200020B8200020F5
:104850009420002098710000E8360020F8B51A4D29
:104860001A4E0446B26828699047E8B9184F3B6869
:104870004CB1A3B1012B19D0013B3B602869F3680F
:1048800098470020F8BD43B9124A0121C2F800152B
:104890001149D1F81029002AFBD101333B60F3689C
:1048A000286998470020F8BD0C48F8BD0A4AD2F89C
:1048B0001039002BFBD1074A6FF07E40C2F800355B
:1048C000FFF748FF3B68D7E7C8200020B82000204A
:1048D000E836002000A0025000B00250E98FFFFF30
:1048E00010B5044650B1636813F0685F05D0064AFE
:1048F000934202D000232360626010BD034B044842
:104900005B689847EFE700BF2C5F5CA9942000200C
:10491000B8710000C8B143680D4A934213D013F038
:10492000685F0ED0012350E8002F194640E8001CB4
:104930009CF0000FF7D1012AF5D0BFF35F8F002064
:10494000704704487047044870476FF4E040704770
:104950002C5F5CA9E98FFFFFEA8FFFFF80B14368FE
:10496000094A93420AD013F0685F05D0BFF35F8F06
:104970000023036018467047044870470448704796
:104980006FF4E040704700BF2C5F5CA9E98FFFFF28
:10499000EA8FFFFF10B5044620B1044B636000228C
:1049A000226010BD0248FFF771FEF6E73A00003AB8
:1049B000E071000030B10268034B04489A4208BF1E
:1049C0000020704702487047DD55AABB8208F000FE
:1049D0007108F00038B50D460446B0B1A0220021A0
:1049E000043002F045F995B10822294604F164002B
:1049F00002F044F9082205F1200104F1840002F0DC
:104A00003DF9044B2360002038BD0348FCE7034810
:104A1000FAE700BFDD55AABB7108F0008308F0007B
:104A20002DE9F74305460E4699461146FFF7C2FFAA
:104A30000446002840F08480002E00F08580002984
:104A400000F08480B9F1200F40F0828005F1440429
:104A5000082205F10408204602F010F905F12407A8
:104A600008223146404602F009F906F120010822E9
:104A7000384602F003F902A94FF4807041F8049D12
:104A800002F0F0F8002865D1334A4FF480731360C8
:104A9000012193600823314A00F02EFB01210846D2
:104AA00005232F4A00F028FB0823424601211C2041
:104AB00000F022FB08233A460121032000F01CFBF2
:104AC000224608230121022000F016FB0823254A74
:104AD00001211A2000F010FB0523234A01211B208D
:104AE00000F00AFB0823214A0121142000F004FBF6
:104AF00008231F4A0121152000F0FEFA082305F1C2
:104B000064020121162000F0F7FA082305F184025F
:104B10000121172000F0F0FA0823164A01210B208A
:104B200000F0EAFA00F044FB0446019800F0D2FAE3
:104B3000114B002C18BF1C46A421284602F09AF8FD
:104B4000204603B0BDE8F0830C4CF9E70C4CF7E7C6
:104B50000C4CF5E7084CEFE790B0025044720000AF
:104B6000BC72000004720000A872000068720000AD
:104B700088720000247200008408F0007608F000BB
:104B80008008F0008108F0000C4BC2691A6082694D
:104B900043F8042C426943F8082C026943F80C2CB2
:104BA000C26843F8102C826843F8142C426843F81A
:104BB000182C026843F81C2C704700BF5CB60250EA
:104BC0000C4B1B68C3610C4B1B6883610B4B1B6850
:104BD00043610B4B1B6803610A4B1B68C3600A4BA4
:104BE0001B688360094B1B684360094B1B680360AB
:104BF000704700BF5CB6025058B6025054B602501F
:104C000050B602504CB6025048B6025044B602505C
:104C100040B6025030B10268034B04489A4208BFC4
:104C20000020704702487047DD55AABB0202F00021
:104C30000002F00038B5044668B1051D7021284611
:104C400002F018F828462022044902F00FF8044B1D
:104C50002360002038BD0348FCE700BFD07200008D
:104C6000DD55AABB0002F0002DE9F043284B0446B5
:104C70000E4615460FCB85B06F4687E80F002DB95D
:104C80004FF00009484605B0BDE8F0832046FFF725
:104C9000C1FF81460028F5D1231D0193636AA3BBA0
:104CA000236F8BB1C3F14008A84528BFA84604F183
:104CB000300031461844424601F0D8FF236F434488
:104CC00046442367A5EB0805226F402A06D104F16C
:104CD0003001384600F0AEFB0023236705F03F08A3
:104CE00035F03F0505D031462A46384600F0A2FB94
:104CF0002E44B8F1000FC3D04246314604F13000D3
:104D000001F0B4FFC4F87080BCE7DFF80890B9E7A1
:104D1000406F00000C02F0002DE9FF41144B0446E7
:104D20000E460FCB6F4687E80F002046FFF772FF55
:104D30008046B0B9CEB1636A251D01953BB9012308
:104D40006362226F04F13001384600F073FB2B469A
:104D5000043E243453F8042B12BAA34246F8042F1D
:104D6000F8D1404604B0BDE8F081DFF80880F8E7EC
:104D7000406F00000502F000084B1B681B0EF02B73
:104D800008D1074B1A68074B9A4205D1064B002001
:104D900018607047052070470620704728B90250F8
:104DA00024BA02500000E0200CBA0250002230B5B4
:104DB00049001346023840F6FC7502F1A05404F590
:104DC0002C44A400904202F10102CABF2360256076
:104DD0005B181E2AF1D1044A13600B445360034B45
:104DE000034A1A6030BD00BF78B0025084B0025050
:104DF00020F80F0030B51E4B85B01A461968009197
:104E00000099CC07FAD500F1A05000F52C408000A5
:104E1000016813680193019BD807FAD5154B164C0E
:104E20001868164D1F30202390FBF3F0013800283E
:104E300010DA00230130400153B1A0F120014FF0FE
:104E40000042134204D1013888424FEA5202F8D19D
:104E500005B030BD13680393039BDB07FAD54318F5
:104E600023602B680293029B002BE3D10138DEE71D
:104E7000B4B00250ACB00250E4B00250DCB002500A
:104E8000F0B51D6885B001F01F040DB91F2C25D1A8
:104E9000154D2E462F680197019FFF07FAD500F1A7
:104EA000A05000F52C408000006835680395039DF4
:104EB000ED07FAD50D4D00EB611028600C48006835
:104EC00002901F2C18BFC94302980FBF106001F059
:104ED0001F0100FA01F11160002119601068430000
:104EE000C00F136005B0F0BDB4B00250E4B0025082
:104EF000DCB002500C4B18603F3020F03F008901BD
:104F0000403058609960D9601961596199611C33CA
:104F10000648196082B002680192019AD207FAD558
:104F2000196002B0704700BF90B00250B4B0025098
:104F300038B5A0F12003B3F5426F05462CD88F2871
:104F400026D800F1470300F16604DB064FEA54144B
:104F500000D0013464013F34A409013411B1A142ED
:104F60001AD30C46E3004FF48050B0FBF3F0202836
:104F700028BF202002B11060084B01221A60214690
:104F8000FFF714FF28462146FFF7B4FF002038BD85
:104F900000F11F046409DDE70148F8E71CB802507E
:104FA0002221F000F0B5454B89B01D461C680194E4
:104FB000019CE407FAD5424BDFF80CE1DFF80CC1A5
:104FC00013449B0000241A680B181E2B88BFC0F1E5
:104FD0001E011F320B1852095343B3F5806F82BF75
:104FE0004FF48061B1FBF2F1091A00F1A05000F515
:104FF0002C402746A14233DC2B680493049BDB073B
:10500000FAD5304B1B68296805910599CF07FAD569
:105010002D4C2E49236000231E46934203F10100CC
:1050200040D120F001022948194600268A423CD886
:10503000296806910699CE07FAD525490968286896
:1050400007900798C007FAD52160204800210C4638
:105050008B422DD11D4900209A422CD809B0F0BDB9
:105060002B680293029BDB07FAD503199B001B6890
:105070002E680396039EF607FAD5CEF8003000237B
:10508000934203F1010306D1164623F00103B34214
:1050900004D80134AEE7CCF80070F1E7CCF800702A
:1050A0000136F4E70E600346B7E706600131BDE75D
:1050B00004600131CCE708600133CDE7B4B00250A1
:1050C00024AC00147CB00250D4B00250D8B00250CE
:1050D00078B0025008B540B1202801464FF00702D1
:1050E00028BF20210020FFF75DFF024B00221A603D
:1050F00008BD00BF1CB80250F0B5294D85B02C4644
:105100002E680096009EF607FAD500F1A05000F533
:105110002C4080000568206801900198C707FAD5E7
:105120002048214F056002EB8306B24229D15A1C68
:105130001D4E22F0010200279A4227D823680293CD
:10514000029BDE07FAD5194B0B449B001B681F33EB
:105150005B099A4213D2216803910399C907FAD5D2
:10516000154400219B1A104A056008468B4210D84E
:105170005A1C0D4922F0010200209A420CD805B0B9
:10518000F0BD52F804CBC7F800C0CEE7376001335A
:10519000D2E710600131E9E708600133EDE700BFB5
:1051A000B4B00250D4B00250D8B0025024AC0014B5
:1051B0002DE9F041814B1D6898682033A0B01E4650
:1051C0001A680192019AD707FAD57D4B7D4A1A6079
:1051D00032680292029AD407FAD57B4A1A607B4A57
:1051E0001446116803910399C907FAD5784A1168E2
:1051F000C1F3402137680497049FFF07FAD5754F24
:105200001F6027680597059FFF07FAD517680029D3
:1052100000F0CF80B90540F1CC8031680691069945
:10522000CF07FAD56C491960216807910799C9071A
:10523000FAD51168C1F3402137680897089FFF0726
:10524000FAD5664F1F6027680997099FFF07FAD5AF
:105250001268002900F0AF80910540F1AC803268FF
:105260000A920A9AD207FAD5564A1A6032680B9205
:105270000B9AD707FAD55A4A1A6031680C910C99E3
:10528000CC07FAD55749196031680D910D99C907B6
:10529000FAD55549196031680E910E99CF07FAD5A4
:1052A0005249196031680F910F99CC07FAD55049CE
:1052B0001960504B1E46196810911099C907FAD50C
:1052C0003F4C4D4B236033681193119BDB07FAD59C
:1052D0004A4B236033681293129BDF07FAD5484B81
:1052E00023603A4B9846196813911399C907FAD568
:1052F000324F386033681493149BDB07FAD5226071
:1053000033681593159BD807FAD53E4B2360336855
:105310001693169BD907FAD53B4B23603368179336
:10532000179BDA07FAD5394B236033681893189B1B
:10533000DB07FAD5364B236033681993199BD807DE
:10534000FAD5344B236033681A931A9BD907FAD5E0
:10535000314B236033681B931B9BDA07FAD52F4B25
:10536000236000F01DFC08BBD8F800301C931C9B88
:10537000DB07F9D53D6033681D931D9BD907FAD52E
:10538000274B236033681E931E9BDA07FAD5254B03
:105390002360D8F800301F931F9BDB07F9D50C4B17
:1053A0001B6813F4805F204B08BF184620B0BDE88F
:1053B000F0811E48FAE71E48F8E700BF90B002509F
:1053C00080B0025000100251C01F7229B4B00250C8
:1053D00088B00250C0CF0129C01F0E29C03F00294C
:1053E00040010249003184A800001649400108A18B
:1053F00080440888B0B00250C044708880077A4169
:10540000C0077E4100006A498006164940006E4987
:10541000000200210082202140822021808224215C
:1054200040A161A100C861510308F1000108F10029
:105430000208F1002DE9F74F314B4468804692464F
:1054400099461A68002AFCD12E4B9B461A68002AFE
:10545000FCD14FF0FF30019100F094FC802000F06F
:1054600097FC294D294A2A4F2A4E012307202B60F9
:10547000A2F59E72C2F83C011360636A3B60A36AA6
:105480003360D8F8003042F8043CD8F808302046A1
:1054900098470199D9F80030002BFBD1BAF1000FE1
:1054A00020D11D4B04221A60D9F80030002BFBD10B
:1054B000DBF800A0BAF1000FFAD1D8F80C30204682
:1054C00098473B6863623368A362144BC3F800A03B
:1054D000C3F844A1D9F80030002BFBD12B6003B0F6
:1054E000BDE8F08F236A012B04BF0C4A13600C4BFC
:1054F00040201960C3F804A000F050FCD4E700BFBE
:1055000010B9025020BC025018B8025000B9025025
:10551000CCB70250D0B70250C8B7025084B6025080
:1055200028BC025010B5544B98B019461A68019225
:10553000019AD207FAD5514B514A1A600A68029271
:10554000029AD407FAD54F4A1A600A680392039A5E
:10555000D007FAD54C4818600A680492049AD2071A
:10556000FAD54A4A1A600A680592059AD407FAD50C
:10557000474A1A600A680692069AD207FAD5454A3F
:105580001A600A680792079AD407FAD5424A1A6045
:105590000A680892089AD207FAD5404A1A600A683F
:1055A0000992099AD407FAD53D4A1A600A680A9204
:1055B0000A9AD207FAD53B4A1A600A680B920B9AEC
:1055C000D407FAD5384A1A600A680C920C9AD207A6
:1055D000FAD5364A1A600A680D920D9AD407FAD5A0
:1055E000334A1A600A680E920E9AD207FAD5314AE7
:1055F0001A600A680F920F9AD407FAD52E4A1A60D9
:105600000A681092109AD207FAD52C4A1A601A4BDF
:1056100019461C681194119CE407FAD5174B1860C1
:10562000086812901298C407FAD51A600A68139293
:10563000139AD007FAD5124A1A600A681492149A7B
:10564000D207FAD51E4A1A600A681592159AD4072D
:10565000FAD51C4A1A600A681692169AD007FAD52B
:10566000194A1A600A681792179AD207FAD5174A88
:105670001A6018B010BD00BFB0B0025080B0025028
:10568000009365210004319040966590008361216C
:1056900000C3302100C36490008161900046102156
:1056A000008111210041442100C320290C4610C86B
:1056B0000086312100C3602140C128294096652120
:1056C0000013319040962529594614C840043249A8
:1056D00010B5494B94B019461A680092009AD20747
:1056E000FAD5464B464A1A600A680192019AD407D5
:1056F000FAD5444A1A600A680292029AD007FAD58B
:10570000414818600A680392039AD207FAD53F4AC3
:105710001A600A680492049AD407FAD53C4A1A60BF
:105720000A680592059AD207FAD53A4A1A600A68B9
:105730000692069AD407FAD5374A1A600A68079281
:10574000079AD207FAD5354A1A600A680892089A69
:10575000D407FAD5324A1A600A680992099AD20720
:10576000FAD5304A1A600A680A920A9AD407FAD51A
:105770002D4A1A600A680B920B9AD207FAD52B4A67
:105780001A600A680C920C9AD407FAD5284A1A6053
:105790000A680D920D9AD207FAD5264A1A600A684D
:1057A0000E920E9AD407FAD5234A1A600A680F920D
:1057B0000F9AD207FAD5214A1A600F4B19461C6876
:1057C0001094109CE407FAD50C4B186008681190EF
:1057D0001198C407FAD51A600A681292129AD00773
:1057E000FAD5174A1A600A681392139AD207FAD5A3
:1057F000144A1A6014B010BDB0B0025080B002500C
:105800008090652100040990409665908080612118
:105810008020082180206490008161900046102142
:10582000008111210041442180202029024610C816
:105830000086092180206021402128294096652189
:1058400040962529594614C810B5504B96B01C46B1
:105850001A680192019AD207FAD54D4B4D4A1A6047
:1058600022680292029AD207FAD54B4A1A604B4A32
:1058700042EA804022680392039AD207FAD5186060
:1058800022680492049AD007FAD5454A1A60A2F514
:10589000800242EA814122680592059AD207FAD530
:1058A000196022680692069AD007FAD53D4A1A6016
:1058B00022680792079AD107FAD53B4A1A602268F4
:1058C0000892089AD207FAD5384A1A6022680992D3
:1058D000099AD007FAD5364A1A6022680A920A9ABB
:1058E000D107FAD5334A1A6022680B920B9AD20775
:1058F000FAD5314A1A6022680C920C9AD007FAD570
:105900002E4A1A6022680D920D9AD107FAD52C4AB8
:105910001A6022680E920E9AD207FAD5294A1A60A6
:1059200022680F920F9AD007FAD5274A1A60216889
:1059300010911099C907FAD51A60144B1A461968C4
:1059400011911199C807FAD5114B204919601168B6
:1059500012911299C907FAD51D491960116813915E
:105960001399CC07FAD50B49196011681491149951
:10597000C807FAD517491960116815911599C90713
:10598000FAD5154A1A6016B010BD00BFB0B002506B
:1059900080B002504004419000862929D81001C8E7
:1059A0004014419040142129401465210034409056
:1059B00000310C90C0400C90C030202940960D90D2
:1059C00000416090031645C8008611210041602106
:1059D000594644C84014459040142D9070B526484F
:1059E00088B0054604680094009CE607FAD5234871
:1059F000234C0460234C44EA83432C680194019CAB
:105A0000E407FAD50360930143EA824242F010446E
:105A100044F4C0442B680293029BDE07FAD504606D
:105A20002B680393039BDB07FAD5174B03608B01AD
:105A300043EA814141F0104343F4C0432E68049689
:105A4000049EF607FAD503602B680593059BDE07D5
:105A5000FAD5046041F058412B680693069BDC0799
:105A6000FAD5016042F058422B680793079BDB0789
:105A7000FAD5026008B070BDB0B0025080B00250DC
:105A8000C02102298071009880611890354B8EB03A
:105A900019461A680092009AD207FAD5324B334A57
:105AA0001A600A680192019AD007FAD5304A1A6042
:105AB0000A680292029AD207FAD52E4A1A600A6838
:105AC0000392039AD007FAD52B4A1A600A68049207
:105AD000049AD207FAD5294A1A600A680592059AEB
